:100000000C942A000C9447000C9447000C94470071
:100010000C9447000C9447000C9447000C94110872
:100020000C9447000C9447000C9447000C94470034
:100030000C9447000C9447000C9447000C94470024
:100040000C9447000C9447000C9447000C94470014
:100050000C94470011241FBECFE5D8E0DEBFCDBF12
:1000600010E0A0E6B0E0EEE1F6E502C005900D92EA
:10007000A636B107D9F716E0A6E6B0E001C01D929A
:10008000AC3AB107E1F70E944B2A0C940D2B0C946B
:100090000000DF93CF9300D0CDB7DEB78BE090E0C8
:1000A0000E948E039A83898389819A81009749F0FF
:1000B000E981FA811182108289819A8102960E94D7
:1000C0000A0489819A810F900F90CF91DF91089552
:1000D000DF93CF93CDB7DEB760970FB6F894DEBF4E
:1000E0000FBECDBF9A8789877C876B875E874D87D8
:1000F000388B2F8789859A859C838B8319820E94F0
:10010000071CEB81FC818081918198878F83898591
:100110009A852B853C85B9010E943F022F81388545
:100120008B859C85282B392B8D859E85282339230B
:100130008D859E8528173907C9F42F8138858B85D1
:100140009C85822B932B9E838D83EB81FC81208168
:1001500031818D859E858095909582239323EB81B7
:10016000FC8191838083188A1F861EC08F859889A1
:10017000009791F08B819C81BC016E5F7F4F8D85D4
:100180009E859C0135604F855889CB01B9010E943D
:10019000771E1E821D8208C0EB81FC8180819181C7
:1001A0009E838D8381E089830E94131C8A838F85BF
:1001B0009889009709F43AC08A81882311F40E9433
:1001C000FF060E948F229E838D838D819E81807089
:1001D0009270009731F50FB6F8940F92EB81FC8185
:1001E000808191819E838D832D813E818D859E8529
:1001F000282339238D859E852817390771F4EB81D3
:10020000FC81208131818D859E858095909582230A
:100210009323EB81FC81918380830F900FBE81E05B
:1002200089838D819E8190709E838D838D819E8137
:1002300060960FB6F894DEBF0FBECDBFCF91DF91B1
:1002400008950F931F93DF93CF93CDB7DEB76397D6
:100250000FB6F894DEBF0FBECDBF9D878C877F871A
:100260006E87488B298B1B8B0A8B8C859D859B8782
:100270008A871F821E821B820E94071CEA85FB85DB
:10028000808191819A83898389819A812E853F8596
:10029000B90149890E945C038D838D818823C1F057
:1002A00089819A81998788871B8A1A8A88898823F5
:1002B000E9F1EA85FB85208131818E859F858095D6
:1002C000909582239323EA85FB85918380832EC0BA
:1002D0008A899B89009739F489819A8199878887CF
:1002E00081E08B8323C08889882329F08E819F81B8
:1002F00091609F838E838989882329F08E819F81D5
:1003000094609F838E838A859B85BC016E5F7F4F3F
:100310002E853F858E819F81282B392B4A895B89C9
:10032000CB01B9010E94771E198618860E94131C02
:100330008C838A899B89009709F43CC08C8188232F
:1003400011F40E94FF060E948F2299878887888572
:10035000998580709270009741F50FB6F8940F92CE
:10036000EA85FB8580819181998788878885998531
:100370002E853F85B90149890E945C03882389F055
:100380008889882371F0EA85FB85208131818E85FB
:100390009F858095909582239323EA85FB859183A1
:1003A000808381E08B830F900FBE88859985907044
:1003B000998788878885998563960FB6F894DEBFFC
:1003C0000FBECDBFCF91DF911F910F910895DF93A5
:1003D000CF93CDB7DEB728970FB6F894DEBF0FBE28
:1003E000CDBF9E838D8378876F838D819E819C8313
:1003F0008B830FB6F8940F92EB81FC818081918101
:100400009A838983EB81FC81208131818F8198855A
:100410008095909582239323EB81FC819183808347
:100420000F900FBE89819A8128960FB6F894DEBF8F
:100430000FBECDBFCF91DF910895DF93CF93CDB79E
:10044000DEB727970FB6F894DEBF0FBECDBF9F83F0
:100450008E838E819F819C838B831D82EB81FC81A7
:10046000808191819A83898389819A8127960FB6A9
:10047000F894DEBF0FBECDBFCF91DF910895DF931B
:10048000CF93CDB7DEB765970FB6F894DEBF0FBE3A
:10049000CDBF9B8B8A8B7D8B6C8B198618868A8946
:1004A0009B899B838A8319828A819B8102969B8781
:1004B0008A878A859B8503969D878C870E94071C67
:1004C000EA85FB8585819681998B888BEA81FB8102
:1004D000208131818C899D89822B932BEA81FB813C
:1004E0009183808359C0E889F989828193819F87AC
:1004F0008E87E889F989808191819F838E83198213
:100500008E819F8180709D838C838E819F8190706E
:100510009F838E838C819D8180709470009769F495
:10052000EA81FB81208131818E819F818223932307
:10053000009791F081E089830FC0EA81FB812081DF
:1005400031818E819F81282339238E819F812817B5
:10055000390711F481E0898389818823C9F08C816E
:100560009D8180709170009741F0888599852E81DA
:100570003F81822B932B99878887EA81FB81808139
:1005800091819C01326088899989B9010E94121F6A
:100590008E859F85998B888B288939898C859D8547
:1005A0002817390709F09FCFEA81FB81208131812B
:1005B000888599858095909582239323EA81FB8194
:1005C000918380830E94131CEA81FB818081918149
:1005D00065960FB6F894DEBF0FBECDBFCF91DF9109
:1005E0000895DF93CF9300D000D000D0CDB7DEB711
:1005F0009E838D838D819E819C838B838B819C8147
:1006000002969A8389830E94071C08C0E981FA81B7
:100610008581968160E072E00E94121FE981FA8173
:100620008081882399F78B819C810E94E4030E943A
:10063000131C26960FB6F894DEBF0FBECDBFCF9128
:10064000DF910895DF93CF9300D000D000D0CDB7D5
:10065000DEB79A8389834B835C836D837E83898134
:100660009A812B813C81B9010E943F0226960FB6E8
:10067000F894DEBF0FBECDBFCF91DF910895DF9319
:10068000CF9300D000D000D0CDB7DEB79A83898356
:100690004B835C836D837E8389819A812B813C812E
:1006A000B9010E94E70126960FB6F894DEBF0FBE8F
:1006B000CDBFCF91DF910895DF93CF9300D000D0CD
:1006C00000D0CDB7DEB79B838A837D836C834E8356
:1006D00019828E81882359F48A819B812C813D81E6
:1006E00082239323009781F081E089830DC02A81C2
:1006F0003B818C819D81282339238C819D81281702
:10070000390711F481E08983898126960FB6F89420
:10071000DEBF0FBECDBFCF91DF910895DF93CF93A2
:1007200000D000D0CDB7DEB79C838B831A821982AC
:100730000E94071C8091680090916900009731F435
:100740008BE690E09093690080936800809166004A
:10075000909167002B813C81820F931F25E08B3D98
:10076000920738F520916600309167008B819C815B
:10077000280F391F809166009091670082179307B8
:10078000C0F42091680030916900809166009091DA
:100790006700820F931F9A838983209166003091AE
:1007A00067008B819C81820F931F909367008093D9
:1007B00066000E94131C89819A810F900F900F9000
:1007C0000F90CF91DF910895DF93CF9300D0CDB7F5
:1007D000DEB79A8389830F900F90CF91DF910895B0
:1007E000DF93CF93CDB7DEB710926700109266000B
:1007F000CF91DF910895DF93CF93CDB7DEB72091EE
:100800006600309167008BED95E0821B930BCF91D2
:10081000DF910895DF93CF9300D0CDB7DEB79A83F1
:10082000898389819A810396E981FA819283818300
:10083000E981FA818FEF9FEF9483838389819A8185
:100840000396E981FA819683858389819A8103964B
:10085000E981FA8190878783E981FA8110820F907C
:100860000F90CF91DF910895DF93CF9300D0CDB754
:10087000DEB79A838983E981FA81118610860F9009
:100880000F90CF91DF910895DF93CF9300D000D0E8
:1008900000D0CDB7DEB79C838B837E836D83EB81E5
:1008A000FC81818192819A838983ED81FE81898196
:1008B0009A8193838283E981FA8184819581ED8194
:1008C000FE8195838483E981FA810480F581E02D9E
:1008D0008D819E8193838283E981FA818D819E81BE
:1008E00095838483ED81FE818B819C8191878087B4
:1008F000EB81FC8180818F5FEB81FC818083269678
:100900000FB6F894DEBF0FBECDBFCF91DF91089533
:10091000DF93CF93CDB7DEB728970FB6F894DEBF3D
:100920000FBECDBF9E838D8378876F83EF81F8855F
:10093000808191819A83898389819A812FEF8F3F6A
:10094000920739F4ED81FE81878190859C838B83AA
:1009500018C08D819E8103969C838B8306C0EB819A
:10096000FC81828193819C838B83EB81FC8102805B
:10097000F381E02D2081318189819A81821793074B
:1009800070F7EB81FC8182819381EF81F8859383FD
:100990008283EF81F8850280F381E02D8F81988535
:1009A00095838483EF81F8858B819C8195838483F3
:1009B000EB81FC818F81988593838283EF81F88519
:1009C0008D819E8191878087ED81FE8180818F5FFF
:1009D000ED81FE81808328960FB6F894DEBF0FBEAE
:1009E000CDBFCF91DF910895DF93CF9300D000D09A
:1009F000CDB7DEB79C838B83EB81FC8180859185AD
:100A00009A838983EB81FC81A281B381EB81FC8194
:100A10008481958115969C938E931497EB81FC812C
:100A2000A481B581EB81FC818281938113969C9393
:100A30008E931297E981FA81218132818B819C8189
:100A40002817390741F4EB81FC8184819581E98184
:100A5000FA8192838183EB81FC8111861086E98182
:100A6000FA8180818150E981FA818083E981FA816C
:100A700080810F900F900F900F90CF91DF9108958C
:100A8000DF93CF93CDB7DEB728970FB6F894DEBFCC
:100A90000FBECDBF9C838B837E836D8358874F832E
:100AA000EB81FC8181E180838B819C8101979C8318
:100AB0008B83EB81FC8182E280838B819C81019717
:100AC0009C838B83EB81FC8183E380838B819C817E
:100AD00001979C838B838D819E819A8389838981F1
:100AE000EB81FC8180838B819C8101979C838B832C
:100AF00089819A81892F99279A8389838981EB81BA
:100B0000FC8180838B819C8101979C838B83EB810B
:100B1000FC8110828B819C8101979C838B83EB816C
:100B2000FC8180E880838B819C8101979C838B83EF
:100B3000EB81FC8110828B819C8101979C838B834C
:100B4000EB81FC8182E080838B819C8101979C8377
:100B50008B83EB81FC8183E080838B819C81019777
:100B60009C838B83EB81FC8184E080838B819C81DF
:100B700001979C838B83EB81FC8185E080838B8153
:100B80009C8101979C838B83EB81FC8186E0808331
:100B90008B819C8101979C838B83EB81FC8187E017
:100BA00080838B819C8101979C838B83EB81FC816B
:100BB00088E080838B819C8101979C838B83EB8170
:100BC000FC8189E080838B819C8101979C838B834E
:100BD000EB81FC8180E180838B819C8101979C83E8
:100BE0008B83EB81FC8181E180838B819C810197E8
:100BF0009C838B83EB81FC8182E180838B819C8150
:100C000001979C838B83EB81FC8183E180838B81C3
:100C10009C8101979C838B83EB81FC8184E18083A1
:100C20008B819C8101979C838B83EB81FC8185E187
:100C300080838B819C8101979C838B83EB81FC81DA
:100C400086E180838B819C8101979C838B83EB81E0
:100C5000FC8187E180838B819C8101979C838B83BE
:100C6000EB81FC8188E180838B819C8101979C834F
:100C70008B83EB81FC8189E180838B819C8101974F
:100C80009C838B83EB81FC8180E280838B819C81C0
:100C900001979C838B83EB81FC8181E280838B8134
:100CA0009C8101979C838B83EB81FC8182E2808312
:100CB0008B819C8101979C838B83EB81FC8183E2F8
:100CC00080838B819C8101979C838B838F81988506
:100CD0009A8389838981EB81FC8180838B819C81CC
:100CE00001979C838B8389819A81892F99279A8385
:100CF00089838981EB81FC8180838B819C81019731
:100D00009C838B83EB81FC8186E280838B819C8139
:100D100001979C838B83EB81FC8187E280838B81AD
:100D20009C8101979C838B83EB81FC8188E280838B
:100D30008B819C8101979C838B83EB81FC8189E271
:100D400080838B819C8101979C838B83EB81FC81C9
:100D500080E380838B819C8101979C838B83EB81D3
:100D6000FC8181E380838B819C8101979C838B83B1
:100D70008B819C8128960FB6F894DEBF0FBECDBF45
:100D8000CF91DF910895DF93CF93CDB7DEB70E9467
:100D9000B507A0914606B0914706CD91CDBFDD9134
:100DA000DEBFFF91EF91DF91CF91BF91AF919F9106
:100DB0008F917F916F915F914F913F912F911F91F3
:100DC0000F91FF90EF90DF90CF90BF90AF909F90EA
:100DD0008F907F906F905F904F903F902F901F90DB
:100DE0000F900FBE0F90089581E0CF91DF9108958D
:100DF000DF93CF93CDB7DEB7CF91DF9108950F92F8
:100E00000FB6F8940F921F9211242F923F924F9297
:100E10005F926F927F928F929F92AF92BF92CF928A
:100E2000DF92EF92FF920F931F932F933F934F9375
:100E30005F936F937F938F939F93AF93BF93CF9362
:100E4000DF93EF93FF93A0914606B09147060DB64E
:100E50000D920EB60D920E94E81DA0914606B0912B
:100E60004706CD91CDBFDD91DEBFFF91EF91DF91C0
:100E7000CF91BF91AF919F918F917F916F915F9132
:100E80004F913F912F911F910F91FF90EF90DF9025
:100E9000CF90BF90AF909F908F907F906F905F901A
:100EA0004F903F902F901F900F900FBE0F9008957E
:100EB0000F920FB6F8940F921F9211242F923F9227
:100EC0004F925F926F927F928F929F92AF92BF925A
:100ED000CF92DF92EF92FF920F931F932F933F9346
:100EE0004F935F936F937F938F939F93AF93BF9332
:100EF000CF93DF93EF93FF93A0914606B0914706FF
:100F00000DB60D920EB60D920E94031D882311F0AE
:100F10000E94E81DA0914606B0914706CD91CDBF35
:100F2000DD91DEBFFF91EF91DF91CF91BF91AF9146
:100F30009F918F917F916F915F914F913F912F91F1
:100F40001F910F91FF90EF90DF90CF90BF90AF90E7
:100F50009F908F907F906F905F904F903F902F90D9
:100F60001F900F900FBE0F900895DF93CF9300D086
:100F700000D000D0CDB7DEB780E49FE1A0E0B0E0C4
:100F80008B839C83AD83BE838B819C81AD81BE812D
:100F9000689415F8B695A795979587951694D1F707
:100FA0008B839C83AD83BE838B819C81AD81BE810D
:100FB0000197A109B1098B839C83AD83BE838B818B
:100FC00089838B819C81AD81BE81892F9A2FAB2F24
:100FD000BB278B839C83AD83BE838B818A83EBE4A9
:100FE000F0E08A818083EAE4F0E0898180838BE00D
:100FF0008983EEE4F0E089818083E9E5F0E0808197
:101000008983898180618983E9E5F0E08981808332
:1010100026960FB6F894DEBF0FBECDBFCF91DF91FD
:1010200008950E9458071895DF93CF9300D000D001
:101030000F92CDB7DEB79C838B836D838B819C81B0
:101040009A8389830FB6F8940F92E981FA814081DF
:101050005181E981FA81838D282F30E0E981FA817D
:10106000848D882F90E0BC01269FC001279F900DA2
:10107000369F900D1124840F951FE981FA81958385
:101080008483E981FA81128EE981FA8180819181DC
:10109000E981FA8193838283E981FA8140815181D8
:1010A000E981FA81838D882F90E09C0121503040A6
:1010B000E981FA81848D882F90E0BC01269FC001D0
:1010C000279F900D369F900D1124840F951FE98165
:1010D000FA8197838683E981FA818FEF858FE98191
:1010E000FA818FEF868F8D81882379F4E981FA81E7
:1010F00080858823A1F089819A8108960E94A71E85
:10110000882369F00E94FF060AC089819A810896A7
:101110000E940A0489819A8141960E940A040F90D4
:101120000FBE81E00F900F900F900F900F90CF9116
:10113000DF9108950F931F93DF93CF93CDB7DEB761
:1011400029970FB6F894DEBF0FBECDBF8F83688797
:1011500049878885882319F41C821B8210C08F81DF
:10116000282F30E08885882F90E0AC01249FC001B3
:10117000259F900D349F900D11249C838B838B8130
:101180009C814F960E948E039E838D838D819E81CC
:101190000097A1F08D819E819A83898389819A81AC
:1011A0004F969A83898329813A81ED81FE818F81CF
:1011B0006885A90129858F010E94EB088D819E8198
:1011C00029960FB6F894DEBF0FBECDBFCF91DF9149
:1011D0001F910F9108950F931F93DF93CF93CDB776
:1011E000DEB727970FB6F894DEBF0FBECDBF898359
:1011F0006A835C834B832D831F830E838A818823BC
:1012000039F48E819F81EE81FF819183808306C0B6
:101210008B819C81EE81FF8191838083EE81FF81B0
:101220008981838FEE81FF818A81848F8E819F8166
:1012300061E00E94140827960FB6F894DEBF0FBE37
:10124000CDBFCF91DF911F910F910895DF93CF9381
:1012500000D0CDB7DEB79A83898389819A810097C0
:10126000A1F0E981FA8115821482E981FA81118263
:101270001082E981FA81168289819A8160E070E0AA
:1012800040E050E020E00E940B0A0F900F90CF91B9
:10129000DF910895DF93CF9300D000D00F92CDB7A8
:1012A000DEB78D8381E08A8319828A8169814D81CD
:1012B0000E949A089C838B838B819C810E942609C3
:1012C0008B819C810F900F900F900F900F90CF917A
:1012D000DF9108950F931F93DF93CF9300D000D039
:1012E0000F92CDB7DEB79D838C838C819D819A83CD
:1012F0008983E981FA81048115810E94D820081729
:101300001907C1F4E981FA8186818150E981FA8166
:101310008683E981FA818681882349F489819A81CB
:1013200060E070E040E050E020E00E940B0A81E0C5
:101330008B8301C01B828B810F900F900F900F90B9
:101340000F90CF91DF911F910F9108950F931F93ED
:10135000DF93CF93CDB7DEB727970FB6F894DEBFF4
:101360000FBECDBF9D838C837F836E838C819D81D7
:101370009A838983E981FA81048115810E94D820AA
:101380000817190751F4E981FA8186818F5FE98195
:10139000FA81868381E08B8312C089819A812E81B4
:1013A0003F81B9010E940B0C8B838B81882339F01C
:1013B000E981FA8186818F5FE981FA8186838B8159
:1013C00027960FB6F894DEBF0FBECDBFCF91DF9149
:1013D0001F910F910895DF93CF9300D000D0CDB728
:1013E000DEB78B836C838B8160E042E00E949A08B9
:1013F0009A83898389819A81009721F0E981FA8112
:101400008C81828F89819A810F900F900F900F901D
:10141000CF91DF910895DF93CF93CDB7DEB72F97AC
:101420000FB6F894DEBF0FBECDBF998788877B8744
:101430006A875D874C872E871C82888599859A8369
:1014400089830FB6F8940F92E981FA81928DE98130
:10145000FA81838D981718F08E85823011F5898175
:101460009A812A853B85B9014E850E94B10E8B83F6
:10147000E981FA818189882351F089819A81419695
:101480000E94A71E882341F00E94FF0605C08B81A1
:10149000882311F00E94FF060F900FBE81E08F8716
:1014A0005CC08C859D85009721F40F900FBE1F8630
:1014B00054C08C81882331F4CE0105960E948D1F83
:1014C00081E08C830F900FBE0E94071C0FB6F8942A
:1014D0000F92E981FA81858D8F3F19F4E981FA81B4
:1014E000158EE981FA81868D8F3F19F4E981FA81A1
:1014F000168E0F900FBECE0105969E01245F3F4FC2
:10150000B9010E94A61F882309F589819A810E944A
:101510003F108823A1F089819A8108962C853D850A
:10152000B9010E94551E89819A810E94B00F0E94C4
:10153000131C882309F085CF0E94FF0682CF898182
:101540009A810E94B00F0E94131C7BCF89819A81DF
:101550000E94B00F0E94131C1F868F852F960FB616
:10156000F894DEBF0FBECDBFCF91DF910895DF931A
:10157000CF93CDB7DEB72C970FB6F894DEBF0FBE72
:10158000CDBF9F838E83798768875B874A872C8747
:101590008E819F819B838A831C82EA81FB81928D4D
:1015A000EA81FB81838D981718F08C85823061F574
:1015B000EA81FB81868D89838A819B812885398593
:1015C000B9014C850E94B10E89818F3FA9F4EA814F
:1015D000FB8181898823A9F08A819B8141960E94A1
:1015E000A71E882371F08A859B85009751F0EA85B4
:1015F000FB8581E0808305C089818F5FEA81FB8163
:10160000868F81E08D8301C01D828D812C960FB65F
:10161000F894DEBF0FBECDBFCF91DF910895DF9369
:10162000CF93CDB7DEB72A970FB6F894DEBF0FBEC3
:10163000CDBF98878F837A8769878F8198859C83B0
:101640008B831D82EB81FC81828D8A83EB81FC81FF
:10165000938D8A81891748F5EB81FC81868D89837A
:101660008A818F5FEB81FC81828F89818F3FA9F412
:10167000EB81FC8181898823A9F08B819C81419633
:101680000E94A71E882371F089859A85009751F0E2
:10169000E985FA8581E0808305C089818F5FEB81D0
:1016A000FC81868F81E08E8301C01E828E812A9606
:1016B0000FB6F894DEBF0FBECDBFCF91DF91089576
:1016C000DF93CF93CDB7DEB72E970FB6F894DEBF7A
:1016D0000FBECDBF998788877B876A875D874C87D8
:1016E0001C82888599859B838A830FB6F8940F9214
:1016F000EA81FB81828D898389818823F9F08A813F
:101700009B812A853B85B9010E94690F898181509F
:10171000EA81FB81828FEA81FB818085882349F001
:101720008A819B8108960E94A71E882311F00E943F
:10173000FF060F900FBE81E08E8763C08C859D856C
:10174000009721F40F900FBE1E865BC08C8188230A
:1017500031F4CE0105960E948D1F81E08C830F909D
:101760000FBE0E94071C0FB6F8940F92EA81FB810E
:10177000858D8F3F19F4EA81FB81158EEA81FB810B
:10178000868D8F3F19F4EA81FB81168E0F900FBE74
:10179000CE0105969E01245F3F4FB9010E94A61F0E
:1017A000882309F58A819B810E9403108823A1F078
:1017B0008A819B8141962C853D85B9010E94551EE9
:1017C0008A819B810E94B00F0E94131C882309F01C
:1017D0008CCF0E94FF0689CF8A819B810E94B00F27
:1017E0000E94131C82CF8A819B810E94B00F0E94AD
:1017F000131C8A819B810E940310882309F475CFF2
:101800001E868E852E960FB6F894DEBF0FBECDBF16
:10181000CF91DF910895DF93CF93CDB7DEB72E97A9
:101820000FB6F894DEBF0FBECDBF9B878A877D873A
:101830006C871E828A859B859D838C831B820FB655
:10184000F8940F92EC81FD81828D8A838A818823AE
:1018500021F18A818150EC81FD81828FEC81FD81B3
:1018600080819181009731F40E94B622EC81FD8144
:1018700095838483EC81FD818085882349F08C8168
:101880009D8108960E94A71E882311F00E94FF06E2
:101890000F900FBE81E08E8789C08C859D85009753
:1018A00021F40F900FBE1E8681C08E81882331F4F3
:1018B000CE0107960E948D1F81E08E830F900FBE90
:1018C0000E94071C0FB6F8940F92EC81FD81858D64
:1018D0008F3F19F4EC81FD81158EEC81FD81868DA1
:1018E0008F3F19F4EC81FD81168E0F900FBECE0153
:1018F00007969E01245F3F4FB9010E94A61F8823CF
:1019000099F58C819D810E940310882331F1EC812F
:10191000FD8180819181009761F40FB6F8940F9258
:10192000EC81FD81848195810E94EA208B830F9058
:101930000FBE8C819D8141962C853D85B9010E9409
:10194000551E8C819D810E94B00F0E94131C88231C
:1019500009F075CF0E94FF0672CF8C819D810E9495
:10196000B00F0E94131C6BCF8C819D810E94B00F21
:101970000E94131C8C819D810E940310882309F40E
:101980005ECF8B81882389F00FB6F8940F928C81FB
:101990009D810E94900E8983EC81FD8184819581D7
:1019A00069810E94FA210F900FBE1E868E852E96A9
:1019B0000FB6F894DEBF0FBECDBFCF91DF91089573
:1019C000DF93CF93CDB7DEB760970FB6F894DEBF45
:1019D0000FBECDBF9B878A877D876C875F874E87C9
:1019E0001E828A859B859B838A830FB6F8940F920B
:1019F000EA81FB81828D89838981882331F1EA81A3
:101A0000FB81868197819D838C838A819B812C8534
:101A10003D85B9010E94690FEA81FB818C819D811E
:101A200097838683EA81FB818189882349F08A81B3
:101A30009B8141960E94A71E882311F00E94FF06F9
:101A40000F900FBE81E0888B63C08E859F850097C5
:101A500021F40F900FBE188A5BC08E81882331F469
:101A6000CE0107960E948D1F81E08E830F900FBEDE
:101A70000E94071C0FB6F8940F92EA81FB81858DB6
:101A80008F3F19F4EA81FB81158EEA81FB81868DF7
:101A90008F3F19F4EA81FB81168E0F900FBECE01A5
:101AA00007969E01225F3F4FB9010E94A61F88231F
:101AB00009F58A819B810E9403108823A1F08A8105
:101AC0009B8141962E853F85B9010E94551E8A81D2
:101AD0009B810E94B00F0E94131C882309F085CFC0
:101AE0000E94FF0682CF8A819B810E94B00F0E94D4
:101AF000131C7BCF8A819B810E94B00F0E94131C14
:101B00008A819B810E940310882309F46ECF188A72
:101B1000888960960FB6F894DEBF0FBECDBFCF9117
:101B2000DF910895DF93CF93CDB7DEB72C970FB633
:101B3000F894DEBF0FBECDBF98878F837A87698701
:101B40005C874B878F8198859C838B831D82EB817B
:101B5000FC81828D8A838A81882381F1EB81FC81DB
:101B6000858D89838B819C8129853A85B9010E9465
:101B7000690F8A818150EB81FC81828F89818F3F3F
:101B8000A9F4EB81FC8180858823A9F08B819C815D
:101B900008960E94A71E882371F08B859C8500976C
:101BA00051F0EB85FC8581E0808305C089818F5FE2
:101BB000EB81FC81858F81E08E8301C01E828E8146
:101BC0002C960FB6F894DEBF0FBECDBFCF91DF913C
:101BD0000895DF93CF93CDB7DEB72A970FB6F89469
:101BE000DEBF0FBECDBF98878F837A8769878F81CD
:101BF00098859A8389831D82E981FA81828D882361
:101C0000B1F0E981FA81868197819C838B838981F8
:101C10009A8129853A85B9010E94690FE981FA8183
:101C20008B819C819783868381E08E8301C01E8295
:101C30008E812A960FB6F894DEBF0FBECDBFCF912E
:101C4000DF910895DF93CF9300D00F92CDB7DEB729
:101C50009B838A830FB6F8940F92EA81FB81828D71
:101C600089830F900FBE89810F900F900F90CF91B5
:101C7000DF910895DF93CF9300D000D00F92CDB7BE
:101C8000DEB79D838C838C819D819A8389830FB677
:101C9000F8940F92E981FA81938DE981FA81828D1E
:101CA000292F281B822F8B830F900FBE8B810F90C3
:101CB0000F900F900F900F90CF91DF910895DF93C9
:101CC000CF9300D000D00F92CDB7DEB79D838C8329
:101CD0008C819D819A838983E981FA81828D8B83AE
:101CE0008B810F900F900F900F900F90CF91DF91FD
:101CF0000895DF93CF9300D000D0CDB7DEB79C839B
:101D00008B838B819C819A83898389819A810E94AC
:101D1000E4030F900F900F900F90CF91DF910895F3
:101D2000DF93CF9300D00F92CDB7DEB79B838A832A
:101D3000EA81FB818189882361F0EA81FB81068841
:101D4000F789E02D80819181982F84E0891B898318
:101D500001C0198289810F900F900F90CF91DF9170
:101D60000895DF93CF93CDB7DEB727970FB6F894DA
:101D7000DEBF0FBECDBF9C838B837E836D834F837D
:101D80001A82EB81FC81828D8983EB81FC81848DB9
:101D9000882399F4EB81FC8180819181009709F07F
:101DA00089C0EB81FC81848195810E9488218A838E
:101DB000EB81FC81158214827DC08F81882399F587
:101DC000EB81FC8162817381EB81FC81848D482FE2
:101DD00050E02D813E81CB01B9010E94FD2AEB81AB
:101DE000FC8122813381EB81FC81848D882F90E0FE
:101DF000820F931FEB81FC8193838283EB81FC81B3
:101E000022813381EB81FC818481958128173907F8
:101E100008F450C0EB81FC8180819181EB81FC81D1
:101E20009383828347C0EB81FC8166817781EB815C
:101E3000FC81848D482F50E02D813E81CB01B9017A
:101E40000E94FD2AEB81FC8126813781EB81FC8198
:101E5000848D882F90E0909581959F4F820F931FDE
:101E6000EB81FC8197838683EB81FC81268137811E
:101E7000EB81FC81808191812817390790F4EB81F7
:101E8000FC8124813581EB81FC81848D882F90E059
:101E9000909581959F4F820F931FEB81FC819783D3
:101EA00086838F81823031F48981882319F089817A
:101EB0008150898389818F5FEB81FC81828F8A8148
:101EC00027960FB6F894DEBF0FBECDBFCF91DF913E
:101ED0000895DF93CF9300D000D0CDB7DEB79A83BB
:101EE00089837C836B83E981FA81848D882389F1DE
:101EF000E981FA8126813781E981FA81848D882FF1
:101F000090E0820F931FE981FA8197838683E981AC
:101F1000FA8126813781E981FA81848195812817A8
:101F2000390740F0E981FA8180819181E981FA8164
:101F300097838683E981FA8146815781E981FA8115
:101F4000848D282F30E08B819C81BA01A9010E94E9
:101F5000FD2A0F900F900F900F90CF91DF91089571
:101F6000DF93CF9300D000D0CDB7DEB79C838B83B7
:101F70000FB6F8940F92EB81FC81868D8A8311C095
:101F8000EB81FC818189882379F08B819C8141964A
:101F90000E94A71E882311F00E9413208A8181507D
:101FA0008A838A81181664F3EB81FC818FEF868F18
:101FB0000F900FBE0FB6F8940F92EB81FC81858DC8
:101FC000898311C0EB81FC818085882379F08B8126
:101FD0009C8108960E94A71E882311F00E9413205E
:101FE0008981815089838981181664F3EB81FC8192
:101FF0008FEF858F0F900FBE0F900F900F900F9067
:10200000CF91DF910895DF93CF9300D00F92CDB79A
:10201000DEB79B838A830FB6F8940F92EA81FB8127
:10202000828D882319F481E0898301C019820F9081
:102030000FBE89810F900F900F90CF91DF9108957F
:10204000DF93CF9300D000D00F92CDB7DEB79D8342
:102050008C838C819D819A838983E981FA81828D29
:10206000882319F481E08B8301C01B828B810F9040
:102070000F900F900F900F90CF91DF910895DF9305
:10208000CF9300D00F92CDB7DEB79B838A830FB674
:10209000F8940F92EA81FB81928DEA81FB81838D16
:1020A000981719F481E0898301C019820F900FBE3F
:1020B00089810F900F900F90CF91DF910895DF935A
:1020C000CF9300D000D00F92CDB7DEB79D838C8325
:1020D0008C819D819A838983E981FA81928DE9813E
:1020E000FA81838D981719F481E08B8301C01B82DC
:1020F0008B810F900F900F900F900F90CF91DF91E9
:1021000008950F93DF93CF93CDB7DEB728970FB61F
:10211000F894DEBF0FBECDBF9D838C837F836E831B
:1021200048878885813019F481E0898301C019824C
:102130008E819F81009721F481E090E09F838E83C0
:102140008C819D8101969D838C838C819D810F96CE
:102150000E948E039B838A838A819B81009789F0EA
:102160006A817B818A819B819C01215F3F4F4C81E9
:102170005D81EE81FF81CB01B9019F0109810E9440
:10218000D9178A819B8128960FB6F894DEBF0FBEBF
:10219000CDBFCF91DF910F910895DF93CF9300D002
:1021A00000D0CDB7DEB79C838B838B819C819A83D3
:1021B0008983E981FA818685882F90E0827090700A
:1021C000009729F489819A810E94E40308C08981DB
:1021D0009A8160E070E04FE050E00E94062B0F9083
:1021E0000F900F900F90CF91DF9108950F93DF9391
:1021F000CF9300D000D00F92CDB7DEB79D838C83F4
:102200008C819D819B838A8319820FB6F8940F92EB
:10221000EA81FB81808591850097F1F4EA81FB8159
:10222000828593850097C1F4EA81FB8124853585F9
:10223000EA81FB8144815581EA81FB81A681B781D6
:10224000EA81FB81E6858A819B81B9019D010E2F80
:102250000E94D91781E089830F900FBE89810F906A
:102260000F900F900F900F90CF91DF910F910895E5
:10227000DF93CF93CDB7DEB727970FB6F894DEBFC5
:102280000FBECDBF9D838C837F836E838C819D81A8
:102290009B838A838E819F81009721F481E090E067
:1022A0009F838E83EA81FB81248135818E819F818A
:1022B0002817390748F0EA81FB818E819F81978337
:1022C000868381E0898301C01982898127960FB6B0
:1022D000F894DEBF0FBECDBFCF91DF910895DF939D
:1022E000CF9300D000D000D0CDB7DEB79E838D83D2
:1022F0008D819E819C838B83EB81FC812481358140
:10230000EB81FC8180819181820F931F9A83898365
:10231000EB81FC812281338189819A81821B930B1D
:102320009A83898389819A8101979A838983EB8132
:10233000FC812481358189819A818217930750F02D
:10234000EB81FC812481358189819A81821B930BE9
:102350009A83898389819A8126960FB6F894DEBF85
:102360000FBECDBFCF91DF910895DF93CF9300D003
:1023700000D000D0CDB7DEB79E838D838D819E8146
:102380009C838B838B819C810E949F179A83898376
:1023900089819A8126960FB6F894DEBF0FBECDBF15
:1023A000CF91DF910895EF92FF920F931F93DF93E8
:1023B000CF93CDB7DEB763970FB6F894DEBF0FBEED
:1023C000CDBF9D878C877F876E87598B488B3B8BD2
:1023D0002A8B8C859D8598878F831C821B82888998
:1023E00099899A838983EF81F8858685882F90E083
:1023F00081709070882329F089819A8102969A834E
:1024000089838A899B89009709F440C0CE01099687
:102410000E946F1F0FB6F8940F928F8198850E94CB
:102420006F119C838B832B813C8189819A81281732
:10243000390750F580E090E00E943C260E94D820A9
:10244000EF81F885938782870F900FBEEA89FB8919
:1024500060E070E080E090E020E030E040E050E0BC
:1024600000E010E07F010E944523EF81F88513868C
:102470001286CE0109969E012E5E3F4FB9010E9441
:10248000A61F882339F202C00F900FBE8B819C815A
:10249000009731F48F8198850E946F119C838B8304
:1024A0008F8198852E853F8548895989EB81FC81EC
:1024B000A981BA81B9019F018D010E9418139E83E1
:1024C0008D838D819E81009739F18F8198850E943F
:1024D0009F179C01EF81F88586819781281739071E
:1024E000D8F00E94071CEF81F885808591850097C0
:1024F00089F0EF81F8858085918540E050E060E0CB
:1025000070E020E000E010E00E94E123EF81F88518
:10251000118610860E94131C8D819E8163960FB6D2
:10252000F894DEBF0FBECDBFCF91DF911F910F9109
:10253000FF90EF900895EF92FF920F931F93DF9318
:10254000CF93CDB7DEB761970FB6F894DEBF0FBE5D
:10255000CDBF9B878A877D876C875F874E87398B46
:10256000288B8A859B85998788878E859F859B8305
:102570008A83E885F9858685882F90E08170907040
:10258000882329F08A819B8102969B838A83888590
:1025900099850E946F119D838C83888599852C85F0
:1025A0003D854E855F85EC81FD81AA81BB81B901A6
:1025B0009F018D010E9418139F838E838E819F81BE
:1025C000009739F1888599850E949F179C01E885BD
:1025D000F9858681978128173907D8F01982E8850F
:1025E000F985808591850097A1F0E885F98580853A
:1025F0009185E889F98940E050E060E070E020E0F2
:1026000000E010E07F010E94BE24E885F985118674
:1026100010868E819F8161960FB6F894DEBF0FBE43
:10262000CDBFCF91DF911F910F91FF90EF90089553
:102630000F931F93DF93CF93CDB7DEB761970FB69C
:10264000F894DEBF0FBECDBF9D838C837F836E83E6
:10265000598748873B872A871D870C878A859B85F2
:10266000009711F41B8238C0EC81FD818685882F8C
:1026700090E0817090700097D1F481E08B83288581
:102680003985398B288B8A859B859F878E872E85F8
:102690003F85888999898217930720F42889398989
:1026A0003F872E878E859F859987888715C02A85C5
:1026B0003B858C859D852817390768F081E08B83E1
:1026C0009E01285F3F4F8C819D81B90142E050E01F
:1026D0000E94651601C01B828B81882361F02E81C8
:1026E0003F81488559858C819D81B9010E9465167D
:1026F0009A83898302C01A82198289819A8161969C
:102700000FB6F894DEBF0FBECDBFCF91DF911F9102
:102710000F910895EF92FF920F931F93DF93CF9342
:10272000CDB7DEB760970FB6F894DEBF0FBECDBF52
:102730009A8789877C876B875E874D87388B2F8741
:1027400089859A8598878F831E821D82EF81F885FF
:102750008685882F90E081709070882329F082E030
:1027600090E09A83898302C01A8219828F859889A2
:10277000009709F43DC00FB6F8940F928F819885A9
:102780000E949F179C838B832B813C8189819A8136
:102790008217930750F080E090E00E943C260E9450
:1027A000D820EF81F885918780870F900FBE2B810D
:1027B0003C8189819A818217930700F1EF85F8891E
:1027C00060E070E080E090E020E030E040E050E049
:1027D00000E010E07F010E944523EF81F88511861B
:1027E00010868F8198850E949F179C838B8306C0DB
:1027F0008F8198850E949F179C838B832B813C81BE
:1028000089819A818217930780F58F8198852B851E
:102810003C854D855E85EB81FC81A981BA81B9013A
:102820009F018D010E940E159E838D838D819E8157
:102830000097D9F00E94071CEF81F8858285938567
:10284000009789F0EF81F8858285938540E050E01C
:1028500060E070E020E000E010E00E94E123EF8102
:10286000F885138612860E94131C8D819E816096C6
:102870000FB6F894DEBF0FBECDBFCF91DF911F9191
:102880000F91FF90EF900895DF93CF93CDB7DEB710
:102890002C970FB6F894DEBF0FBECDBF9C878B87F9
:1028A0008B859C8598878F83EF81F8858685882F17
:1028B00090E081709070882361F18F8198850E94EB
:1028C0009F179C838B838B819C8183309105F0F0D3
:1028D000EF81F885808191819A8389839E01275FAA
:1028E0003F4F8F819885EB81FC81B90142E050E038
:1028F0009F010E94F21689859A859E838D83EF81C0
:10290000F88589819A819183808305C01E821D820A
:1029100002C01E821D828D819E812C960FB6F89476
:10292000DEBF0FBECDBFCF91DF910895EF92FF9232
:102930000F931F93DF93CF93CDB7DEB761970FB699
:10294000F894DEBF0FBECDBF9B878A877D876C87DB
:102950005F874E87398B288B8A859B8599878887E7
:102960001F821E82E885F9858685882F90E0817018
:102970009070882329F082E090E09B838A8302C0D4
:102980001B821A82888599850E949F179D838C835C
:102990002C813D818A819B818217930780F58885F0
:1029A00099852C853D854E855F85EC81FD81AA81C9
:1029B000BB81B9019F018D010E940E159F838E83FB
:1029C0008E819F810097D9F01982E885F9858285EB
:1029D00093850097A1F0E885F98582859385E8893C
:1029E000F98940E050E060E070E020E000E010E0B5
:1029F0007F010E94BE24E885F985138612868E81A8
:102A00009F8161960FB6F894DEBF0FBECDBFCF9108
:102A1000DF911F910F91FF90EF9008950F931F93F7
:102A2000DF93CF93CDB7DEB762970FB6F894DEBFD2
:102A30000FBECDBF9A8789877C876B875E874D875E
:102A4000388B2F871A8B098B89899A89009791F186
:102A5000E985FA85808191819E838D83AE01495FEE
:102A60005F4F89859A8529893A89EF85F889BA0166
:102A7000A9019F010E94F2168F8198859A8389830C
:102A80002F85388989899A89A901481B590BCA0160
:102A9000988B8F8729813A818D859E858217930730
:102AA00068F4E985FA858D819E81918380831A82FD
:102AB000198204C08D859E859A8389834B855C85A8
:102AC00089859A8529813A81EF85F889BA01A9011A
:102AD0009F010E94F2169C838B838B819C8162965E
:102AE0000FB6F894DEBF0FBECDBFCF91DF911F911F
:102AF0000F910895DF93CF93CDB7DEB727970FB629
:102B0000F894DEBF0FBECDBF9F838E838E819F81E1
:102B10009D838C83EC81FD81808191819A8389835F
:102B2000EC81FD812281338189819A8128173907BF
:102B300019F481E08B8301C01B828B8127960FB62D
:102B4000F894DEBF0FBECDBFCF91DF910895DF9324
:102B5000CF93CDB7DEB727970FB6F894DEBF0FBE81
:102B6000CDBF9F838E838E819F819A838983E981E4
:102B7000FA818685882F90E081709070882329F0F3
:102B800082E090E09C838B8302C01C821B828E813A
:102B90009F810E946F119C018B819C8182179307FA
:102BA00018F081E08D8301C01D828D8127960FB6BC
:102BB000F894DEBF0FBECDBFCF91DF910895EF92A5
:102BC000FF920F931F93DF93CF93CDB7DEB7289774
:102BD0000FB6F894DEBF0FBECDBF9E838D8378877E
:102BE0006F838D819E819C838B831982EB81FC8115
:102BF000808591850097B9F0EB81FC818085918576
:102C0000EF81F88540E050E060E070E020E000E017
:102C100010E07F010E94BE24EB81FC8111861086AA
:102C200081E08A8301C01A828A8128960FB6F894BF
:102C3000DEBF0FBECDBFCF91DF911F910F91FF90EF
:102C4000EF900895EF92FF920F931F93DF93CF932E
:102C5000CDB7DEB728970FB6F894DEBF0FBECDBF55
:102C60009E838D8378876F838D819E819C838B83E8
:102C70001982EB81FC81828593850097B9F0EB8105
:102C8000FC8182859385EF81F88540E050E060E02B
:102C900070E020E000E010E07F010E94BE24EB81A4
:102CA000FC811386128681E08A8301C01A828A81A0
:102CB00028960FB6F894DEBF0FBECDBFCF91DF913F
:102CC0001F910F91FF90EF900895DF93CF93CDB7B1
:102CD000DEB72E970FB6F894DEBF0FBECDBF9E8332
:102CE0008D8378876F835A874987ED81FE81828142
:102CF00093819C838B83ED81FE81248135818B813F
:102D00009C81A901481B590BCA0129853A853E8738
:102D10002D879C878B874B855C858D859E85841749
:102D2000950720F42D853E853C872B874B855C8558
:102D30005A834983ED81FE81248535858B819C8171
:102D4000820F931F2F81388549815A81B9010E94D2
:102D5000FD2A29853A8589819A8182179307B0F4E3
:102D6000ED81FE81648575852F81388589819A8101
:102D7000A901480F591F29853A8589819A81281B05
:102D8000390BCB01BA01A9010E94FD2A2B813C819C
:102D900089859A85820F931F9C838B83ED81FE81A9
:102DA000248135818B819C818217930750F0ED81BE
:102DB000FE81248135818B819C81821B930B9C83B6
:102DC0008B83ED81FE818B819C81938382838985B6
:102DD0009A852E960FB6F894DEBF0FBECDBFCF9169
:102DE000DF910895DF93CF93CDB7DEB766970FB627
:102DF000F894DEBF0FBECDBF98878F837A8769872F
:102E00005C874B873E872D872D853E853A8B298BA6
:102E10004B855C85588B4F878F85988929893A899E
:102E20002817390720F449895A89588B4F878F858D
:102E300098899E838D838D819E81009709F474C04B
:102E4000EF81F885808191819A838983EF81F8856C
:102E50002481358189819A81A901481B590BCA01B6
:102E60002D813E813E8B2D8B9C8B8B8B4B895C897E
:102E70008D899E898417950720F42D893E893C8B86
:102E80002B8B4B895C895C834B83EF81F885248590
:102E9000358589819A81A901480F591F89859A85AD
:102EA0002B813C81BA01A9010E94FD2A2D813E811E
:102EB0008B819C8182179307B0F429853A858B8199
:102EC0009C81B901680F791FEF81F885448555858C
:102ED0002D813E818B819C81281B390BCB01BA014E
:102EE000A9010E94FD2A29813A818D819E81820F4C
:102EF000931F9A838983EF81F885248135818981A5
:102F00009A818217930750F0EF81F88524813581EB
:102F100089819A81821B930B9A838983EF81F8853B
:102F200089819A81918380838D819E8166960FB677
:102F3000F894DEBF0FBECDBFCF91DF910895DF9330
:102F4000CF9300D000D0CDB7DEB79C838B83EB81CD
:102F5000FC8124813581EB81FC8182819381820F08
:102F6000931F9A838983EB81FC8120813181898140
:102F70009A81821B930B9A838983EB81FC81248144
:102F8000358189819A818217930750F0EB81FC810A
:102F90002481358189819A81821B930B9A8389834D
:102FA00089819A810F900F900F900F90CF91DF91B0
:102FB00008950F93DF93CF93CDB7DEB729970FB660
:102FC000F894DEBF0FBECDBF9A8389837C836B8369
:102FD0005E834D8338872F83098789819A8160E0DA
:102FE00070E04FE050E00E94062BE981FA818B816E
:102FF0009C8195878487E981FA818D819E81958363
:103000008483E981FA818F81988597838683E9811A
:10301000FA818985868729960FB6F894DEBF0FBEA0
:10302000CDBFCF91DF910F9108958F929F92AF9274
:10303000BF92CF92DF92EF92FF920F931F93DF9395
:10304000CF93CDB7DEB760970FB6F894DEBF0FBE53
:10305000CDBF9F838E83798768875B874A873D874B
:103060002C870E87F88AEF868A859B850E948E03BF
:103070009A83898389819A810097B1F08AE290E0EE
:103080000E948E039D838C838C819D81009739F0F3
:10309000EC81FD8189819A81908F878B07C089811E
:1030A0009A810E94E40302C01D821C828C819D8152
:1030B0000097E9F08A859B859C0140E050E08E8175
:1030C0009F8168857985EC85FD85AF85B889AC8061
:1030D000BD808F01EE846D01882499240E948D1893
:1030E0008C819D810E94501981E08B8302C08FEFFB
:1030F0008B838B8160960FB6F894DEBF0FBECDBF79
:10310000CF91DF911F910F91FF90EF90DF90CF90C3
:10311000BF90AF909F908F9008958F929F92AF92A3
:10312000BF92CF92DF92EF920F931F93DF93CF93D3
:10313000CDB7DEB764970FB6F894DEBF0FBECDBF34
:103140009D838C837F836E83288739874A875B873B
:103150001D870C87EE86D88ACF86BA8AA98A9C8A70
:103160008B8AE989FA892789308D88859985019725
:10317000820F931F9B838A838E819F81009751F1D9
:10318000198221C08981482F50E08981282F30E0A1
:103190008E819F81FC01E20FF31F208189899A892A
:1031A000840F951FFC01799620838981282F30E0B8
:1031B0008E819F81FC01E20FF31F8081882331F013
:1031C00089818F5F898389818A30E0F2E989FA8970
:1031D00012A203C0E989FA89118E8E85843010F01D
:1031E00083E08E87E989FA898E85868BE989FA8959
:1031F0008E8583A3E989FA8914A289899A8902961E
:103200000E94340489899A890C960E943404E989C1
:10321000FA8989899A89918780878E85282F30E05D
:1032200084E090E0821B930BE989FA899587848773
:10323000E989FA8989899A89938B828BE989FA8944
:1032400015A216A217A210A6E989FA8911A68A81E9
:103250009B812C813D814C855D85B9010E94400593
:10326000E989FA89918380838F859889009731F065
:10327000EF85F88989899A899183808364960FB64E
:10328000F894DEBF0FBECDBFCF91DF911F910F919C
:10329000EF90DF90CF90BF90AF909F908F90089568
:1032A000DF93CF9300D0CDB7DEB79A8389830FB673
:1032B000F8940F92809149068F5F80934906809120
:1032C000460690914706009769F489819A81909308
:1032D000470680934606809149068130B9F40E94E2
:1032E000272014C080914D06882381F4E091460682
:1032F000F09147069689E981FA818689891730F02D
:1033000089819A8190934706809346068091510661
:103310008F5F80935106E981FA81968980914C06EE
:10332000891728F4E981FA81868980934C06E9811E
:10333000FA818689282F30E0C901880F991F880FEC
:10334000991F880F991F820F931FAC01495A594F3B
:1033500089819A819C012E5F3F4FCA01B9010E9469
:1033600044040F900FBE80914D06882361F0E091D8
:103370004606F09147069689E981FA818689981771
:1033800010F40E94FF060F900F90CF91DF910895E7
:10339000DF93CF9300D000D000D0CDB7DEB79C83B1
:1033A0008B830FB6F8940F928B819C81009739F430
:1033B00080914606909147069E838D8304C08B8141
:1033C0009C819E838D838D819E819A83898389814F
:1033D0009A8102960E94F404E981FA818489958990
:1033E000009729F089819A810C960E94F4048091BB
:1033F00051068F5F80935106209146063091470613
:1034000089819A818217930781F489819A819C012D
:103410002E5F3F4F8AE996E0B9010E9444048091F3
:1034200048068F5F809348060BC080914906815003
:103430008093490689819A810E9497200E94AD203D
:103440000F900FBE80914D06882359F020914606BB
:103450003091470689819A818217930711F40E945F
:10346000FF0626960FB6F894DEBF0FBECDBFCF91F4
:10347000DF910895DF93CF9300D00F92CDB7DEB7E1
:103480009B838A8319828A819B81009751F00E94D5
:10349000071C8A819B8160E00E9476260E94131C93
:1034A00089838981882311F40E94FF060F900F9071
:1034B0000F90CF91DF910895DF93CF9300D000D08C
:1034C00000D0CDB7DEB79C838B830FB6F8940F92F4
:1034D0008B819C81009739F4809146069091470634
:1034E0009E838D8304C08B819C819E838D838D817F
:1034F0009E819A83898389819A8102960E94F4042D
:10350000E981FA8184899589009729F089819A81D6
:103510000C960E94F40489819A819C012E5F3F4F92
:1035200083EA96E0B9010E944404E981FA8181A509
:10353000813019F4E981FA8111A60F900FBE8091B4
:103540004D06882339F00FB6F8940F920E94AD20F3
:103550000F900FBE209146063091470689819A81CF
:1035600082179307A1F480914D06882319F00E94D9
:10357000FF060DC09091A30680914906981729F483
:10358000109247061092460602C00E94E81D269639
:103590000FB6F894DEBF0FBECDBFCF91DF91089577
:1035A000DF93CF9300D000D00F92CDB7DEB79D83CD
:1035B0008C831B828C819D819A838983E981FA8126
:1035C0008285938526E0833A920781F4E981FA8126
:1035D0008489958926E08139920741F0E981FA8151
:1035E00084899589009711F481E08B838B810F90FA
:1035F0000F900F900F900F90CF91DF910895DF9370
:10360000CF9300D000D0CDB7DEB79C838B838B8166
:103610009C819A838983209146063091470689814F
:103620009A818217930709F447C089819A8100978C
:1036300009F442C00FB6F8940F9289819A810E94D2
:10364000D01A8823B9F189819A8102960E94F404E4
:10365000E981FA81968980914C06891728F4E981DD
:10366000FA81868980934C06E981FA818689282F20
:1036700030E0C901880F991F880F991F880F991F83
:10368000820F931FAC01495A594F89819A819C013D
:103690002E5F3F4FCA01B9010E944404E981FA81BB
:1036A0009689E0914606F09147068689981710F0B2
:1036B0000E94FF060F900FBE0F900F900F900F907B
:1036C000CF91DF910895DF93CF9300D000D000D049
:1036D000CDB7DEB79E838D831C828D819E819B83B7
:1036E0008A8319828A819B810E94D01A882309F4D7
:1036F00046C0809156068823C1F5EA81FB819689F0
:10370000E0914606F09147068689981710F081E00F
:103710008C838A819B8102960E94F404EA81FB815A
:10372000968980914C06891728F4EA81FB81868965
:1037300080934C06EA81FB818689282F30E0C901FD
:10374000880F991F880F991F880F991F820F931F49
:10375000AC01495A594F8A819B819C012E5F3F4F92
:10376000CA01B9010E9444040AC08A819B819C015C
:10377000245F3F4F81E996E0B9010E9444048C81A7
:1037800026960FB6F894DEBF0FBECDBFCF91DF9166
:103790000895EF92FF920F93DF93CF930F92CDB7DF
:1037A000DEB78DE190E220E630E0E4E5F6E0B90135
:1037B00045E550E020E030E000E07F010E94151870
:1037C00089838981813081F4F8948FEF9FEF909302
:1037D00053068093520681E080934D0610924B066B
:1037E00010924A060E94C3060F90CF91DF910F916D
:1037F000FF90EF900895DF93CF93CDB7DEB7F894A5
:1038000010924D060E94F806CF91DF910895DF9344
:10381000CF93CDB7DEB7809156068F5F8093560663
:10382000CF91DF910895DF93CF9300D000D0CDB733
:10383000DEB71C821B821A820FB6F8940F92809119
:10384000560681508093560680915606882309F0CB
:1038500073C080914906882309F46EC045C0E09189
:103860009606F0919706868197819C838B838B8146
:103870009C810C960E94F4048B819C8102960E948C
:10388000F404EB81FC81968980914C06891728F419
:10389000EB81FC81868980934C06EB81FC818689D3
:1038A000282F30E0C901880F991F880F991F880FB2
:1038B000991F820F931FAC01495A594F8B819C81EC
:1038C0009C012E5F3F4FCA01B9010E944404EB8165
:1038D000FC819689E0914606F09147068689981703
:1038E00018F081E080934F0680919106882309F0BB
:1038F000B6CF8B819C81009711F00E94AD20809102
:103900004E0689838981882379F00E94031D8823CC
:1039100019F081E080934F068981815089838981E4
:10392000882399F710924E0680914F06882321F044
:1039300081E08A830E94FF060F900FBE8A810F905C
:103940000F900F900F90CF91DF910895DF93CF9359
:1039500000D0CDB7DEB70FB6F8940F9280914A062B
:1039600090914B069A8389830F900FBE89819A812B
:103970000F900F90CF91DF910895DF93CF9300D0F8
:103980000F92CDB7DEB7198280914A0690914B060F
:103990009B838A838A819B810F900F900F90CF9198
:1039A000DF910895DF93CF93CDB7DEB780914906BD
:1039B000CF91DF910895DF93CF9300D000D000D056
:1039C000CDB7DEB79C838B838B819C81009739F4C4
:1039D00080914606909147069E838D8304C08B811B
:1039E0009C819E838D838D819E819A838983898129
:1039F0009A81499626960FB6F894DEBF0FBECDBFCA
:103A0000CF91DF910895DF93CF93CDB7DEB729979C
:103A10000FB6F894DEBF0FBECDBF1D828091560653
:103A2000882309F0C0C080914A0690914B06019608
:103A30009C838B838B819C8190934B0680934A0659
:103A40008B819C810097D9F480918D0690918E0690
:103A50009A83898380918F069091900690938E0629
:103A600080938D0689819A819093900680938F062A
:103A7000809150068F5F809350060E94AD20209168
:103A80005206309153068B819C818217930708F46C
:103A900071C0E0918D06F0918E068081882339F403
:103AA0008FEF9FEF909353068093520663C0E0918F
:103AB0008D06F0918E060580F681E02D8681978136
:103AC00099878887E885F985828193819F838E8392
:103AD0002B813C818E819F812817390738F48E8194
:103AE0009F81909353068093520644C088859985A0
:103AF00002960E94F404E885F985848995890097E7
:103B000029F0888599850C960E94F404E885F9854A
:103B1000968980914C06891728F4E885F98586896D
:103B200080934C06E885F9858689282F30E0C90105
:103B3000880F991F880F991F880F991F820F931F55
:103B4000AC01495A594F888599859C012E5F3F4F9A
:103B5000CA01B9010E944404E885F9859689E0917B
:103B60004606F09147068689981708F492CF81E0BF
:103B70008D838FCFE0914606F09147068689282FE6
:103B800030E0C901880F991F880F991F880F991F6E
:103B9000820F931FFC01E95AF94F8081823040F077
:103BA00081E08D8305C080914E068F5F80934E0625
:103BB00080914F06882311F081E08D838D812996B5
:103BC0000FB6F894DEBF0FBECDBFCF91DF91089541
:103BD000DF93CF9300D00F92CDB7DEB7809156061A
:103BE000882321F081E080934F0659C010924F0640
:103BF00080914C068B8303C08B8181508B838B819A
:103C0000282F30E0C901880F991F880F991F880F4E
:103C1000991F820F931FFC01E95AF94F8081882375
:103C200059F38B81282F30E0C901880F991F880F25
:103C3000991F880F991F820F931F895A994F9A8352
:103C40008983E981FA810180F281E02D828193816B
:103C5000E981FA8192838183E981FA81218132812C
:103C600089819A8103962817390759F4E981FA81E5
:103C70000180F281E02D82819381E981FA81928332
:103C80008183E981FA810180F281E02D868197812B
:103C900090934706809346068B8180934C060F9045
:103CA0000F900F90CF91DF910895DF93CF9300D0C5
:103CB00000D0CDB7DEB79A8389837C836B838091F4
:103CC0004606909147069C01245F3F4F89819A8167
:103CD000B9010E9488048B819C8161E00E94762654
:103CE0000F900F900F900F90CF91DF910895DF9379
:103CF000CF9300D000D000D0CDB7DEB79A838983B0
:103D00007C836B835E834D83E0914606F09147068A
:103D10008B819C81906895878487809146069091DD
:103D200047069C01245F3F4F89819A81B9010E9417
:103D300044048D819E8161E00E94762626960FB60E
:103D4000F894DEBF0FBECDBFCF91DF910895DF9312
:103D5000CF9300D000D00F92CDB7DEB79D838C8378
:103D6000EC81FD810580F681E02D868197819B8322
:103D70008A838A819B810C960E94F4048091560666
:103D8000882361F58A819B8102960E94F404EA816E
:103D9000FB81968980914C06891728F4EA81FB8182
:103DA000868980934C06EA81FB818689282F30E042
:103DB000C901880F991F880F991F880F991F820FBB
:103DC000931FAC01495A594F8A819B819C012E5FF8
:103DD0003F4FCA01B9010E9444040AC08A819B81F5
:103DE0009C01245F3F4F81E996E0B9010E944404A1
:103DF000EA81FB819689E0914606F0914706868923
:103E0000891730F481E0898381E080934F0601C0F7
:103E1000198289810F900F900F900F900F90CF9182
:103E2000DF910895DF93CF9300D000D000D0CDB7BD
:103E3000DEB79C838B837E836D838D819E819068AA
:103E4000EB81FC8191838083EB81FC81868197816A
:103E50009A8389838B819C810E94F40489819A8151
:103E600002960E94F404E981FA81968980914C06B9
:103E7000891728F4E981FA81868980934C06E981C3
:103E8000FA818689282F30E0C901880F991F880F91
:103E9000991F880F991F820F931FAC01495A594FE0
:103EA00089819A819C012E5F3F4FCA01B9010E940E
:103EB0004404E981FA819689E0914606F09147062B
:103EC0008689891718F481E080934F0626960FB6ED
:103ED000F894DEBF0FBECDBFCF91DF910895DF9381
:103EE000CF9300D0CDB7DEB79A8389830FB6F8940D
:103EF0000F9280915006E981FA81808380914A0671
:103F000090914B06E981FA81928381830F900FBED5
:103F10000F900F90CF91DF910895DF93CF9300D052
:103F2000CDB7DEB79A83898380915006E981FA8103
:103F3000808380914A0690914B06E981FA819283B1
:103F400081830F900F90CF91DF910895DF93CF93EE
:103F5000CDB7DEB729970FB6F894DEBF0FBECDBF41
:103F60009F838E83798768870FB6F8940F9280912C
:103F70004A0690914B069C838B83EE81FF812181C1
:103F800032818B819C81821B930B9A838983E88584
:103F9000F985808191812FEF8F3F920711F41D8267
:103FA00036C0EE81FF81908180915006981761F0B4
:103FB000EE81FF81218132818B819C818217930761
:103FC00018F081E08D8323C0E885F9852081318157
:103FD00089819A8182179307A0F4E885F985208169
:103FE000318189819A81A901481B590BCA01E88551
:103FF000F985918380838E819F810E948D1F1D8210
:1040000006C0E885F9851182108281E08D830F90CA
:104010000FBE8D8129960FB6F894DEBF0FBECDBFBF
:10402000CF91DF910895DF93CF93CDB7DEB781E0D5
:1040300080934F06CF91DF910895DF93CF9300D007
:10404000CDB7DEB79A8389830E946820FDCFDF93C6
:10405000CF930F92CDB7DEB7198213C08981282F75
:1040600030E0C901880F991F880F991F880F991F89
:10407000820F931F895A994F0E940A0489818F5F8A
:1040800089838981843050F38BE796E00E940A048B
:1040900084E896E00E940A0481E996E00E940A04FE
:1040A0008AE996E00E940A0483EA96E00E940A04E4
:1040B0008BE796E090938E0680938D0684E896E0D9
:1040C0009093900680938F060F90CF91DF91089583
:1040D000DF93CF9300D0CDB7DEB720C00FB6F894F2
:1040E0000F92E0919F06F091A006868197819A83B6
:1040F000898389819A8102960E94F40480914906FD
:1041000081508093490680914806815080934806EB
:104110000F900FBE89819A810E9497208091480656
:104120008823E1F60F900F90CF91DF910895DF93F0
:10413000CF9300D0CDB7DEB79A838983E981FA8126
:104140008789908D0E94E40389819A810E94E4030B
:104150000F900F90CF91DF910895DF93CF9300D010
:10416000CDB7DEB7E0918D06F0918E068081882371
:1041700039F48FEF9FEF909353068093520613C04C
:10418000E0918D06F0918E060580F681E02D868106
:1041900097819A838983E981FA81828193819093BF
:1041A0005306809352060F900F90CF91DF910895A0
:1041B000DF93CF9300D0CDB7DEB7809146069091C4
:1041C00047069A83898389819A810F900F90CF91B6
:1041D000DF910895DF93CF9300D000D00F92CDB739
:1041E000DEB79D838C838C819D819B838A8319821A
:1041F0008C819D81009709F482C0EA81FB819689B8
:10420000E0914606F09147068689981708F06BC042
:10421000EA81FB818485958599237CF0E0914606AF
:10422000F09147068689282F30E084E090E0821BD9
:10423000930BEA81FB8195878487EA81FB81428524
:104240005385EA81FB818689282F30E0C901880FD8
:10425000991F880F991F880F991F820F931F895AE2
:10426000994F48175907A1F58A819B8102960E94B0
:10427000F404E0914606F09147068689EA81FB81C5
:10428000868BEA81FB81968980914C06891728F4F8
:10429000EA81FB81868980934C06EA81FB818689CD
:1042A000282F30E0C901880F991F880F991F880FA8
:1042B000991F820F931FAC01495A594F8A819B81E4
:1042C0009C012E5F3F4FCA01B9010E94440408C0FF
:1042D000E0914606F09147068689EA81FB81868B4C
:1042E00081E089830CC0EA81FB8193A1E0914606BD
:1042F000F09147068689981710F481E089838981B7
:104300000F900F900F900F900F90CF91DF91089525
:10431000DF93CF9300D000D00F92CDB7DEB79D834F
:104320008C838C819D819B838A8319828C819D8162
:10433000009709F456C0EA81FB8184A18150EA818B
:10434000FB8184A3EA81FB819689EA81FB8183A1B9
:10435000981709F446C0EA81FB8184A1882309F0FB
:1043600040C08A819B8102960E94F404EA81FB810D
:1043700083A1EA81FB81868BEA81FB818689282FD4
:1043800030E084E090E0821B930BEA81FB8195870B
:104390008487EA81FB81968980914C06891728F4ED
:1043A000EA81FB81868980934C06EA81FB818689BC
:1043B000282F30E0C901880F991F880F991F880F97
:1043C000991F820F931FAC01495A594F8A819B81D3
:1043D0009C012E5F3F4FCA01B9010E94440481E055
:1043E000898389810F900F900F900F900F90CF913C
:1043F000DF910895DF93CF93CDB7DEB728970FB63F
:10440000F894DEBF0FBECDBF9F838E8368878E81F9
:104410009F819D838C8381E089838E819F8100971A
:1044200009F474C0EC81FD8193A18885981718F474
:1044300088858A8304C0EC81FD8183A18A83EC8115
:10444000FD8196898A81981709F460C0EC81FD810D
:1044500094A18981981709F059C0EC81FD81868962
:104460008B83EC81FD818A81868BEC81FD81848543
:10447000958599235CF08A81282F30E084E090E0D4
:10448000821B930BEC81FD8195878487EC81FD81F4
:10449000428553858B81282F30E0C901880F991FF1
:1044A000880F991F880F991F820F931F895A994F60
:1044B0004817590759F58C819D8102960E94F40492
:1044C000EC81FD81968980914C06891728F4EC8156
:1044D000FD81868980934C06EC81FD818689282F99
:1044E00030E0C901880F991F880F991F880F991F05
:1044F000820F931FAC01495A594F8C819D819C01B9
:104500002E5F3F4FCA01B9010E94440428960FB69E
:10451000F894DEBF0FBECDBFCF91DF910895DF933A
:10452000CF9300D0CDB7DEB7E0914606F0914706B5
:10453000848595859A838983A0914606B091470624
:10454000E0914606F09147068689282F30E084E006
:1045500090E0821B930B1D969C938E931C978981F0
:104560009A810F900F90CF91DF910895DF93CF93B1
:10457000CDB7DEB78091460690914706009739F097
:10458000E0914606F091470684A18F5F84A3809155
:10459000460690914706CF91DF910895DF93CF9320
:1045A000CDB7DEB727970FB6F894DEBF0FBECDBFED
:1045B0008D837F836E830FB6F8940F92E091460649
:1045C000F091470685A196A1A7A1B0A50097A105E6
:1045D000B10589F4E0914606F091470681E081A794
:1045E0008E819F81009739F08E819F8161E00E94CA
:1045F00076260E94FF060F900FBE0FB6F8940F921A
:10460000E0914606F091470685A196A1A7A1B0A525
:1046100089839A83AB83BC8389819A81AB81BC8176
:104620000097A105B105D9F08D81882349F0E0916B
:104630004606F091470615A216A217A210A60FC0B3
:10464000E0914606F091470689819A81AB81BC8151
:104650000197A109B10985A396A3A7A3B0A7E091EB
:104660004606F091470611A60F900FBE89819A81E8
:10467000AB81BC81BC01CD0127960FB6F894DEBF9B
:104680000FBECDBFCF91DF910895EF92FF920F93B0
:104690001F93DF93CF93CDB7DEB72D970FB6F89466
:1046A000DEBF0FBECDBF6A837B838C839D832E8349
:1046B0003F83488759871B870A87FD86EC860FB69C
:1046C000F8940F92E0914606F091470681A582305A
:1046D00049F1E0914606F091470625A136A147A190
:1046E00050A58A819B81AC81BD8180959095A095D4
:1046F000B09582239323A423B52385A396A3A7A3D0
:10470000B0A7E0914606F091470681E081A78C852D
:104710009D85009739F08C859D8561E00E94762605
:104720000E94FF060F900FBE0FB6F8940F928A8575
:104730009B85009771F0E0914606F091470685A1B0
:1047400096A1A7A1B0A5EA85FB8580839183A2836A
:10475000B383E0914606F091470681A5823011F0BF
:1047600019821AC0E0914606F091470625A136A1AC
:1047700047A150A58E819F81A885B9858095909588
:10478000A095B09582239323A423B52385A396A354
:10479000A7A3B0A781E08983E0914606F091470680
:1047A00011A60F900FBE89812D960FB6F894DEBF2B
:1047B0000FBECDBFCF91DF911F910F91FF90EF9072
:1047C00008950F931F93DF93CF93CDB7DEB72F9745
:1047D0000FB6F894DEBF0FBECDBF9E838D834F838F
:1047E000588769877A872B871D870C8781E08A83A2
:1047F0008D819E819C838B830FB6F8940F928C855C
:104800009D85009761F0EB81FC8185A196A1A7A110
:10481000B0A5EC85FD8580839183A283B383EB8172
:10482000FC8181A58983EB81FC8182E081A78B8556
:10483000282F30E03F872E878E859F858230910517
:1048400059F12E853F852330310534F48E859F85BF
:104850008130910561F04AC02E853F8523303105B6
:1048600059F18E859F858430910589F13FC0EB8198
:10487000FC8125A136A147A150A58F819885A985E6
:10488000BA85822B932BA42BB52BEB81FC8185A3BE
:1048900096A3A7A3B0A72AC0EB81FC8185A196A10E
:1048A000A7A1B0A50196A11DB11DEB81FC8185A337
:1048B00096A3A7A3B0A71AC0EB81FC818F8198852E
:1048C000A985BA8585A396A3A7A3B0A70FC08981A0
:1048D000823059F0EB81FC818F819885A985BA855A
:1048E00085A396A3A7A3B0A701C01A8289818130AE
:1048F000B9F58B819C8102960E94F404EB81FC81C6
:10490000968980914C06891728F4EB81FC81868971
:1049100080934C06EB81FC818689282F30E0C90109
:10492000880F991F880F991F880F991F820F931F57
:10493000AC01495A594F8B819C819C012E5F3F4F9E
:10494000CA01B9010E944404EB81FC819689E0917F
:104950004606F09147068689891710F40E94FF06E3
:104960000F900FBE8A812F960FB6F894DEBF0FBE50
:10497000CDBFCF91DF911F910F910895EF92FF92DC
:104980000F931F93DF93CF93CDB7DEB762970FB628
:10499000F894DEBF0FBECDBF9F838E8348875987B3
:1049A0006A877B872C871E870D87F88AEF8681E0D0
:1049B0008A838E819F819D838C8319828D859E85BC
:1049C000009761F0EC81FD8185A196A1A7A1B0A51A
:1049D000ED85FE8580839183A283B383EC81FD8185
:1049E00081A58B83EC81FD8182E081A78C85282FB6
:1049F00030E03A8B298B89899A898230910559F167
:104A000029893A892330310534F489899A8981309A
:104A1000910561F04AC029893A892330310559F15D
:104A200089899A898430910589F13FC0EC81FD81A3
:104A300025A136A147A150A588859985AA85BB8562
:104A4000822B932BA42BB52BEC81FD8185A396A300
:104A5000A7A3B0A72AC0EC81FD8185A196A1A7A13B
:104A6000B0A50196A11DB11DEC81FD8185A396A382
:104A7000A7A3B0A71AC0EC81FD8188859985AA8576
:104A8000BB8585A396A3A7A3B0A70FC08B81823057
:104A900059F0EC81FD8188859985AA85BB8585A320
:104AA00096A3A7A3B0A701C01A828B81813009F019
:104AB0004FC080915606882361F58C819D810296B6
:104AC0000E94F404EC81FD81968980914C0689173F
:104AD00028F4EC81FD81868980934C06EC81FD8170
:104AE0008689282F30E0C901880F991F880F991FE8
:104AF000880F991F820F931FAC01495A594F8C811F
:104B00009D819C012E5F3F4FCA01B9010E94440460
:104B10000AC08C819D819C01245F3F4F81E996E012
:104B2000B9010E944404EC81FD819689E09146061A
:104B3000F09147068689891758F48F8598890097E0
:104B400021F0EF85F88981E0808381E080934F0632
:104B50008A8162960FB6F894DEBF0FBECDBFCF91AB
:104B6000DF911F910F91FF90EF900895DF93CF9306
:104B7000CDB7DEB728970FB6F894DEBF0FBECDBF16
:104B80009E838D8378876F838D819E819C838B83A9
:104B90001982EB81FC8181A58A83EB81FC8182E013
:104BA00081A7EB81FC8185A196A1A7A1B0A5019663
:104BB000A11DB11DEB81FC8185A396A3A7A3B0A77E
:104BC0008A81813009F04FC080915606882361F5B3
:104BD0008B819C8102960E94F404EB81FC81968972
:104BE00080914C06891728F4EB81FC81868980939B
:104BF0004C06EB81FC818689282F30E0C901880FA3
:104C0000991F880F991F880F991F820F931FAC015E
:104C1000495A594F8B819C819C012E5F3F4FCA019D
:104C2000B9010E9444040AC08B819C819C01245FCD
:104C30003F4F81E996E0B9010E944404EB81FC8179
:104C40009689E0914606F09147068689891758F4BF
:104C50008F819885009721F0EF81F88581E080832E
:104C600081E080934F0628960FB6F894DEBF0FBE02
:104C7000CDBFCF91DF910895DF93CF93CDB7DEB74E
:104C800027970FB6F894DEBF0FBECDBF9D838C83F0
:104C90008C819D81009739F480914606909147065A
:104CA0009F838E8304C08C819D819F838E838E81A0
:104CB0009F819B838A830FB6F8940F92EA81FB81D0
:104CC00081A5823031F4EA81FB8111A681E08983DC
:104CD00001C019820F900FBE898127960FB6F894F4
:104CE000DEBF0FBECDBFCF91DF910895DF93CF938D
:104CF000CDB7DEB727970FB6F894DEBF0FBECDBF96
:104D00009E838D836F8380914A0690914B069A8390
:104D10008983809146069091470602960E94F4048A
:104D20008D819E812FEF8F3F920781F48F818823A1
:104D300069F080914606909147069C012E5F3F4F97
:104D400083EA96E0B9010E94440443C029813A8174
:104D50008D819E81820F931F9C838B83E0914606F9
:104D6000F09147068B819C81938382832B813C81C8
:104D700089819A812817390770F480918F06909164
:104D8000900620914606309147062E5F3F4FB901AD
:104D90000E9488041EC040918D0650918E0680911D
:104DA0004606909147069C012E5F3F4FCA01B9010C
:104DB0000E94880420915206309153068B819C8179
:104DC0008217930730F48B819C81909353068093D4
:104DD000520627960FB6F894DEBF0FBECDBFCF9117
:104DE000DF910895DF93CF93CDB7DEB727970FB646
:104DF000F894DEBF0FBECDBF89836A834B838B815E
:104E0000813009F070C08981282F30E03F832E83E4
:104E10008E819F818330910551F12E813F81243015
:104E2000310534F48E819F818230910561F0D3C0C9
:104E30002E813F812430310571F18E819F81853033
:104E40009105E9F1C8C0ABE3B0E0EBE3F0E08081AD
:104E5000482F8A81282F30E081E090E0022E02C0A6
:104E6000880F991F0A94E2F7842B8C93B4C0A8E3AF
:104E7000B0E0E8E3F0E08081482F8A81282F30E01D
:104E800081E090E0022E02C0880F991F0A94E2F799
:104E9000842B8C93A0C0A5E3B0E0E5E3F0E0808133
:104EA000482F8A81282F30E081E090E0022E02C056
:104EB000880F991F0A94E2F7842B8C938CC0A2E38D
:104EC000B0E0E2E3F0E08081482F8A81282F30E0D3
:104ED00081E090E0022E02C0880F991F0A94E2F749
:104EE000842B8C9378C08B81882309F074C08981CE
:104EF000282F30E03D832C838C819D818330910568
:104F000061F12C813D812430310534F48C819D8107
:104F10008230910569F05FC02C813D8124303105DC
:104F200089F18C819D818530910509F440C053C081
:104F3000ABE3B0E0EBE3F0E08081482F8A81282FDB
:104F400030E081E090E0022E02C0880F991F0A94A1
:104F5000E2F7809584238C933EC0A8E3B0E0E8E3B9
:104F6000F0E08081482F8A81282F30E081E090E0B6
:104F7000022E02C0880F991F0A94E2F780958423BD
:104F80008C9329C0A5E3B0E0E5E3F0E08081482FF1
:104F90008A81282F30E081E090E0022E02C0880F45
:104FA000991F0A94E2F7809584238C9314C0A2E39E
:104FB000B0E0E2E3F0E08081482F8A81282F30E0E2
:104FC00081E090E0022E02C0880F991F0A94E2F758
:104FD000809584238C9327960FB6F894DEBF0FBE7E
:104FE000CDBFCF91DF910895DF93CF93CDB7DEB7DB
:104FF00027970FB6F894DEBF0FBECDBF89836A83B3
:105000004B838B81882309F075C08981282F30E07C
:105010003F832E838E819F818330910561F12E81A4
:105020003F812430310534F48E819F818230910597
:1050300069F0D3C02E813F812430310589F18E8102
:105040009F818530910509F440C0C7C0AAE3B0E054
:10505000EAE3F0E08081482F8A81282F30E081E068
:1050600090E0022E02C0880F991F0A94E2F7809503
:1050700084238C93B2C0A7E3B0E0E7E3F0E0808143
:10508000482F8A81282F30E081E090E0022E02C074
:10509000880F991F0A94E2F7809584238C939DC012
:1050A000A4E3B0E0E4E3F0E08081482F8A81282F78
:1050B00030E081E090E0022E02C0880F991F0A9430
:1050C000E2F7809584238C9388C0A1E3B0E0E1E30C
:1050D000F0E08081482F8A81282F30E081E090E045
:1050E000022E02C0880F991F0A94E2F7809584234C
:1050F0008C9373C08B81813009F06FC08981282F18
:1051000030E03D832C838C819D818330910551F16A
:105110002C813D812430310534F48C819D81823095
:10512000910561F05AC02C813D812430310571F127
:105130008C819D8185309105E9F14FC0AAE3B0E0F3
:10514000EAE3F0E08081482F8A81282F30E081E077
:1051500090E0022E02C0880F991F0A94E2F7842B78
:105160008C933BC0A7E3B0E0E7E3F0E08081482FF9
:105170008A81282F30E081E090E0022E02C0880F63
:10518000991F0A94E2F7842B8C9327C0A4E3B0E024
:10519000E4E3F0E08081482F8A81282F30E081E02D
:1051A00090E0022E02C0880F991F0A94E2F7842B28
:1051B0008C9313C0A1E3B0E0E1E3F0E08081482FDD
:1051C0008A81282F30E081E090E0022E02C0880F13
:1051D000991F0A94E2F7842B8C9327960FB6F894C4
:1051E000DEBF0FBECDBFCF91DF910895DF93CF9388
:1051F00000D000D000D0CDB7DEB789836A835C834E
:105200004B838981282F30E03E832D834D815E8141
:105210004330510559F18D819E818430910534F4DC
:105220002D813E812230310569F05BC04D815E8168
:105230004430510579F18D819E818530910509F4C5
:105240003DC04FC0E9E3F0E08081282F30E08A8143
:10525000882F90E0A90102C0559547958A95E2F7FD
:10526000CA018170EB81FC8180833BC0E6E3F0E002
:105270008081282F30E08A81882F90E0A90102C028
:10528000559547958A95E2F7CA018170EB81FC81BB
:10529000808327C0E3E3F0E08081282F30E08A811B
:1052A000882F90E0A90102C0559547958A95E2F7AD
:1052B000CA018170EB81FC81808313C0E0E3F0E0E0
:1052C0008081282F30E08A81882F90E0A90102C0D8
:1052D000559547958A95E2F7CA018170EB81FC816B
:1052E000808326960FB6F894DEBF0FBECDBFCF9158
:1052F000DF910895DF93CF9300D000D0CDB7DEB714
:1053000089836A838981282F30E03C832B838B81BA
:105310009C8183309105D9F02B813C81243031056B
:1053200034F48B819C818230910561F01EC02B8109
:105330003C812430310581F08B819C818530910541
:1053400081F013C0EBE3F0E08A8180830EC0E8E3D4
:10535000F0E08A81808309C0E5E3F0E08A81808300
:1053600004C0E2E3F0E08A8180830F900F900F90F9
:105370000F90CF91DF910895DF93CF9300D000D0AD
:10538000CDB7DEB789836A838981282F30E03C83DB
:105390002B838B819C8183309105D9F02B813C81BB
:1053A0002430310534F48B819C818230910561F089
:1053B0001EC02B813C812430310581F08B819C8182
:1053C0008530910581F013C0EAE3F0E08A818083A3
:1053D0000EC0E7E3F0E08A81808309C0E4E3F0E0F7
:1053E0008A81808304C0E1E3F0E08A8180830F90AA
:1053F0000F900F900F90CF91DF910895DF93CF938F
:1054000000D000D00F92CDB7DEB789837B836A834B
:105410008981282F30E03D832C838C819D818330CE
:105420009105E9F02C813D812430310534F48C81E3
:105430009D818230910561F026C02C813D81243010
:105440003105A1F08C819D8185309105B1F01BC0A3
:10545000E9E3F0E08081EA81FB81808314C0E6E328
:10546000F0E08081EA81FB8180830DC0E3E3F0E01E
:105470008081EA81FB81808306C0E0E3F0E08081E7
:10548000EA81FB8180830F900F900F900F900F9017
:10549000CF91DF910895EF92FF920F93DF93CF9317
:1054A000CDB7DEB785E06FEF0E94BC298DE89AE2A8
:1054B00060E070E044E650E020E030E001E0EE24FF
:1054C000FF240E94151889EA9AE260E070E044E641
:1054D00050E020E030E001E0EE24FF240E941518A7
:1054E00085EC9AE260E070E044E650E020E030E0D5
:1054F00001E0EE24FF240E94151881EE9AE260E09C
:1055000070E044E650E020E030E001E0EE24FF24CB
:105510000E9415180E94C91BFFCFDF93CF9300D0C4
:1055200000D0CDB7DEB79B838A8381E0898385E095
:1055300061E049810E94F2261C828981882311F44E
:1055400081E08C838C81898384EF91E00E943A1AF8
:10555000EECFDF93CF9300D000D0CDB7DEB79B83E3
:105560008A8381E0898385E062E049810E94F22696
:105570001C828981882311F481E08C838C8189834A
:1055800088EE93E00E943A1AEECFDF93CF9300D0DB
:1055900000D0CDB7DEB79B838A8381E0898385E025
:1055A00063E049810E94F2261C828981882311F4DC
:1055B00081E08C838C8189838CED95E00E943A1A7E
:1055C000EECFDF93CF9300D000D0CDB7DEB79B8373
:1055D0008A8381E0898385E064E049810E94F22624
:1055E0001C828981882311F481E08C838C818983DA
:1055F00080ED97E00E943A1AEECFFB01DC0102C079
:1056000001900D9241505040D8F70895DC0101C03F
:0E5610006D9341505040E0F70895F894FFCF9D
:06561E0049444C45000068
:00000001FF
