:100000000C942A000C943F000C943F000C943F0089
:100010000C943F000C943F000C943F000C943F0064
:100020000C943F000C943F000C943F000C943F0054
:100030000C943F000C943F000C943F000C943F0044
:100040000C943F000C943F000C943F000C943F0034
:100050000C943F0011241FBECFE5D8E0DEBFCDBF1A
:1000600010E0A0E6B0E0E0EEF8E002C005900D92EE
:10007000A836B107D9F70E9455040C946E040C946D
:100080000000DF93CF93CDB7DEB727970FB6F89474
:10009000DEBF0FBECDBF89836A834B838B818130E6
:1000A00009F070C08981282F30E03F832E838E8134
:1000B0009F818330910551F12E813F81243031059C
:1000C00034F48E819F818230910561F0D3C02E81FE
:1000D0003F812430310571F18E819F8185309105FA
:1000E000E9F1C8C0ABE3B0E0EBE3F0E08081482F7A
:1000F0008A81282F30E081E090E0022E02C0880F34
:10010000991F0A94E2F7842B8C93B4C0A8E3B0E063
:10011000E8E3F0E08081482F8A81282F30E081E0F9
:1001200090E0022E02C0880F991F0A94E2F7842BF8
:100130008C93A0C0A5E3B0E0E5E3F0E08081482F18
:100140008A81282F30E081E090E0022E02C0880FE3
:10015000991F0A94E2F7842B8C938CC0A2E3B0E041
:10016000E2E3F0E08081482F8A81282F30E081E0AF
:1001700090E0022E02C0880F991F0A94E2F7842BA8
:100180008C9378C08B81882309F074C08981282FD3
:1001900030E03D832C838C819D818330910561F11A
:1001A0002C813D812430310534F48C819D81823055
:1001B000910569F05FC02C813D812430310589F1C2
:1001C0008C819D818530910509F440C053C0ABE31B
:1001D000B0E0EBE3F0E08081482F8A81282F30E007
:1001E00081E090E0022E02C0880F991F0A94E2F786
:1001F000809584238C933EC0A8E3B0E0E8E3F0E070
:100200008081482F8A81282F30E081E090E0022E03
:1002100002C0880F991F0A94E2F7809584238C937B
:1002200029C0A5E3B0E0E5E3F0E08081482F8A81B2
:10023000282F30E081E090E0022E02C0880F991F45
:100240000A94E2F7809584238C9314C0A2E3B0E073
:10025000E2E3F0E08081482F8A81282F30E081E0BE
:1002600090E0022E02C0880F991F0A94E2F7809551
:1002700084238C9327960FB6F894DEBF0FBECDBFB4
:10028000CF91DF910895DF93CF93CDB7DEB7279756
:100290000FB6F894DEBF0FBECDBF89836A834B8350
:1002A0008B81882309F075C08981282F30E03F8336
:1002B0002E838E819F818330910561F12E813F8154
:1002C0002430310534F48E819F818230910569F0AC
:1002D000D3C02E813F812430310589F18E819F81E9
:1002E0008530910509F440C0C7C0AAE3B0E0EAE355
:1002F000F0E08081482F8A81282F30E081E090E073
:10030000022E02C0880F991F0A94E2F78095842379
:100310008C93B2C0A7E3B0E0E7E3F0E08081482F20
:100320008A81282F30E081E090E0022E02C0880F01
:10033000991F0A94E2F7809584238C939DC0A4E3CF
:10034000B0E0E4E3F0E08081482F8A81282F30E09C
:1003500081E090E0022E02C0880F991F0A94E2F714
:10036000809584238C9388C0A1E3B0E0E1E3F0E0C2
:100370008081482F8A81282F30E081E090E0022E92
:1003800002C0880F991F0A94E2F7809584238C930A
:1003900073C08B81813009F06FC08981282F30E0D4
:1003A0003D832C838C819D818330910551F12C817B
:1003B0003D812430310534F48C819D81823091055A
:1003C00061F05AC02C813D812430310571F18C815E
:1003D0009D8185309105E9F14FC0AAE3B0E0EAE3E1
:1003E000F0E08081482F8A81282F30E081E090E082
:1003F000022E02C0880F991F0A94E2F7842B8C9377
:100400003BC0A7E3B0E0E7E3F0E08081482F8A81BA
:10041000282F30E081E090E0022E02C0880F991F63
:100420000A94E2F7842B8C9327C0A4E3B0E0E4E3C2
:10043000F0E08081482F8A81282F30E081E090E031
:10044000022E02C0880F991F0A94E2F7842B8C9326
:1004500013C0A1E3B0E0E1E3F0E08081482F8A819E
:10046000282F30E081E090E0022E02C0880F991F13
:100470000A94E2F7842B8C9327960FB6F894DEBF8C
:100480000FBECDBFCF91DF910895DF93CF9300D002
:1004900000D000D0CDB7DEB789836A835C834B83FD
:1004A0008981282F30E03E832D834D815E8143304A
:1004B000510559F18D819E818430910534F42D814F
:1004C0003E812230310569F05BC04D815E81443050
:1004D000510579F18D819E818530910509F43DC0EA
:1004E0004FC0E9E3F0E08081282F30E08A81882F37
:1004F00090E0A90102C0559547958A95E2F7CA0197
:100500008170EB81FC8180833BC0E6E3F0E0808179
:10051000282F30E08A81882F90E0A90102C05595EC
:1005200047958A95E2F7CA018170EB81FC8180834F
:1005300027C0E3E3F0E08081282F30E08A81882F14
:1005400090E0A90102C0559547958A95E2F7CA0146
:100550008170EB81FC81808313C0E0E3F0E0808157
:10056000282F30E08A81882F90E0A90102C055959C
:1005700047958A95E2F7CA018170EB81FC818083FF
:1005800026960FB6F894DEBF0FBECDBFCF91DF9198
:100590000895DF93CF9300D000D0CDB7DEB7898325
:1005A0006A838981282F30E03C832B838B819C8157
:1005B00083309105D9F02B813C812430310534F40E
:1005C0008B819C818230910561F01EC02B813C8122
:1005D0002430310581F08B819C818530910581F03B
:1005E00013C0EBE3F0E08A8180830EC0E8E3F0E023
:1005F0008A81808309C0E5E3F0E08A81808304C0BA
:10060000E2E3F0E08A8180830F900F900F900F90CB
:10061000CF91DF910895DF93CF9300D000D0CDB775
:10062000DEB789836A838981282F30E03C832B835E
:100630008B819C8183309105D9F02B813C812430C2
:10064000310534F48B819C818230910561F01EC0AC
:100650002B813C812430310581F08B819C81853058
:10066000910581F013C0EAE3F0E08A8180830EC037
:10067000E7E3F0E08A81808309C0E4E3F0E08A8167
:10068000808304C0E1E3F0E08A8180830F900F90C3
:100690000F900F90CF91DF910895DF93CF9300D00B
:1006A00000D00F92CDB7DEB789837B836A838981BF
:1006B000282F30E03D832C838C819D8183309105F0
:1006C000E9F02C813D812430310534F48C819D8109
:1006D0008230910561F026C02C813D8124303105A6
:1006E000A1F08C819D8185309105B1F01BC0E9E3BB
:1006F000F0E08081EA81FB81808314C0E6E3F0E0D2
:100700008081EA81FB8180830DC0E3E3F0E080819A
:10071000EA81FB81808306C0E0E3F0E08081EA812A
:10072000FB8180830F900F900F900F900F90CF91CF
:10073000DF910895DF93CF930F92CDB7DEB7198283
:10074000AAE2B0E0EAE2F0E0808180618C93AAE264
:10075000B0E0EAE2F0E0808188608C938981806873
:100760008983898184608983898182608983E0E4C7
:10077000F0E089818083E9E2F0E083E380830F90F9
:10078000CF91DF910895DF93CF930F92CDB7DEB76E
:100790008983EBE2F0E08081829586958770882FCF
:1007A00090E0817090700097A1F3ECE2F0E0898115
:1007B00080830F90CF91DF910895DF93CF93CDB7D2
:1007C000DEB7EBE2F0E080818823DCF7ECE2F0E0DA
:1007D0008081CF91DF910895DF93CF9300D00F9266
:1007E000CDB7DEB79B838A8319820EC08981282FFB
:1007F00030E08A819B81FC01E20FF31F80810E941F
:10080000C30389818F5F89838981282F30E08A81A2
:100810009B81FC01E20FF31F8081882339F70F9041
:100820000F900F90CF91DF9108950F931F93DF9357
:10083000CF93CDB7DEB728970FB6F894DEBF0FBEC3
:10084000CDBF9F838E8319821A821B821C821FC098
:1008500029813A818E819F818C01020F131F0E9492
:10086000DD03F801808329813A818E819F81FC011B
:10087000E20FF31F80818D8389819A81AB81BC81D6
:100880000196A11DB11D89839A83AB83BC838D81A1
:100890008D30F1F628960FB6F894DEBF0FBECDBFAF
:1008A000CF91DF911F910F910895DF93CF93CDB733
:1008B000DEB764970FB6F894DEBF0FBECDBF0E94BF
:1008C0009A03CE0101960E94150480E690E00E94F2
:1008D000EC03CE0101960E94EC03F3CFF894FFCF16
:0808E00048454C4C4F2000007C
:00000001FF
