:100000000C942A000C943C000C943C000C943C0092
:100010000C943C000C943C000C943C000C943C0070
:100020000C943C000C943C000C9476050C943C0021
:100030000C943C000C943C000C943C000C943C0050
:100040000C943C000C943C000C943C000C943C0040
:100050000C943C0011241FBECFE5D8E0DEBFCDBF1D
:1000600010E0A0E6B0E001C01D92A938B107E1F7A9
:100070000E949F060C944C070C940000DF93CF93D2
:10008000CDB7DEB727970FB6F894DEBF0FBECDBF52
:1000900089836A834B838B81813009F070C08981A9
:1000A000282F30E03F832E838E819F8183309105FE
:1000B00051F12E813F812430310534F48E819F81AE
:1000C0008230910561F0D3C02E813F81243031050B
:1000D00071F18E819F8185309105E9F1C8C0ABE354
:1000E000B0E0EBE3F0E08081482F8A81282F30E0F8
:1000F00081E090E0022E02C0880F991F0A94E2F777
:10010000842B8C93B4C0A8E3B0E0E8E3F0E08081F6
:10011000482F8A81282F30E081E090E0022E02C033
:10012000880F991F0A94E2F7842B8C93A0C0A5E353
:10013000B0E0E5E3F0E08081482F8A81282F30E0AD
:1001400081E090E0022E02C0880F991F0A94E2F726
:10015000842B8C938CC0A2E3B0E0E2E3F0E08081DA
:10016000482F8A81282F30E081E090E0022E02C0E3
:10017000880F991F0A94E2F7842B8C9378C08B81A7
:10018000882309F074C08981282F30E03D832C83B7
:100190008C819D818330910561F12C813D812430DA
:1001A000310534F48C819D818230910569F05FC006
:1001B0002C813D812430310589F18C819D818530F0
:1001C000910509F440C053C0ABE3B0E0EBE3F0E0CD
:1001D0008081482F8A81282F30E081E090E0022E34
:1001E00002C0880F991F0A94E2F7809584238C93AC
:1001F0003EC0A8E3B0E0E8E3F0E08081482F8A81C8
:10020000282F30E081E090E0022E02C0880F991F75
:100210000A94E2F7809584238C9329C0A5E3B0E08B
:10022000E5E3F0E08081482F8A81282F30E081E0EB
:1002300090E0022E02C0880F991F0A94E2F7809581
:1002400084238C9314C0A2E3B0E0E2E3F0E0808169
:10025000482F8A81282F30E081E090E0022E02C0F2
:10026000880F991F0A94E2F7809584238C93279630
:100270000FB6F894DEBF0FBECDBFCF91DF910895CA
:10028000DF93CF93CDB7DEB727970FB6F894DEBFD5
:100290000FBECDBF89836A834B838B81882309F08E
:1002A00075C08981282F30E03F832E838E819F8106
:1002B0008330910561F12E813F812430310534F482
:1002C0008E819F818230910569F0D3C02E813F815C
:1002D0002430310589F18E819F818530910509F4A3
:1002E00040C0C7C0AAE3B0E0EAE3F0E08081482F55
:1002F0008A81282F30E081E090E0022E02C0880F32
:10030000991F0A94E2F7809584238C93B2C0A7E3E7
:10031000B0E0E7E3F0E08081482F8A81282F30E0C9
:1003200081E090E0022E02C0880F991F0A94E2F744
:10033000809584238C939DC0A4E3B0E0E4E3F0E0D7
:100340008081482F8A81282F30E081E090E0022EC2
:1003500002C0880F991F0A94E2F7809584238C933A
:1003600088C0A1E3B0E0E1E3F0E08081482F8A811A
:10037000282F30E081E090E0022E02C0880F991F04
:100380000A94E2F7809584238C9373C08B8181302B
:1003900009F06FC08981282F30E03D832C838C8148
:1003A0009D818330910551F12C813D8124303105AF
:1003B00034F48C819D818230910561F05AC02C818A
:1003C0003D812430310571F18C819D81853091050D
:1003D000E9F14FC0AAE3B0E0EAE3F0E08081482F02
:1003E0008A81282F30E081E090E0022E02C0880F41
:1003F000991F0A94E2F7842B8C933BC0A7E3B0E0EB
:10040000E7E3F0E08081482F8A81282F30E081E007
:1004100090E0022E02C0880F991F0A94E2F7842B05
:100420008C9327C0A4E3B0E0E4E3F0E08081482FA0
:100430008A81282F30E081E090E0022E02C0880FF0
:10044000991F0A94E2F7842B8C9313C0A1E3B0E0C8
:10045000E1E3F0E08081482F8A81282F30E081E0BD
:1004600090E0022E02C0880F991F0A94E2F7842BB5
:100470008C9327960FB6F894DEBF0FBECDBFCF91F9
:10048000DF910895DF93CF9300D000D000D0CDB797
:10049000DEB789836A835C834B838981282F30E0B0
:1004A0003E832D834D815E814330510559F18D810D
:1004B0009E818430910534F42D813E8122303105B6
:1004C00069F05BC04D815E814430510579F18D81C9
:1004D0009E818530910509F43DC04FC0E9E3F0E00D
:1004E0008081282F30E08A81882F90E0A90102C006
:1004F000559547958A95E2F7CA018170EB81FC8199
:1005000080833BC0E6E3F0E08081282F30E08A81E1
:10051000882F90E0A90102C0559547958A95E2F78A
:10052000CA018170EB81FC81808327C0E3E3F0E0A6
:100530008081282F30E08A81882F90E0A90102C0B5
:10054000559547958A95E2F7CA018170EB81FC8148
:10055000808313C0E0E3F0E08081282F30E08A81BF
:10056000882F90E0A90102C0559547958A95E2F73A
:10057000CA018170EB81FC81808326960FB6F894C6
:10058000DEBF0FBECDBFCF91DF910895DF93CF9334
:1005900000D000D0CDB7DEB789836A838981282F48
:1005A00030E03C832B838B819C8183309105D9F093
:1005B0002B813C812430310534F48B819C81823045
:1005C000910561F01EC02B813C812430310581F002
:1005D0008B819C818530910581F013C0EBE3F0E0C5
:1005E0008A8180830EC0E8E3F0E08A81808309C0BD
:1005F000E5E3F0E08A81808304C0E2E3F0E08A81F1
:1006000080830F900F900F900F90CF91DF910895FE
:10061000DF93CF9300D000D0CDB7DEB789836A8354
:100620008981282F30E03C832B838B819C81833010
:100630009105D9F02B813C812430310534F48B8134
:100640009C818230910561F01EC02B813C81243059
:10065000310581F08B819C818530910581F013C03B
:10066000EAE3F0E08A8180830EC0E7E3F0E08A816C
:10067000808309C0E4E3F0E08A81808304C0E1E381
:10068000F0E08A8180830F900F900F900F90CF91B0
:10069000DF910895DF93CF9300D000D00F92CDB7B4
:1006A000DEB789837B836A838981282F30E03D838D
:1006B0002C838C819D8183309105E9F02C813D81D3
:1006C0002430310534F48C819D818230910561F0B4
:1006D00026C02C813D8124303105A1F08C819D8183
:1006E00085309105B1F01BC0E9E3F0E08081EA813B
:1006F000FB81808314C0E6E3F0E08081EA81FB8126
:1007000080830DC0E3E3F0E08081EA81FB81808398
:1007100006C0E0E3F0E08081EA81FB8180830F90F6
:100720000F900F900F900F90CF91DF910895DF936E
:10073000CF93CDB7DEB7AFE5B0E0EFE5F0E0808175
:1007400080688C93CF91DF910895DF93CF93CDB7DD
:10075000DEB7AFE5B0E0EFE5F0E080818F778C9316
:10076000CF91DF910895DF93CF93CDB7DEB70E948D
:100770002B058DE894E00E9460050E949703CF91BD
:10078000DF910895DF93CF93CDB7DEB728970FB6EB
:10079000F894DEBF0FBECDBF8A837C836B835E83FC
:1007A0004D8338872F8319828A81853008F04FC0A6
:1007B0008F819885009709F44AC08A81282F30E0FC
:1007C000C901880F991F880F991F880F991F821BD5
:1007D000930BFC01E05AFF4F8D819E8191838083B2
:1007E0008A81282F30E0C901880F991F880F991F2F
:1007F000880F991F821B930BFC01EC59FF4F8F81CF
:100800009885918380838A81282F30E0C901880FE1
:10081000991F880F991F880F991F821B930BFC014A
:10082000EA59FF4F10828A81282F30E0C901880FD2
:10083000991F880F991F880F991F821B930BFC012A
:10084000EE59FF4F8B819C819183808302C081E0B0
:100850008983898128960FB6F894DEBF0FBECDBF7D
:10086000CF91DF910895DF93CF930F92CDB7DEB78D
:1008700019824BC08981282F30E0C901880F991F48
:10088000880F991F880F991F821B930BFC01EC594D
:10089000FF4F808191810097A9F18981282F30E055
:1008A000C901880F991F880F991F880F991F821BF4
:1008B000930BFC01EA59FF4F8081813019F5898142
:1008C000282F30E0C901880F991F880F991F880FC2
:1008D000991F821B930BFC01EA59FF4F10828981FB
:1008E000282F30E0C901880F991F880F991F880FA2
:1008F000991F821B930BFC01EC59FF4F0190F08173
:10090000E02D099589818F5F89838981853008F47D
:10091000B1CF0F90CF91DF910895DF93CF930F92D6
:10092000CDB7DEB7198280C08981282F30E0C90198
:10093000880F991F880F991F880F991F821B930B8F
:10094000FC01EC59FF4F80819181009709F469C047
:100950008981282F30E0C901880F991F880F991FBE
:10096000880F991F821B930BFC01EE59FF4F80816A
:1009700091810097A1F58981282F30E0C901880F66
:10098000991F880F991F880F991F821B930BFC01D9
:10099000EA59FF4F81E080838981482F50E08981A7
:1009A000282F30E0C901880F991F880F991F880FE1
:1009B000991F821B930BFC01E05AFF4F208131816C
:1009C000CA01880F991F880F991F880F991F841BD0
:1009D000950BFC01EE59FF4F3183208322C08981A2
:1009E000282F30E0C901880F991F880F991F880FA1
:1009F000991F821B930BFC01EE59FF4F808191815F
:100A0000AC0141505040C901880F991F880F991FB0
:100A1000880F991F821B930BFC01EE59FF4F5183E6
:100A2000408389818F5F89838981853008F47CCFF9
:100A30000F90CF91DF910895DF93CF93CDB7DEB7BD
:100A4000A5E5B0E0E5E5F0E0808180688C938895CD
:100A5000CF91DF910895DF93CF93CDB7DEB7A3E5B4
:100A6000B0E0E3E5F0E080818F7B8C93A3E5B0E01C
:100A7000E3E5F0E0808188608C93A9E5B0E0E9E5EA
:100A8000F0E0808182608C93ECE5F0E08DE780837C
:100A9000A3E5B0E0E3E5F0E0808181608C93A3E51D
:100AA000B0E0E3E5F0E0808182608C93A3E5B0E004
:100AB000E3E5F0E080818B7F8C93CF91DF91089507
:100AC000DF93CF9300D0CDB7DEB79A838983898136
:100AD0009A81009731F089819A8190938400809364
:100AE00083000F900F90CF91DF9108951F920F9286
:100AF0000FB60F9211242F933F934F935F936F93F1
:100B00007F938F939F93AF93BF93EF93FF93DF9365
:100B1000CF93CDB7DEB7809183009091840000978A
:100B200029F0E0918300F09184000995CF91DF9145
:100B3000FF91EF91BF91AF919F918F917F916F91B5
:100B40005F914F913F912F910F900FBE0F901F908B
:100B50001895DF93CF93CDB7DEB7A3E5B0E0E3E51B
:100B6000F0E0808180648C93A3E5B0E0E3E5F0E001
:100B7000808188608C93A9E5B0E0E9E5F0E08081B0
:100B80008D7F8C93A3E5B0E0E3E5F0E080818062A7
:100B90008C93A3E5B0E0E3E5F0E080818F7E8C9359
:100BA000A3E5B0E0E3E5F0E0808181608C93A3E50C
:100BB000B0E0E3E5F0E0808182608C93A3E5B0E0F3
:100BC000E3E5F0E080818B7F8C93CF91DF910895F6
:100BD000DF93CF930F92CDB7DEB78983ECE5F0E0DA
:100BE000898180830F90CF91DF910895DF93CF9318
:100BF000CDB7DEB7A3E5B0E0E3E5F0E08081806447
:100C00008C93A3E5B0E0E3E5F0E08081877F8C93EF
:100C1000A9E5B0E0E9E5F0E080818D7F8C93A3E564
:100C2000B0E0E3E5F0E0808180628C93A3E5B0E082
:100C3000E3E5F0E080818F7E8C93A3E5B0E0E3E50F
:100C4000F0E0808181608C93A3E5B0E0E3E5F0E023
:100C5000808182608C93A3E5B0E0E3E5F0E08081E1
:100C60008B7F8C93CF91DF910895DF93CF93CDB796
:100C7000DEB7AFE4B0E0EFE4F0E0808180688C9311
:100C8000AFE4B0E0EFE4F0E080818F7B8C93AFE4E1
:100C9000B0E0EFE4F0E080818E7F8C93AFE4B0E0D1
:100CA000EFE4F0E0808182608C93AEE4B0E0EEE4AB
:100CB000F0E0808188608C93AEE4B0E0EEE4F0E098
:100CC000808180618C93AEE4B0E0EEE4F0E080815E
:100CD0008E7F8C93AEE4B0E0EEE4F0E08081826041
:100CE0008C93AEE4B0E0EEE4F0E080818B7F8C93F7
:100CF000CF91DF910895DF93CF9300D0CDB7DEB7CA
:100D00009A838983E6E4F0E089819A8191838083E4
:100D10000F900F90CF91DF910895DF93CF9300D084
:100D2000CDB7DEB79A838983EAE4F0E089819A81BE
:100D3000918380830F900F90CF91DF910895DF937F
:100D4000CF93CDB7DEB785E061E041E00E9440017E
:100D500085E062E041E00E94400185E063E041E01F
:100D60000E94400185E064E041E00E94400124EEE1
:100D700036E080E090E060E070E048EC50E00E94F7
:100D8000C2032EEF36E081E090E064EF71E048EEC0
:100D900053E00E94C20328E137E082E090E068EE71
:100DA00073E040ED57E00E94C20322E337E083E0A6
:100DB00090E060ED77E048EB5BE00E94C2030E94A8
:100DC000B3030E943304FDCFDF93CF930F92CDB7CF
:100DD000DEB7809185001982882311F481E0898330
:100DE0008981809385009091850085E061E0492F9D
:100DF0000E943E000F90CF91DF910895DF93CF9333
:100E00000F92CDB7DEB7809186001982882311F446
:100E100081E089838981809386009091860085E0B6
:100E200062E0492F0E943E000F90CF91DF9108951C
:100E3000DF93CF930F92CDB7DEB7809187001982F1
:100E4000882311F481E089838981809387009091C0
:100E5000870085E063E0492F0E943E000F90CF910C
:100E6000DF910895DF93CF930F92CDB7DEB78091D6
:100E700088001982882311F481E089838981809315
:100E800088009091880085E064E0492F0E943E0030
:0C0E90000F90CF91DF910895F894FFCFF0
:00000001FF
