:100000000C942A000C9447000C9447000C94470071
:100010000C9447000C9447000C9447000C94470044
:100020000C9447000C9447000C9447000C94470034
:100030000C9447000C94C70C0C9447000C94470098
:100040000C9447000C9447000C9447000C94470014
:100050000C94470011241FBECFE5D8E0DEBFCDBF12
:1000600011E0A0E6B0E0ECEDF2E202C005900D92E6
:10007000A235B107D9F711E0A2E5B1E001C01D92A8
:10008000A837B107E1F70E947F0D0C946C110C9416
:100090000000EF92FF920F931F937B018C0120E0F1
:1000A00030E040E05FE40E94490388238CF0C801FF
:1000B000B70120E030E040E05FE40E94C1010E940F
:1000C000A9039B01AC01205030404040504806C07D
:1000D000C801B7010E94A9039B01AC01B901CA0183
:1000E0001F910F91FF90EF900895A0E0B0E0EBE733
:1000F000F0E00C94FF10DC012B01FA019C9192308E
:1001000008F439C1EB018881823008F433C194309E
:1001100069F4843009F02FC111969C91119789815F
:10012000981709F428C1A3EFB0E025C1843009F481
:1001300021C18230A9F4923009F01DC19A01AD01AC
:1001400088E0EA010990AE01E90109929E0181501F
:10015000C1F7E201898111969C918923818308C1AD
:10016000923009F407C112962D903C901397EB0141
:100170008A819B811496AD90BD90CD90DC901797AD
:10018000EC80FD800E811F819101281B390BB90184
:1001900037FF04C066277727621B730B6032710537
:1001A0000CF061C0121613066CF537014801062EDB
:1001B00004C096948794779467940A94D2F721E0C8
:1001C00030E040E050E004C0220F331F441F551FB1
:1001D0006A95D2F721503040404050402E213F21B7
:1001E00040235123211531054105510521F021E01E
:1001F00030E040E050E079018A01E628F72808293C
:1002000019293CC0232BD1F1260E371E350146019A
:10021000062E04C096948794779467940A94D2F734
:1002200021E030E040E050E004C0220F331F441FC3
:10023000551F6A95D2F721503040404050402A2146
:100240003B214C215D21211531054105510521F04E
:1002500021E030E040E050E059016A01A628B728CB
:10026000C828D9280BC0821593052CF01C01AA249C
:10027000BB24650103C0EE24FF24870111969C91E5
:10028000D20111968C91981709F445C0992339F041
:10029000A80197012A193B094C095D0906C0A6016E
:1002A00095012E193F09400B510B57FD08C01182D3
:1002B0003382228224833583468357831DC081E0A5
:1002C00081833382228288279927DC01821B930B4A
:1002D000A40BB50B84839583A683B7830DC0220F2F
:1002E000331F441F551F24833583468357838281E0
:1002F000938101979383828324813581468157813D
:10030000DA01C9010197A109B1098F5F9F4FAF4F72
:10031000BF4328F30BC0918333822282EA0CFB1C7B
:100320000C1D1D1DE482F5820683178383E0808304
:10033000248135814681578157FF1AC0C901AA27F8
:1003400097FDA095BA2F81709070A070B0705695EF
:10035000479537952795822B932BA42BB52B848318
:100360009583A683B7838281938101969383828349
:10037000DF0101C0D201CD01CDB7DEB7E2E10C94BF
:100380001B11A0E2B0E0E7ECF1E00C940B116983E3
:100390007A838B839C832D833E834F835887E9E048
:1003A000EE2EF12CEC0EFD1ECE010196B7010E943F
:1003B000D2048E010F5E1F4FCE010596B8010E9438
:1003C000D2048A8991E089278A8BC701B801AE01DE
:1003D000475E5F4F0E9475000E94FD03A096E6E015
:1003E0000C942711A0E2B0E0E8EFF1E00C940B11BF
:1003F00069837A838B839C832D833E834F835887C5
:10040000F9E0EF2EF12CEC0EFD1ECE010196B701A6
:100410000E94D2048E010F5E1F4FCE010596B801D7
:100420000E94D204C701B801AE01475E5F4F0E942F
:1004300075000E94FD03A096E6E00C942711A0E24F
:10044000B0E0E5E2F2E00C94FF1069837A838B83DD
:100450009C832D833E834F835887CE010196BE0136
:10046000675F7F4F0E94D204CE010596BE016F5E8A
:100470007F4F0E94D2049985923088F0898982301A
:10048000C8F0943019F4823051F404C0843029F457
:10049000923081F483EF90E0C6C0923049F420E0BE
:1004A0009A858A89981321E02A87CE010996BBC0D4
:1004B000823049F420E09A858A89981321E02A8BBA
:1004C000CE014196B0C02D843E844F8458886D88FB
:1004D0007E888F88988CEE24FF248701AA24BB2471
:1004E000650140E050E060E070E0E0E0F0E0C10174
:1004F00081709070892BE9F0E60CF71C081D191D1E
:100500009A01AB012A0D3B1D4C1D5D1D80E090E062
:10051000A0E0B0E0E614F7040805190520F481E036
:1005200090E0A0E0B0E0BA01A901480F591F6A1F8E
:100530007B1FAA0CBB1CCC1CDD1C97FE08C081E0F5
:1005400090E0A0E0B0E0A82AB92ACA2ADB2A3196B6
:10055000E032F10549F0660C771C881C991C569412
:10056000479437942794C3CFFA85EA892B893C892D
:100570008B859C85280F391F2E5F3F4F17C0CA01FE
:1005800081709070892B61F016950795F794E79428
:1005900080E090E0A0E0B0E8E82AF92A0A2B1B2BC3
:1005A00076956795579547952F5F3F4F77FDE7CF36
:1005B0000CC0440F551F661F771F17FD4160EE0CDE
:1005C000FF1C001F111F21503040403090E05907A0
:1005D00090E0690790E4790760F32B8F3C8FDB0193
:1005E000CA018F779070A070B07080349105A1051A
:1005F000B10561F447FD0AC0E114F10401051105DC
:1006000029F0405C5F4F6F4F7F4F40781A8EFE1786
:1006100011F081E08A8F4D8F5E8F6F8F78A383E01A
:10062000898FCE0149960E94FD03A096E2E10C94C9
:100630001B11A8E1B0E0EFE1F3E00C940B1169832A
:100640007A838B839C832D833E834F83588789E0F5
:10065000E82EF12CEC0EFD1ECE010196B7010E9492
:10066000D2048E010F5E1F4FCE010596B8010E9485
:10067000D2048985823040F08989823028F0C70110
:10068000B8010E944A0501C08FEF6896E6E00C941D
:100690002711A8E1B0E0EFE4F3E00C940B116983BB
:1006A0007A838B839C832D833E834F83588789E095
:1006B000E82EF12CEC0EFD1ECE010196B7010E9432
:1006C000D2048E010F5E1F4FCE010596B8010E9425
:1006D000D2048985823040F08989823028F0C701B0
:1006E000B8010E944A0501C08FEF6896E6E00C94BD
:1006F0002711A8E1B0E0EFE7F3E00C940B11698358
:100700007A838B839C832D833E834F83588789E034
:10071000E82EF12CEC0EFD1ECE010196B7010E94D1
:10072000D2048E010F5E1F4FCE010596B8010E94C4
:10073000D2048985823040F08989823028F0C7014F
:10074000B8010E944A0501C081E06896E6E00C9479
:100750002711ACE0B0E0EFEAF3E00C940F116983ED
:100760007A838B839C83CE010196BE016B5F7F4FA2
:100770000E94D2048D81823061F1823050F1843048
:1007800021F48E81882351F12EC02F81388537FDC9
:1007900020C06E812F3131051CF06623F9F023C093
:1007A0008EE190E0821B930B29853A854B855C8511
:1007B00004C056954795379527958A95D2F76623B5
:1007C000B1F050954095309521953F4F4F4F5F4F79
:1007D0000EC020E030E040E050E009C02FEF3FEFD6
:1007E0004FEF5FE704C020E030E040E050E8B9019F
:1007F000CA012C96E2E00C942B11DF92EF92FF924B
:100800000F931F93FC01E480F58006811781D1804E
:100810008081823048F480E090E0A0E1B0E0E82AF6
:10082000F92A0A2B1B2BA5C0843009F49FC0823003
:1008300021F4EE24FF24870105C0E114F104010531
:10084000110519F4E0E0F0E096C0628173819FEF3A
:10085000623879070CF05BC022E83FEF261B370BAC
:100860002A3131052CF020E030E040E050E02AC091
:10087000B801A701022E04C0769567955795479554
:100880000A94D2F781E090E0A0E0B0E004C0880FC5
:10089000991FAA1FBB1F2A95D2F70197A109B10979
:1008A0008E219F21A023B1230097A105B10521F03E
:1008B00081E090E0A0E0B0E09A01AB01282B392B59
:1008C0004A2B5B2BDA01C9018F779070A070B07052
:1008D00080349105A105B10539F427FF09C0205CDA
:1008E0003F4F4F4F5F4F04C0215C3F4F4F4F5F4F13
:1008F000E0E0F0E02030A0E03A07A0E04A07A0E402
:100900005A0710F0E1E0F0E079018A0127C0603871
:10091000710564F5FB01E158FF4FD801C7018F77DE
:100920009070A070B07080349105A105B10539F4C4
:10093000E7FE0DC080E490E0A0E0B0E004C08FE3EB
:1009400090E0A0E0B0E0E80EF91E0A1F1B1F17FFA1
:1009500005C016950795F794E794319687E01695AC
:100960000795F794E7948A95D1F705C0EE24FF2404
:100970008701EFEFF0E06E2F679566276795902F60
:100980009F77D794DD24D7948E2F8695492F462BB9
:10099000582F5D29B701CA011F910F91FF90EF9069
:1009A000DF900895FC01DB01408151812281622F9B
:1009B0006F7770E0221F2227221F9381892F880FD3
:1009C000822B282F30E0991F9927991F11969C930D
:1009D000119721153105A9F54115510561057105DD
:1009E00011F482E037C082E89FEF13969C938E93B8
:1009F00012979A01AB0167E0220F331F441F551F66
:100A00006A95D1F783E08C930DC0220F331F441FEA
:100A1000551F12968D919C911397019713969C9355
:100A20008E931297203080E0380780E0480780E4FA
:100A3000580758F314962D933D934D935C93179755
:100A400008952F3F310579F4411551056105710570
:100A500019F484E08C93089564FF03C081E08C93C3
:100A600012C01C9210C02F57304013963C932E9307
:100A7000129783E08C9387E0440F551F661F771F02
:100A80008A95D1F7706414964D935D936D937C9322
:100A9000179708951F93DC01FB019C91923008F495
:100AA00047C08081823008F443C0943051F41196DD
:100AB0001C91843099F58181682F70E0611B710968
:100AC0003FC0843021F0923031F48230B9F181811D
:100AD000882389F12DC011961C9111978230F1F075
:100AE00081811817D9F412962D913C911397828128
:100AF00093818217930794F028173907BCF0149656
:100B00008D919D910D90BC91A02D248135814681C0
:100B10005781281739074A075B0718F4112341F05A
:100B20000AC082179307A407B50740F4112319F0F0
:100B300061E070E005C06FEF7FEF02C060E070E041
:100B4000CB011F910895DF93CF93CDB7DEB72F97D9
:100B50000FB6F894DEBF0FBECDBF8F8784E060E094
:100B600040E00E94F90784E061E040E00E94F9075C
:100B700083E06F850E94810A84E062E041E00E9488
:100B8000F90780E090E0A0E4B0E48B879C87AD8714
:100B9000BE876B857C858D859E8520E030E04AEFA1
:100BA00054E40E941F02DC01CB018F839887A98740
:100BB000BA876F81788589859A8520E030E040E8A2
:100BC0005FE30E94790388232CF481E090E09E8308
:100BD0008D833FC06F81788589859A8520E03FEFBE
:100BE0004FE757E40E94190318164CF56B857C8576
:100BF0008D859E8520E030E040E251E40E941F0296
:100C0000DC01CB01BC01CD010E944900DC01CB011C
:100C10009E838D830FC088EC90E09C838B838B81B7
:100C20009C810197F1F79C838B838D819E81019735
:100C30009E838D838D819E81009769F714C06F819B
:100C4000788589859A850E944900DC01CB019E83C5
:100C50008D838D819E819A83898389819A81019771
:100C6000F1F79A83898384E062E040E00E94F9070B
:100C70002F960FB6F894DEBF0FBECDBFCF91DF9198
:100C80000895DF93CF93CDB7DEB72F970FB6F894C3
:100C9000DEBF0FBECDBF8F8784E060E041E00E94E1
:100CA000F90784E061E040E00E94F90783E06F8586
:100CB0000E94810A84E062E041E00E94F90780E03E
:100CC00090E0A0E4B0E48B879C87AD87BE876B85FE
:100CD0007C858D859E8520E030E04AEF54E40E94BB
:100CE0001F02DC01CB018F839887A987BA876F81A8
:100CF000788589859A8520E030E040E85FE30E94AE
:100D0000790388232CF481E090E09E838D833FC09B
:100D10006F81788589859A8520E03FEF4FE757E41A
:100D20000E94190318164CF56B857C858D859E8570
:100D300020E030E040E251E40E941F02DC01CB01E0
:100D4000BC01CD010E944900DC01CB019E838D8353
:100D50000FC088EC90E09C838B838B819C810197F2
:100D6000F1F79C838B838D819E8101979E838D8378
:100D70008D819E81009769F714C06F817885898580
:100D80009A850E944900DC01CB019E838D838D8171
:100D90009E819A83898389819A810197F1F79A8349
:100DA000898384E062E040E00E94F9072F960FB645
:100DB000F894DEBF0FBECDBFCF91DF910895DF93D2
:100DC000CF93CDB7DEB72E970FB6F894DEBF0FBE28
:100DD000CDBF80E090E0A0E2B2E48B879C87AD8736
:100DE000BE876B857C858D859E8520E030E04AEF4F
:100DF00054E40E941F02DC01CB018F839887A987EE
:100E0000BA876F81788589859A8520E030E040E84F
:100E10005FE30E94790388232CF481E090E09E83B5
:100E20008D833FC06F81788589859A8520E03FEF6B
:100E30004FE757E40E94190318164CF56B857C8523
:100E40008D859E8520E030E040E251E40E941F0243
:100E5000DC01CB01BC01CD010E944900DC01CB01CA
:100E60009E838D830FC088EC90E09C838B838B8165
:100E70009C810197F1F79C838B838D819E810197E3
:100E80009E838D838D819E81009769F714C06F8149
:100E9000788589859A850E944900DC01CB019E8373
:100EA0008D838D819E819A83898389819A8101971F
:100EB000F1F79A8389838FE30E94A3058CE00E9457
:100EC000A30581E00E94A3052E960FB6F894DEBF1D
:100ED0000FBECDBFCF91DF910895DF93CF93CDB7F4
:100EE000DEB781E00E94A305CF91DF910895DF93E3
:100EF000CF9300D00F92CDB7DEB78A836B83198270
:100F00008A81882F90E0002496958795079496957E
:100F100087950794982F802D982F8B81890F89832F
:100F2000898180580E94A3050F900F900F90CF9158
:100F3000DF910895DF93CF9300D000D00F92CDB70B
:100F4000DEB79C838B836D831A828D81882F90E01E
:100F5000880F991F880F991F880F991F8A838A818C
:100F6000805C0E94A30519820EC08981282F30E081
:100F70008B819C81FC01E20FF31F80810E9441065E
:100F800089818F5F89838981883078F30F900F90F2
:100F90000F900F900F90CF91DF910895DF93CF9333
:100FA00000D000D0CDB7DEB79C838B831A82198224
:100FB0000FC029813A818B819C81FC01E20FF31FD4
:100FC00080810E94410689819A8101969A83898352
:100FD00029813A818B819C81FC01E20FF31F808182
:100FE000882339F70F900F900F900F90CF91DF91DA
:100FF0000895DF93CF93CDB7DEB727970FB6F89458
:10100000DEBF0FBECDBF89836A834B838B81813066
:1010100009F070C08981282F30E03F832E838E81B4
:101020009F818330910551F12E813F81243031051C
:1010300034F48E819F818230910561F0D3C02E817E
:101040003F812430310571F18E819F81853091057A
:10105000E9F1C8C0ABE3B0E0EBE3F0E08081482FFA
:101060008A81282F30E081E090E0022E02C0880FB4
:10107000991F0A94E2F7842B8C93B4C0A8E3B0E0E4
:10108000E8E3F0E08081482F8A81282F30E081E07A
:1010900090E0022E02C0880F991F0A94E2F7842B79
:1010A0008C93A0C0A5E3B0E0E5E3F0E08081482F99
:1010B0008A81282F30E081E090E0022E02C0880F64
:1010C000991F0A94E2F7842B8C938CC0A2E3B0E0C2
:1010D000E2E3F0E08081482F8A81282F30E081E030
:1010E00090E0022E02C0880F991F0A94E2F7842B29
:1010F0008C9378C08B81882309F074C08981282F54
:1011000030E03D832C838C819D818330910561F19A
:101110002C813D812430310534F48C819D818230D5
:10112000910569F05FC02C813D812430310589F142
:101130008C819D818530910509F440C053C0ABE39B
:10114000B0E0EBE3F0E08081482F8A81282F30E087
:1011500081E090E0022E02C0880F991F0A94E2F706
:10116000809584238C933EC0A8E3B0E0E8E3F0E0F0
:101170008081482F8A81282F30E081E090E0022E84
:1011800002C0880F991F0A94E2F7809584238C93FC
:1011900029C0A5E3B0E0E5E3F0E08081482F8A8133
:1011A000282F30E081E090E0022E02C0880F991FC6
:1011B0000A94E2F7809584238C9314C0A2E3B0E0F4
:1011C000E2E3F0E08081482F8A81282F30E081E03F
:1011D00090E0022E02C0880F991F0A94E2F78095D2
:1011E00084238C9327960FB6F894DEBF0FBECDBF35
:1011F000CF91DF910895DF93CF93CDB7DEB72797D7
:101200000FB6F894DEBF0FBECDBF89836A834B83D0
:101210008B81882309F075C08981282F30E03F83B6
:101220002E838E819F818330910561F12E813F81D4
:101230002430310534F48E819F818230910569F02C
:10124000D3C02E813F812430310589F18E819F8169
:101250008530910509F440C0C7C0AAE3B0E0EAE3D5
:10126000F0E08081482F8A81282F30E081E090E0F3
:10127000022E02C0880F991F0A94E2F780958423FA
:101280008C93B2C0A7E3B0E0E7E3F0E08081482FA1
:101290008A81282F30E081E090E0022E02C0880F82
:1012A000991F0A94E2F7809584238C939DC0A4E350
:1012B000B0E0E4E3F0E08081482F8A81282F30E01D
:1012C00081E090E0022E02C0880F991F0A94E2F795
:1012D000809584238C9388C0A1E3B0E0E1E3F0E043
:1012E0008081482F8A81282F30E081E090E0022E13
:1012F00002C0880F991F0A94E2F7809584238C938B
:1013000073C08B81813009F06FC08981282F30E054
:101310003D832C838C819D818330910551F12C81FB
:101320003D812430310534F48C819D8182309105DA
:1013300061F05AC02C813D812430310571F18C81DE
:101340009D8185309105E9F14FC0AAE3B0E0EAE361
:10135000F0E08081482F8A81282F30E081E090E002
:10136000022E02C0880F991F0A94E2F7842B8C93F7
:101370003BC0A7E3B0E0E7E3F0E08081482F8A813B
:10138000282F30E081E090E0022E02C0880F991FE4
:101390000A94E2F7842B8C9327C0A4E3B0E0E4E343
:1013A000F0E08081482F8A81282F30E081E090E0B2
:1013B000022E02C0880F991F0A94E2F7842B8C93A7
:1013C00013C0A1E3B0E0E1E3F0E08081482F8A811F
:1013D000282F30E081E090E0022E02C0880F991F94
:1013E0000A94E2F7842B8C9327960FB6F894DEBF0D
:1013F0000FBECDBFCF91DF910895DF93CF9300D083
:1014000000D000D0CDB7DEB789836A835C834B837D
:101410008981282F30E03E832D834D815E814330CA
:10142000510559F18D819E818430910534F42D81CF
:101430003E812230310569F05BC04D815E814430D0
:10144000510579F18D819E818530910509F43DC06A
:101450004FC0E9E3F0E08081282F30E08A81882FB7
:1014600090E0A90102C0559547958A95E2F7CA0117
:101470008170EB81FC8180833BC0E6E3F0E08081FA
:10148000282F30E08A81882F90E0A90102C055956D
:1014900047958A95E2F7CA018170EB81FC818083D0
:1014A00027C0E3E3F0E08081282F30E08A81882F95
:1014B00090E0A90102C0559547958A95E2F7CA01C7
:1014C0008170EB81FC81808313C0E0E3F0E08081D8
:1014D000282F30E08A81882F90E0A90102C055951D
:1014E00047958A95E2F7CA018170EB81FC81808380
:1014F00026960FB6F894DEBF0FBECDBFCF91DF9119
:101500000895DF93CF9300D000D0CDB7DEB78983A5
:101510006A838981282F30E03C832B838B819C81D7
:1015200083309105D9F02B813C812430310534F48E
:101530008B819C818230910561F01EC02B813C81A2
:101540002430310581F08B819C818530910581F0BB
:1015500013C0EBE3F0E08A8180830EC0E8E3F0E0A3
:101560008A81808309C0E5E3F0E08A81808304C03A
:10157000E2E3F0E08A8180830F900F900F900F904C
:10158000CF91DF910895DF93CF9300D000D0CDB7F6
:10159000DEB789836A838981282F30E03C832B83DF
:1015A0008B819C8183309105D9F02B813C81243043
:1015B000310534F48B819C818230910561F01EC02D
:1015C0002B813C812430310581F08B819C818530D9
:1015D000910581F013C0EAE3F0E08A8180830EC0B8
:1015E000E7E3F0E08A81808309C0E4E3F0E08A81E8
:1015F000808304C0E1E3F0E08A8180830F900F9044
:101600000F900F90CF91DF910895DF93CF9300D08B
:1016100000D00F92CDB7DEB789837B836A8389813F
:10162000282F30E03D832C838C819D818330910570
:10163000E9F02C813D812430310534F48C819D8189
:101640008230910561F026C02C813D812430310526
:10165000A1F08C819D8185309105B1F01BC0E9E33B
:10166000F0E08081EA81FB81808314C0E6E3F0E052
:101670008081EA81FB8180830DC0E3E3F0E080811B
:10168000EA81FB81808306C0E0E3F0E08081EA81AB
:10169000FB8180830F900F900F900F900F90CF9150
:1016A000DF910895DF93CF93CDB7DEB7AFE5B0E01C
:1016B000EFE5F0E0808180688C93CF91DF91089511
:1016C000DF93CF93CDB7DEB7AFE5B0E0EFE5F0E065
:1016D00080818F778C93CF91DF910895DF93CF93A3
:1016E000CDB7DEB7A2970FB6F894DEBF0FBECDBF61
:1016F00085E68B83CE0104969F8F8E8FE2E4F1E026
:10170000F9A3E8A3F0E1FAA3E8A1F9A1008088A178
:1017100099A1019699A388A3EE8DFF8D00828E8DED
:101720009F8D01969F8F8E8F9AA191509AA3EAA1C7
:10173000EE2351F71A82198281E08C8B1D8A81E099
:101740008E8B82E08F8B83E0888F84E0898F85E0A9
:101750008A8F86E08B8F87E08C8F1A8276C08A8191
:10176000282F30E0CE014596FC01E20FF31F908157
:1017700082E0692F40E00E94F907198251C08981F7
:10178000282F30E0CE014996FC01E20FF31F908133
:101790009E012C5E3F4F82E0692FA9010E94FD0946
:1017A0008C898823D1F58A81282F30E08981482FC0
:1017B00050E0220F331F220F331FCE010196820FFC
:1017C000931F840F951FFC01339680818B8311C07A
:1017D0008981282F30E0CE014996FC01E20FF31FEA
:1017E00090819E012C5E3F4F82E0692FA9010E94EB
:1017F000FD098C89882361F38A81282F30E0CE018E
:101800004596FC01E20FF31F908182E0692F41E0D1
:101810000E94F907FB81FD8F1EC089818F5F89833C
:101820008981843008F4ABCF8A81282F30E0CE0143
:101830004596FC01E20FF31F908182E0692F41E0A1
:101840000E94F9078A818F5F8A838A81843008F435
:1018500086CF8B818D8F8D8DA2960FB6F894DEBFCB
:101860000FBECDBFCF91DF910895DF93CF930F923D
:10187000CDB7DEB71982AAE2B0E0EAE2F0E08081FB
:1018800080618C93AAE2B0E0EAE2F0E080818860B7
:101890008C93898180688983898182608983898129
:1018A00084608983E0E4F0E089818083E9E2F0E00C
:1018B00083E380830F90CF91DF910895DF93CF93DF
:1018C0000F92CDB7DEB78983EBE2F0E0808182959D
:1018D00086958770882F90E0817090700097A1F3B3
:1018E000ECE2F0E0898180830F90CF91DF91089541
:1018F000DF93CF93CDB7DEB7EBE2F0E080818823B2
:10190000DCF7ECE2F0E08081CF91DF910895DF9386
:10191000CF930F92CDB7DEB789838981813041F4AF
:10192000AAE2B0E0EAE2F0E0808180688C930AC02D
:101930008981882339F4AAE2B0E0EAE2F0E080810C
:101940008F778C930F90CF91DF910895DF93CF9392
:1019500000D000D0CDB7DEB79A8389837C836B83B8
:1019600089819A81009761F089819A8190935501CC
:10197000809354018B819C819093530180935201F9
:101980000F900F900F900F90CF91DF9108951F92BD
:101990000F920FB60F9211242F933F934F935F93A3
:1019A0006F937F938F939F93AF93BF93EF93FF9327
:1019B000DF93CF93CDB7DEB780915401909155015D
:1019C000009769F0A0915201B0915301ECE2F0E070
:1019D00080818C93E0915401F09155010995CF914C
:1019E000DF91FF91EF91BF91AF919F918F917F9187
:1019F0006F915F914F913F912F910F900FBE0F907C
:101A00001F901895DF93CF9300D000D0CDB7DEB7ED
:101A10009C838B831A8219820FC029813A818B8122
:101A20009C81FC01E20FF31F80810E945E0C898182
:101A30009A8101969A83898329813A818B819C813D
:101A4000FC01E20FF31F8081882339F70F900F907C
:101A50000F900F90CF91DF9108950F931F93DF9315
:101A6000CF93CDB7DEB727970FB6F894DEBF0FBE82
:101A7000CDBF9F838E831C821B820DC02B813C8136
:101A80008E819F81FC01E20FF31F10828B819C816C
:101A900001969C838B832B813C818E819F81FC01ED
:101AA000E20FF31F8081882349F71A82198219C037
:101AB00029813A818E819F818C01020F131F0E9420
:101AC000780CF801808329813A818E819F81FC0105
:101AD000E20FF31F80818D8389819A8101969A8319
:101AE00089838D818D3021F727960FB6F894DEBF5C
:101AF0000FBECDBFCF91DF911F910F910895DF935E
:101B0000CF93CDB7DEB7C456D0400FB6F894DEBF42
:101B10000FBECDBF84E060E041E00E94FB0884E09E
:101B200061E041E00E94FB0884E062E041E00E9445
:101B3000FB0883E06FEF0E94C30A82E060E041E0AF
:101B40000E94FB0882E061E041E00E94FB0882E025
:101B500062E041E00E94FB0882E063E041E00E9415
:101B6000FB0882E064E040E00E94FB0882E065E060
:101B700040E00E94FB0882E066E040E00E94FB0833
:101B800082E067E040E00E94FB0882E064E041E020
:101B90000E94F90782E065E041E00E94F90782E0D7
:101BA00066E041E00E94F90782E067E041E00E94C0
:101BB000F9070E94DF060E94350C81E08B8F1A8E98
:101BC000198E188E0E94520B81E090E00E94870CC3
:101BD00086E890E12CE631E0B9010E94A60C0E9453
:101BE0006E0B8A8B8DE691E00E9436118E8B898D6B
:101BF0008823F9F08A8D8823E1F49E898D899817CE
:101C0000C1F080E06AE00E94770780E690E00E94E1
:101C1000CE0780E06AE00E9477078DE691E00E949F
:101C2000CE0780E06DE00E9477078BE690E00E948F
:101C3000CE078DE691E00E9436118D8B88E591E00C
:101C40000E9436118C8B898D8823F9F08A8D882328
:101C5000E1F49C898B899817C1F081E06AE00E94C9
:101C6000770780E690E00E94CE0781E06AE00E945C
:101C7000770788E591E00E94CE0781E06DE00E9441
:101C800077078DE690E00E94CE0788E591E00E94FC
:101C900036118B8B8A89863609F0B6C0A5961FAEA1
:101CA000A597898D882321F421E0A5962FAFA597CC
:101CB000A5963FADA597398F80E090E0A0EFB1E405
:101CC0008B879C87AD87BE876B857C858D859E8540
:101CD00020E030E04AEF54E40E941F02DC01CB0117
:101CE0008F839887A987BA876F81788589859A8538
:101CF00020E030E040E85FE30E94790388232CF481
:101D000081E090E09E838D833FC06F8178858985D7
:101D10009A8520E03FEF4FE757E40E941903181619
:101D20004CF56B857C858D859E8520E030E040E21A
:101D300051E40E941F02DC01CB01BC01CD010E94D5
:101D40004900DC01CB019E838D830FC088EC90E0BD
:101D50009C838B838B819C810197F1F79C838B8380
:101D60008D819E8101979E838D838D819E810097B9
:101D700069F714C06F81788589859A850E9449002A
:101D8000DC01CB019E838D838D819E819A83898323
:101D900089819A810197F1F79A8389838FE690E090
:101DA0000E94020D188E1A8E898D813059F50E947D
:101DB0006D0780E060E00E94770782E790E00E9474
:101DC000CE078DE691E00E94CE0780E06DE00E9494
:101DD00077078BE690E00E94CE0781E060E00E94EA
:101DE00077078DE790E00E94CE0788E591E00E949A
:101DF000CE0781E06DE00E9477078DE690E00E94BB
:101E0000CE0702C00E946D078A89853609F4E7CEA5
:101E1000898D813009F0A4C08A89282F30E0A496EA
:101E20003FAF2EAFA497A4968EAD9FADA4978836F2
:101E30009105E9F1A4962EAD3FADA4972936310561
:101E40004CF4A4968EAD9FADA4978136910509F40C
:101E50004BC084C0A4962EAD3FADA497203731056A
:101E600009F45FC0A4968EAD9FADA4978437910509
:101E700009F074C081E08A8F188E0E946D0788E88F
:101E800090E00E94CE07CE014C960E945D108A8998
:101E90008C8F81E08B8F82E38F8BCE01869622E937
:101EA00030E0B9014FE050E00E94541159C081E088
:101EB0008A8F188E0E946D0781EA90E00E94CE07FB
:101EC000CE014C960E945D108A898C8F81E08B8FA9
:101ED00084E68F8BCE0186962FEA30E0B90140E18F
:101EE00050E00E9454113CC081E08A8F188E0E94FD
:101EF0006D078FEB90E00E94CE07CE014C960E94BA
:101F00005D108A898C8F81E08B8F8CE38F8BCE0163
:101F100086962AEC30E0B9014FE050E00E9454115F
:101F20001FC081E08A8F188E0E946D0789ED90E0B6
:101F30000E94CE07CE014C960E945D108A898C8F3C
:101F400081E08B8F88E18F8BCE01869624EE30E086
:101F5000B9014FE050E00E94541102C081E0888F27
:101F60008A8D813009F076C0898D813009F072C088
:101F7000888D813009F06EC08B8D882319F08A8995
:101F80000E9441068B8D282F30E0CE014C96FC013B
:101F9000E20FF31F8A8980838B8D8F5F8B8F8A89F5
:101FA0008D3009F01CCECE014C960196998B888B12
:101FB000CE01885A9F4F28893989B9010E945D1145
:101FC000CE01885A9F4F0E9436118F879F858F8937
:101FD000891790F18B8D833020F0CE014C960E94B2
:101FE000020D0E946D0780E060E00E94770782E7A3
:101FF00090E00E94CE078DE691E00E94CE0780E03F
:102000006DE00E9477078BE690E00E94CE0781E0AA
:1020100060E00E9477078DE790E00E94CE0788E598
:1020200091E00E94CE0781E06DE00E9477078DE687
:1020300090E00E94CE0706C00E946D07CE018696F2
:102040000E94CE071A8E81E08B8FCE014C960E94A3
:102050005D10C5CD8A898D3009F0C1CD898D813063
:1020600009F0BDCD0E946D0780E060E00E94770717
:1020700082E790E00E94CE078DE691E00E94CE07B5
:1020800080E06DE00E9477078BE690E00E94CE072B
:1020900081E060E00E9477078DE790E00E94CE0724
:1020A00088E591E00E94CE0781E06DE00E9477070D
:1020B0008DE690E00E94CE0792CDDF93CF9300D0C3
:1020C00000D0CDB7DEB79C838B831A8219820DC0F6
:1020D00029813A818B819C81FC01E20FF31F1082E0
:1020E00089819A8101969A83898329813A818B819A
:1020F0009C81FC01E20FF31F8081882349F70F9038
:102100000F900F900F90CF91DF910895DF93CF93B1
:1021100000D000D0CDB7DEB780916C018D3081F05A
:1021200080915701882F90E020916C01FC01EE59BD
:10213000FE4F2083809157018F5F8093570158C0D5
:1021400080916C018D3009F053C01092570180913D
:102150006201883619F588E591E00E945D101C82C5
:102160001B8212C02B813C818B819C810196FC01DA
:10217000EE59FE4F8081F901E85AFE4F80838B8132
:102180009C8101969C838B838B819C810196FC01B1
:10219000EE59FE4F8081882329F726C08091620185
:1021A000843711F58DE691E00E945D101A82198244
:1021B00012C029813A8189819A810196FC01EE59E8
:1021C000FE4F8081F901E359FE4F808389819A8116
:1021D00001969A83898389819A810196FC01EE593F
:1021E000FE4F8081882329F782E691E00E945D10EE
:1021F0000F900F900F900F90CF91DF9108952F9235
:102200003F924F925F926F927F928F929F92AF9286
:10221000BF92CF92DF92EF92FF920F931F93CF93D3
:10222000DF93CDB7DEB7CA1BDB0B0FB6F894DEBF6A
:102230000FBECDBF09942A88398848885F846E8490
:102240007D848C849B84AA84B984C884DF80EE80DA
:10225000FD800C811B81AA81B981CE0FD11D0FB6E3
:10226000F894DEBF0FBECDBFED010895FC018827B5
:102270009927E89421912032E9F3293010F02E308B
:10228000C8F32B3241F02D3239F4689404C00E9417
:102290006411820F911D219120532A30C0F31EF446
:1022A000909581959F4F0895FB01DC0102C001903C
:1022B0000D9241505040D8F70895FB01DC01019088
:1022C0000D920020E1F708957AE0979F902D879F67
:0C22D000802D910D11240895F894FFCF8B
:1022DC0020202020202020202020004300250066E4
:1022EC000D0054656D70657261743A200048756D0F
:1022FC0069646974793A20005365742054656D7073
:10230C003A006D61782076616C7565203A20353025
:10231C00005365742068756D69646974793A006D51
:10232C0061782076616C7565203A2031303000532D
:10233C00657420416E676C653A006D61782076613A
:10234C006C7565203A2036300053657420506572E8
:10235C00696F3A006D61782076616C7565203A2062
:10236C0032340000000000000000000000000000FB
:10237C000000000000000000000000000000000051
:10238C000000000000000000000000000000000041
:10239C000000000000000000000000000000000031
:1023AC000000000000000000000000000000000021
:1023BC000001373839743435366831323361663060
:0223CC000D7092
:00000001FF
