:100000000C942A000C9447000C9447000C94470071
:100010000C9447000C9447000C9447000C94470044
:100020000C9447000C9447000C941D0B0C94470053
:100030000C9447000C9447000C9447000C94470024
:100040000C9447000C9447000C9447000C94470014
:100050000C94470011241FBECFE5D8E0DEBFCDBF12
:1000600010E0A8E6B0E001C01D92AA36B107E1F7A2
:1000700010E0A0E6B0E0E2E4FCE102C005900D92E1
:10008000A836B107D9F70E94460C0C941F0E0C94A9
:100090000000EF92FF920F931F937B018C0120E0F1
:1000A00030E040E05FE40E94F50388238CF0C80153
:1000B000B70120E030E040E05FE40E94C1010E940F
:1000C00055049B01AC01205030404040504806C0D0
:1000D000C801B7010E9455049B01AC01B901CA01D6
:1000E0001F910F91FF90EF900895A0E0B0E0EBE733
:1000F000F0E00C94E80DDC012B01FA019C919230A8
:1001000008F439C1EB018881823008F433C194309E
:1001100069F4843009F02FC111969C91119789815F
:10012000981709F428C1A0E6B0E025C1843009F48D
:1001300021C18230A9F4923009F01DC19A01AD01AC
:1001400088E0EA010990AE01E90109929E0181501F
:10015000C1F7E201898111969C918923818308C1AD
:10016000923009F407C112962D903C901397EB0141
:100170008A819B811496AD90BD90CD90DC901797AD
:10018000EC80FD800E811F819101281B390BB90184
:1001900037FF04C066277727621B730B6032710537
:1001A0000CF061C0121613066CF537014801062EDB
:1001B00004C096948794779467940A94D2F721E0C8
:1001C00030E040E050E004C0220F331F441F551FB1
:1001D0006A95D2F721503040404050402E213F21B7
:1001E00040235123211531054105510521F021E01E
:1001F00030E040E050E079018A01E628F72808293C
:1002000019293CC0232BD1F1260E371E350146019A
:10021000062E04C096948794779467940A94D2F734
:1002200021E030E040E050E004C0220F331F441FC3
:10023000551F6A95D2F721503040404050402A2146
:100240003B214C215D21211531054105510521F04E
:1002500021E030E040E050E059016A01A628B728CB
:10026000C828D9280BC0821593052CF01C01AA249C
:10027000BB24650103C0EE24FF24870111969C91E5
:10028000D20111968C91981709F445C0992339F041
:10029000A80197012A193B094C095D0906C0A6016E
:1002A00095012E193F09400B510B57FD08C01182D3
:1002B0003382228224833583468357831DC081E0A5
:1002C00081833382228288279927DC01821B930B4A
:1002D000A40BB50B84839583A683B7830DC0220F2F
:1002E000331F441F551F24833583468357838281E0
:1002F000938101979383828324813581468157813D
:10030000DA01C9010197A109B1098F5F9F4FAF4F72
:10031000BF4328F30BC0918333822282EA0CFB1C7B
:100320000C1D1D1DE482F5820683178383E0808304
:10033000248135814681578157FF1AC0C901AA27F8
:1003400097FDA095BA2F81709070A070B0705695EF
:10035000479537952795822B932BA42BB52B848318
:100360009583A683B7838281938101969383828349
:10037000DF0101C0D201CD01CDB7DEB7E2E10C94BF
:10038000040EA0E2B0E0E7ECF1E00C94F40D698318
:100390007A838B839C832D833E834F835887E9E048
:1003A000EE2EF12CEC0EFD1ECE010196B7010E943F
:1003B0007E058E010F5E1F4FCE010596B8010E948B
:1003C0007E058A8991E089278A8BC701B801AE0131
:1003D000475E5F4F0E9475000E94A904A096E6E068
:1003E0000C94100EA0E2B0E0E8EFF1E00C94F40DF4
:1003F00069837A838B839C832D833E834F835887C5
:10040000F9E0EF2EF12CEC0EFD1ECE010196B701A6
:100410000E947E058E010F5E1F4FCE010596B8012A
:100420000E947E05C701B801AE01475E5F4F0E9482
:1004300075000E94A904A096E6E00C94100EA0E2BC
:10044000B0E0E5E2F2E00C94E80D69837A838B83F7
:100450009C832D833E834F835887CE010196BE0136
:10046000675F7F4F0E947E05CE010596BE016F5EDD
:100470007F4F0E947E059985923088F0898982306D
:10048000C8F0943019F4823051F404C0843029F457
:10049000923081F480E690E0C6C0923049F420E0CA
:1004A0009A858A89981321E02A87CE010996BBC0D4
:1004B000823049F420E09A858A89981321E02A8BBA
:1004C000CE014196B0C02D843E844F8458886D88FB
:1004D0007E888F88988CEE24FF248701AA24BB2471
:1004E000650140E050E060E070E0E0E0F0E0C10174
:1004F00081709070892BE9F0E60CF71C081D191D1E
:100500009A01AB012A0D3B1D4C1D5D1D80E090E062
:10051000A0E0B0E0E614F7040805190520F481E036
:1005200090E0A0E0B0E0BA01A901480F591F6A1F8E
:100530007B1FAA0CBB1CCC1CDD1C97FE08C081E0F5
:1005400090E0A0E0B0E0A82AB92ACA2ADB2A3196B6
:10055000E032F10549F0660C771C881C991C569412
:10056000479437942794C3CFFA85EA892B893C892D
:100570008B859C85280F391F2E5F3F4F17C0CA01FE
:1005800081709070892B61F016950795F794E79428
:1005900080E090E0A0E0B0E8E82AF92A0A2B1B2BC3
:1005A00076956795579547952F5F3F4F77FDE7CF36
:1005B0000CC0440F551F661F771F17FD4160EE0CDE
:1005C000FF1C001F111F21503040403090E05907A0
:1005D00090E0690790E4790760F32B8F3C8FDB0193
:1005E000CA018F779070A070B07080349105A1051A
:1005F000B10561F447FD0AC0E114F10401051105DC
:1006000029F0405C5F4F6F4F7F4F40781A8EFE1786
:1006100011F081E08A8F4D8F5E8F6F8F78A383E01A
:10062000898FCE0149960E94A904A096E2E10C941C
:10063000040EA8E1B0E0EFE1F3E00C94F00D698363
:100640007A838B839C832D833E834F835887B9E0C5
:10065000EB2EF12CEC0EFD1ECE010196B7010E948F
:100660007E058E010F5E1F4FCE010596B8010E94D8
:100670007E052985223008F47EC03989323010F495
:10068000B8017CC08A859A8989278A87243011F02D
:10069000223031F4231709F06EC060E670E06EC0BE
:1006A000343039F41D861E861F86188A1C861B86E8
:1006B00004C0323021F484E08987B7015FC02B8504
:1006C0003C858B899C89281B390B3C872B87ED84C3
:1006D000FE840F851889AD88BE88CF88D88CEA142F
:1006E000FB040C051D0540F4EE0CFF1C001F111F40
:1006F000215030403C872B8720E030E040E050E044
:1007000080E090E0A0E0B0E460E070E0EA14FB0478
:100710000C051D0540F0282B392B4A2B5B2BEA18C2
:10072000FB080C091D09B695A79597958795EE0CC2
:10073000FF1C001F111F6F5F7F4F6F31710531F775
:10074000DA01C9018F779070A070B0708034910584
:10075000A105B10561F427FD0AC0E114F10401050A
:10076000110529F0205C3F4F4F4F5F4F20782D87B8
:100770003E874F87588BBE01675F7F4FCB010E943A
:10078000A9046896EAE00C940C0EA8E1B0E0EBEC4A
:10079000F3E00C94F40D69837A838B839C832D831F
:1007A0003E834F83588789E0E82EF12CEC0EFD1E26
:1007B000CE010196B7010E947E058E010F5E1F4F8C
:1007C000CE010596B8010E947E058985823040F0F1
:1007D0008989823028F0C701B8010E94F60501C05E
:1007E0008FEF6896E6E00C94100EA8E1B0E0EBEF16
:1007F000F3E00C94F40D69837A838B839C832D83BF
:100800003E834F83588789E0E82EF12CEC0EFD1EC5
:10081000CE010196B7010E947E058E010F5E1F4F2B
:10082000CE010596B8010E947E058985823040F090
:100830008989823028F0C701B8010E94F60501C0FD
:100840008FEF6896E6E00C94100EA8E1B0E0EBE2C2
:10085000F4E00C94F40D69837A838B839C832D835D
:100860003E834F83588789E0E82EF12CEC0EFD1E65
:10087000CE010196B7010E947E058E010F5E1F4FCB
:10088000CE010596B8010E947E058985823040F030
:100890008989823028F0C701B8010E94F60501C09D
:1008A00081E06896E6E00C94100EACE0B0E0EBE579
:1008B000F4E00C94F80D69837A838B839C83CE01DA
:1008C0000196BE016B5F7F4F0E947E058D81823055
:1008D00061F1823050F1843021F48E81882351F10E
:1008E0002EC02F81388537FD20C06E812F31310514
:1008F0001CF06623F9F023C08EE190E0821B930B7D
:1009000029853A854B855C8504C056954795379572
:1009100027958A95D2F76623B1F05095409530958A
:1009200021953F4F4F4F5F4F0EC020E030E040E039
:1009300050E009C02FEF3FEF4FEF5FE704C020E02A
:1009400030E040E050E8B901CA012C96E2E00C9496
:10095000140EDF92EF92FF920F931F93FC01E4803D
:10096000F58006811781D1808081823048F480E053
:1009700090E0A0E1B0E0E82AF92A0A2B1B2BA5C0E1
:10098000843009F49FC0823021F4EE24FF248701D3
:1009900005C0E114F1040105110519F4E0E0F0E0EF
:1009A00096C0628173819FEF623879070CF05BC05B
:1009B00022E83FEF261B370B2A3131052CF020E0CF
:1009C00030E040E050E02AC0B801A701022E04C088
:1009D00076956795579547950A94D2F781E090E010
:1009E000A0E0B0E004C0880F991FAA1FBB1F2A9582
:1009F000D2F70197A109B1098E219F21A023B1232C
:100A00000097A105B10521F081E090E0A0E0B0E001
:100A10009A01AB01282B392B4A2B5B2BDA01C90138
:100A20008F779070A070B07080349105A105B105EA
:100A300039F427FF09C0205C3F4F4F4F5F4F04C080
:100A4000215C3F4F4F4F5F4FE0E0F0E02030A0E0EF
:100A50003A07A0E04A07A0E45A0710F0E1E0F0E00E
:100A600079018A0127C06038710564F5FB01E158FE
:100A7000FF4FD801C7018F779070A070B07080349D
:100A80009105A105B10539F4E7FE0DC080E490E0C1
:100A9000A0E0B0E004C08FE390E0A0E0B0E0E80E9A
:100AA000F91E0A1F1B1F17FF05C016950795F7941F
:100AB000E794319687E016950795F794E7948A9521
:100AC000D1F705C0EE24FF248701EFEFF0E06E2F91
:100AD000679566276795902F9F77D794DD24D794E5
:100AE0008E2F8695492F462B582F5D29B701CA01B5
:100AF0001F910F91FF90EF90DF900895FC01DB01B3
:100B0000408151812281622F6F7770E0221F22275E
:100B1000221F9381892F880F822B282F30E0991F65
:100B20009927991F11969C93119721153105A9F5C5
:100B3000411551056105710511F482E037C082E865
:100B40009FEF13969C938E9312979A01AB0167E0E7
:100B5000220F331F441F551F6A95D1F783E08C93F2
:100B60000DC0220F331F441F551F12968D919C916B
:100B70001397019713969C938E931297203080E0E1
:100B8000380780E0480780E4580758F314962D93FF
:100B90003D934D935C93179708952F3F310579F45A
:100BA000411551056105710519F484E08C93089590
:100BB00064FF03C081E08C9312C01C9210C02F57B9
:100BC000304013963C932E93129783E08C9387E0EA
:100BD000440F551F661F771F8A95D1F770641496CE
:100BE0004D935D936D937C93179708951F93DC014C
:100BF000FB019C91923008F447C08081823008F458
:100C000043C0943051F411961C91843099F5818140
:100C1000682F70E0611B71093FC0843021F0923071
:100C200031F48230B9F18181882389F12DC0119688
:100C30001C9111978230F1F081811817D9F4129626
:100C40002D913C911397828193818217930794F0A1
:100C500028173907BCF014968D919D910D90BC9189
:100C6000A02D2481358146815781281739074A07ED
:100C70005B0718F4112341F00AC082179307A407F9
:100C8000B50740F4112319F061E070E005C06FEF83
:100C90007FEF02C060E070E0CB011F910895DF9309
:100CA000CF93CDB7DEB7A7E2B0E0E7E2F0E0808116
:100CB00080648C93A7E2B0E0E7E2F0E080818F7778
:100CC0008C93A7E2B0E0E7E2F0E0808180628C9351
:100CD000A6E2B0E0E6E2F0E0808184608C93A6E2D8
:100CE000B0E0E6E2F0E0808182608C93A6E2B0E0C2
:100CF000E6E2F0E0808181608C93A6E2B0E0E6E27B
:100D0000F0E0808180688C93CF91DF910895DF932C
:100D1000CF9300D00F92CDB7DEB78B831A821982A2
:100D2000A7E2B0E0E7E2F0E08081807E8C93A7E26A
:100D3000B0E0E7E2F0E090818B81892B8C93A6E212
:100D4000B0E0E6E2F0E0808180648C93E6E2F0E0DF
:100D5000808182958F70882F90E0817090700097CD
:100D600031F489819A812EE48032920778F3898167
:100D70009A8101969A838983A6E2B0E0E6E2F0E0E8
:100D8000808180618C93E5E2F0E080810F900F908C
:100D90000F90CF91DF910895AF92BF92CF92DF92E3
:100DA000EF92FF920F931F93DF93CF93CDB7DEB7F0
:100DB00064970FB6F894DEBF0FBECDBF6D837E8300
:100DC0008F83988729873A874B875C87ED86FE86D5
:100DD0000F87188BA98ABA8ACB8ADC8A29A13AA103
:100DE0004BA15CA189859A85AB85BC8579018A0177
:100DF000E81AF90A0A0B1B0BD801C70189839A83E9
:100E0000AB83BC832D853E854F85588989899A8916
:100E1000AB89BC89281B390B4A0B5B0B89819A81F2
:100E2000AB81BC81BC01CD010E948C0DDC01CB01EA
:100E300089839A83AB83BC832D813E814F81588502
:100E400089859A85AB85BC85281B390B4A0B5B0BC2
:100E500089819A81AB81BC81BC01CD010E94AB0D1F
:100E6000DA01C90189839A83AB83BC8329813A81E2
:100E70004B815C8189899A89AB89BC89820F931FD8
:100E8000A41FB51F89839A83AB83BC8389819A8110
:100E9000AB81BC81BC01CD0164960FB6F894DEBF76
:100EA0000FBECDBFCF91DF911F910F91FF90EF90BB
:100EB000DF90CF90BF90AF900895DF93CF93CDB7E1
:100EC000DEB727970FB6F894DEBF0FBECDBF89837C
:100ED0006A834B838B81813009F070C08981282F10
:100EE00030E03F832E838E819F818330910551F1C5
:100EF0002E813F812430310534F48E819F818230F0
:100F0000910561F0D3C02E813F812430310571F10C
:100F10008E819F8185309105E9F1C8C0ABE3B0E0D7
:100F2000EBE3F0E08081482F8A81282F30E081E0D8
:100F300090E0022E02C0880F991F0A94E2F7842BDA
:100F40008C93B4C0A8E3B0E0E8E3F0E08081482FE0
:100F50008A81282F30E081E090E0022E02C0880FC5
:100F6000991F0A94E2F7842B8C93A0C0A5E3B0E00C
:100F7000E5E3F0E08081482F8A81282F30E081E08E
:100F800090E0022E02C0880F991F0A94E2F7842B8A
:100F90008C938CC0A2E3B0E0E2E3F0E08081482FC4
:100FA0008A81282F30E081E090E0022E02C0880F75
:100FB000991F0A94E2F7842B8C9378C08B81882345
:100FC00009F074C08981282F30E03D832C838C8107
:100FD0009D818330910561F12C813D812430310563
:100FE00034F48C819D818230910569F05FC02C8141
:100FF0003D812430310589F18C819D8185309105B9
:1010000009F440C053C0ABE3B0E0EBE3F0E0808113
:10101000482F8A81282F30E081E090E0022E02C024
:10102000880F991F0A94E2F7809584238C933EC021
:10103000A8E3B0E0E8E3F0E08081482F8A81282F20
:1010400030E081E090E0022E02C0880F991F0A94E0
:10105000E2F7809584238C9329C0A5E3B0E0E5E313
:10106000F0E08081482F8A81282F30E081E090E0F5
:10107000022E02C0880F991F0A94E2F780958423FC
:101080008C9314C0A2E3B0E0E2E3F0E08081482F4B
:101090008A81282F30E081E090E0022E02C0880F84
:1010A000991F0A94E2F7809584238C9327960FB6B4
:1010B000F894DEBF0FBECDBFCF91DF910895DF93CF
:1010C000CF93CDB7DEB727970FB6F894DEBF0FBE2C
:1010D000CDBF89836A834B838B81882309F075C0D8
:1010E0008981282F30E03F832E838E819F8183303A
:1010F000910561F12E813F812430310534F48E81D8
:101100009F818230910569F0D3C02E813F812430C8
:10111000310589F18E819F818530910509F440C0A8
:10112000C7C0AAE3B0E0EAE3F0E08081482F8A81FB
:10113000282F30E081E090E0022E02C0880F991F36
:101140000A94E2F7809584238C93B2C0A7E3B0E0C1
:10115000E7E3F0E08081482F8A81282F30E081E0AA
:1011600090E0022E02C0880F991F0A94E2F7809542
:1011700084238C939DC0A4E3B0E0E4E3F0E080819D
:10118000482F8A81282F30E081E090E0022E02C0B3
:10119000880F991F0A94E2F7809584238C9388C066
:1011A000A1E3B0E0E1E3F0E08081482F8A81282FBD
:1011B00030E081E090E0022E02C0880F991F0A946F
:1011C000E2F7809584238C9373C08B81813009F082
:1011D0006FC08981282F30E03D832C838C819D81D5
:1011E0008330910551F12C813D812430310534F457
:1011F0008C819D818230910561F05AC02C813D81A6
:101200002430310571F18C819D8185309105E9F1A2
:101210004FC0AAE3B0E0EAE3F0E08081482F8A8182
:10122000282F30E081E090E0022E02C0880F991F45
:101230000A94E2F7842B8C933BC0A7E3B0E0E7E38A
:10124000F0E08081482F8A81282F30E081E090E013
:10125000022E02C0880F991F0A94E2F7842B8C9308
:1012600027C0A4E3B0E0E4E3F0E08081482F8A8166
:10127000282F30E081E090E0022E02C0880F991FF5
:101280000A94E2F7842B8C9313C0A1E3B0E0E1E36E
:10129000F0E08081482F8A81282F30E081E090E0C3
:1012A000022E02C0880F991F0A94E2F7842B8C93B8
:1012B00027960FB6F894DEBF0FBECDBFCF91DF915A
:1012C0000895DF93CF9300D000D000D0CDB7DEB724
:1012D00089836A835C834B838981282F30E03E8336
:1012E0002D834D815E814330510559F18D819E8161
:1012F0008430910534F42D813E812230310569F02E
:101300005BC04D815E814430510579F18D819E81B4
:101310008530910509F43DC04FC0E9E3F0E08081DC
:10132000282F30E08A81882F90E0A90102C05595CE
:1013300047958A95E2F7CA018170EB81FC81808331
:101340003BC0E6E3F0E08081282F30E08A81882FDF
:1013500090E0A90102C0559547958A95E2F7CA0128
:101360008170EB81FC81808327C0E3E3F0E0808122
:10137000282F30E08A81882F90E0A90102C055957E
:1013800047958A95E2F7CA018170EB81FC818083E1
:1013900013C0E0E3F0E08081282F30E08A81882FBD
:1013A00090E0A90102C0559547958A95E2F7CA01D8
:1013B0008170EB81FC81808326960FB6F894DEBFA6
:1013C0000FBECDBFCF91DF910895DF93CF9300D0B3
:1013D00000D0CDB7DEB789836A838981282F30E0BA
:1013E0003C832B838B819C8183309105D9F02B81A9
:1013F0003C812430310534F48B819C81823091050D
:1014000061F01EC02B813C812430310581F08B813D
:101410009C818530910581F013C0EBE3F0E08A8177
:1014200080830EC0E8E3F0E08A81808309C0E5E3B1
:10143000F0E08A81808304C0E2E3F0E08A81808367
:101440000F900F900F900F90CF91DF910895DF9341
:10145000CF9300D000D0CDB7DEB789836A8389816E
:10146000282F30E03C832B838B819C818330910536
:10147000D9F02B813C812430310534F48B819C815F
:101480008230910561F01EC02B813C8124303105F2
:1014900081F08B819C818530910581F013C0EAE356
:1014A000F0E08A8180830EC0E7E3F0E08A818083E8
:1014B00009C0E4E3F0E08A81808304C0E1E3F0E066
:1014C0008A8180830F900F900F900F90CF91DF91C2
:1014D0000895DF93CF9300D000D00F92CDB7DEB741
:1014E00089837B836A838981282F30E03D832C8325
:1014F0008C819D8183309105E9F02C813D812430E0
:10150000310534F48C819D818230910561F026C0D3
:101510002C813D8124303105A1F08C819D81853065
:101520009105B1F01BC0E9E3F0E08081EA81FB8125
:10153000808314C0E6E3F0E08081EA81FB81808350
:101540000DC0E3E3F0E08081EA81FB81808306C087
:10155000E0E3F0E08081EA81FB8180830F900F90CF
:101560000F900F900F90CF91DF910895DF93CF935D
:10157000CDB7DEB7AFE5B0E0EFE5F0E080818068A1
:101580008C93CF91DF910895DF93CF93CDB7DEB7E2
:10159000AFE5B0E0EFE5F0E080818F778C93CF91FD
:1015A000DF910895DF93CF93CDB7DEB7A3E5B0E029
:1015B000E3E5F0E080818F7B8C93A3E5B0E0E3E589
:1015C000F0E0808188608C93A9E5B0E0E9E5F0E087
:1015D000808182608C93ECE5F0E08AEF8083A3E564
:1015E000B0E0E3E5F0E0808181608C93A3E5B0E0BA
:1015F000E3E5F0E080818D7F8C93A3E5B0E0E3E547
:10160000F0E0808184608C93CF91DF910895DF9327
:10161000CF9300D0CDB7DEB79A83898389819A8131
:10162000009731F089819A819093690080936800D6
:101630000F900F90CF91DF9108951F920F920FB6E8
:101640000F9211242F933F934F935F936F937F9348
:101650008F939F93AF93BF93EF93FF93DF93CF93BA
:10166000CDB7DEB78091680090916900009729F0AE
:10167000E0916800F09169000995CF91DF91FF91A9
:10168000EF91BF91AF919F918F917F916F915F91FA
:101690004F913F912F910F900FBE0F901F90189573
:1016A000DF93CF93CDB7DEB7A3E5B0E0E3E5F0E09D
:1016B000808180648C93A3E5B0E0E3E5F0E0808175
:1016C00088608C93A9E5B0E0E9E5F0E080818D7F4A
:1016D0008C93A3E5B0E0E3E5F0E0808180628C9339
:1016E000A3E5B0E0E3E5F0E080818F7E8C93A3E595
:1016F000B0E0E3E5F0E0808181608C93A3E5B0E0A9
:10170000E3E5F0E0808182608C93A3E5B0E0E3E55F
:10171000F0E080818B7F8C93CF91DF910895DF93F0
:10172000CF930F92CDB7DEB78983ECE5F0E08981E6
:1017300080830F90CF91DF910895DF93CF93CDB742
:10174000DEB7A3E5B0E0E3E5F0E0808180648C9350
:10175000A3E5B0E0E3E5F0E08081877F8C93A9E525
:10176000B0E0E9E5F0E080818D7F8C93A3E5B0E007
:10177000E3E5F0E0808180628C93A3E5B0E0E3E5EF
:10178000F0E080818F7E8C93A3E5B0E0E3E5F0E0AC
:10179000808181608C93A3E5B0E0E3E5F0E0808197
:1017A00082608C93A3E5B0E0E3E5F0E080818B7F7D
:1017B0008C93CF91DF910895DF93CF93CDB7DEB7B0
:1017C000AFE4B0E0EFE4F0E0808180688C93AFE4B8
:1017D000B0E0EFE4F0E080818F7B8C93AFE4B0E089
:1017E000EFE4F0E080818E7F8C93AFE4B0E0EFE433
:1017F000F0E0808182608C93AEE4B0E0EEE4F0E053
:10180000808188608C93AEE4B0E0EEE4F0E080810B
:1018100080618C93AEE4B0E0EEE4F0E080818E7FF6
:101820008C93AEE4B0E0EEE4F0E0808182608C93D3
:10183000AEE4B0E0EEE4F0E080818B7F8C93CF915A
:10184000DF910895DF93CF9300D0CDB7DEB79A83B1
:101850008983E6E4F0E089819A81918380830F9007
:101860000F90CF91DF910895DF93CF9300D0CDB744
:10187000DEB79A838983EAE4F0E089819A819183D3
:1018800080830F900F90CF91DF910895DF93CF93D6
:10189000CDB7DEB768970FB6F894DEBF0FBECDBFE9
:1018A00082E060E040E00E945F0885E065E041E0A2
:1018B0000E945F080E944F060E94DC0B0E94C40A2F
:1018C00080E29EE40E94220C0E94250D80E090E8B8
:1018D000ABE3B5E48D8B9E8BAF8BB88F6D897E8922
:1018E0008F89988D2BEA3AEA4AE250E40E941F025F
:1018F000DC01CB01898B9A8BAB8BBC8B69897A8994
:101900008B899C8920E030E040E85FE30E94250459
:1019100088231CF481E0888B91C069897A898B893E
:101920009C8920E030E04FE753E40E94C50318167D
:101930000CF07BC06D897E898F89988D20E030E026
:101940004AE754E40E941903DC01CB018C879D8790
:10195000AE87BF876C857D858E859F8520E030E0D2
:101960004AEF54E40E941F02DC01CB01888799876B
:10197000AA87BB87688579858A859B8520E030E0CA
:1019800040E85FE30E94250488232CF481E090E086
:101990009F838E833FC0688579858A859B8520E0FB
:1019A0003FEF4FE757E40E94C50318164CF56C85CE
:1019B0007D858E859F8520E030E040E251E40E94E5
:1019C0001F02DC01CB01BC01CD010E944900DC01FA
:1019D000CB019F838E830FC088EC90E09D838C8326
:1019E0008C819D810197F1F79D838C838E819F81EE
:1019F00001979F838E838E819F81009769F764CFC3
:101A0000688579858A859B850E944900DC01CB0128
:101A10009F838E838E819F819B838A838A819B8112
:101A20000197F1F79B838A834FCF69897A898B89E4
:101A30009C890E944900DC01CB01888B88898983BD
:101A400089818A95F1F789833FCFAF92BF92CF9278
:101A5000DF92EF92FF920F931F93DF93CF93CDB757
:101A6000DEB728970FB6F894DEBF0FBECDBF80E07B
:101A70000E948706882F90E0A0E0B0E08D839E83CF
:101A8000AF83B88700D000D0EDB7FEB731968D8117
:101A90009E81AF81B88580839183A283B38360E008
:101AA00070E080E090E02FEF30E040E050E00F2E5B
:101AB000F8EEEF2EF3E0FF2EF0E00F2FF0E01F2FF7
:101AC000F02D0F2EF0EDAF2EF7E0BF2EF0E0CF2E71
:101AD000F0E0DF2EF02D0E94CC060F900F900F90BB
:101AE0000F90DC01CB0189839A83AB83BC8389810E
:101AF0009A810E94340C28960FB6F894DEBF0FBE70
:101B0000CDBFCF91DF911F910F91FF90EF90DF90AC
:101B1000CF90BF90AF900895629FD001739FF00166
:101B2000829FE00DF11D649FE00DF11D929FF00D6D
:101B3000839FF00D749FF00D659FF00D9927729FA4
:101B4000B00DE11DF91F639FB00DE11DF91FBD012F
:101B5000CF011124089597FB092E05260ED057FDBD
:101B600004D014D00AD0001C38F45095409530951C
:101B700021953F4F4F4F5F4F0895F6F79095809511
:101B8000709561957F4F8F4F9F4F0895A1E21A2E58
:101B9000AA1BBB1BFD010DC0AA1FBB1FEE1FFF1F11
:101BA000A217B307E407F50720F0A21BB30BE40B61
:101BB000F50B661F771F881F991F1A9469F76095A8
:101BC0007095809590959B01AC01BD01CF01089562
:101BD0002F923F924F925F926F927F928F929F923D
:101BE000AF92BF92CF92DF92EF92FF920F931F932B
:101BF000CF93DF93CDB7DEB7CA1BDB0B0FB6F894DC
:101C0000DEBF0FBECDBF09942A88398848885F841B
:101C10006E847D848C849B84AA84B984C884DF808C
:101C2000EE80FD800C811B81AA81B981CE0FD11D70
:101C30000FB6F894DEBF0FBECDBFED010895F89446
:021C4000FFCFD4
:081C420000000000000000009A
:00000001FF
