:100000000C942A000C9447000C9447000C94470071
:100010000C9447000C9447000C9447000C94470044
:100020000C9447000C9447000C94C70E0C944700A6
:100030000C9447000C9453110C9447000C94470007
:100040000C9447000C9447000C9447000C94470014
:100050000C94470011241FBECFE5D8E0DEBFCDBF12
:1000600011E0A0E6B0E0E6E4F1E402C005900D92F4
:10007000AE37B107D9F711E0AEE7B1E001C01D928C
:10008000A73AB107E1F70E947E120C94A1200C94CC
:100090000000EF92FF920F931F937B018C0120E0F1
:1000A00030E040E05FE40E94250488238CF0C80122
:1000B000B70120E030E040E05FE40E94C1010E940F
:1000C000E3049B01AC01205030404040504806C042
:1000D000C801B7010E94E3049B01AC01B901CA0148
:1000E0001F910F91FF90EF900895A0E0B0E0EBE733
:1000F000F0E00C94A31DDC012B01FA019C919230DD
:1001000008F439C1EB018881823008F433C194309E
:1001100069F4843009F02FC111969C91119789815F
:10012000981709F428C1AAE6B0E025C1843009F483
:1001300021C18230A9F4923009F01DC19A01AD01AC
:1001400088E0EA010990AE01E90109929E0181501F
:10015000C1F7E201898111969C918923818308C1AD
:10016000923009F407C112962D903C901397EB0141
:100170008A819B811496AD90BD90CD90DC901797AD
:10018000EC80FD800E811F819101281B390BB90184
:1001900037FF04C066277727621B730B6032710537
:1001A0000CF061C0121613066CF537014801062EDB
:1001B00004C096948794779467940A94D2F721E0C8
:1001C00030E040E050E004C0220F331F441F551FB1
:1001D0006A95D2F721503040404050402E213F21B7
:1001E00040235123211531054105510521F021E01E
:1001F00030E040E050E079018A01E628F72808293C
:1002000019293CC0232BD1F1260E371E350146019A
:10021000062E04C096948794779467940A94D2F734
:1002200021E030E040E050E004C0220F331F441FC3
:10023000551F6A95D2F721503040404050402A2146
:100240003B214C215D21211531054105510521F04E
:1002500021E030E040E050E059016A01A628B728CB
:10026000C828D9280BC0821593052CF01C01AA249C
:10027000BB24650103C0EE24FF24870111969C91E5
:10028000D20111968C91981709F445C0992339F041
:10029000A80197012A193B094C095D0906C0A6016E
:1002A00095012E193F09400B510B57FD08C01182D3
:1002B0003382228224833583468357831DC081E0A5
:1002C00081833382228288279927DC01821B930B4A
:1002D000A40BB50B84839583A683B7830DC0220F2F
:1002E000331F441F551F24833583468357838281E0
:1002F000938101979383828324813581468157813D
:10030000DA01C9010197A109B1098F5F9F4FAF4F72
:10031000BF4328F30BC0918333822282EA0CFB1C7B
:100320000C1D1D1DE482F5820683178383E0808304
:10033000248135814681578157FF1AC0C901AA27F8
:1003400097FDA095BA2F81709070A070B0705695EF
:10035000479537952795822B932BA42BB52B848318
:100360009583A683B7838281938101969383828349
:10037000DF0101C0D201CD01CDB7DEB7E2E10C94BF
:10038000BF1DA0E2B0E0E7ECF1E00C94AF1D698383
:100390007A838B839C832D833E834F835887E9E048
:1003A000EE2EF12CEC0EFD1ECE010196B7010E943F
:1003B000D4068E010F5E1F4FCE010596B8010E9434
:1003C000D4068A8991E089278A8BC701B801AE01DA
:1003D000475E5F4F0E9475000E94FF05A096E6E011
:1003E0000C94CB1DA0E2B0E0E8EFF1E00C94AF1D5F
:1003F00069837A838B839C832D833E834F835887C5
:10040000F9E0EF2EF12CEC0EFD1ECE010196B701A6
:100410000E94D4068E010F5E1F4FCE010596B801D3
:100420000E94D406C701B801AE01475E5F4F0E942B
:1004300075000E94FF05A096E6E00C94CB1DA0E29B
:10044000B0E0E5E2F2E00C94A31D69837A838B832C
:100450009C832D833E834F835887CE010196BE0136
:10046000675F7F4F0E94D406CE010596BE016F5E86
:100470007F4F0E94D4069985923088F08989823016
:10048000C8F0943019F4823051F404C0843029F457
:10049000923081F48AE690E0C6C0923049F420E0C0
:1004A0009A858A89981321E02A87CE010996BBC0D4
:1004B000823049F420E09A858A89981321E02A8BBA
:1004C000CE014196B0C02D843E844F8458886D88FB
:1004D0007E888F88988CEE24FF248701AA24BB2471
:1004E000650140E050E060E070E0E0E0F0E0C10174
:1004F00081709070892BE9F0E60CF71C081D191D1E
:100500009A01AB012A0D3B1D4C1D5D1D80E090E062
:10051000A0E0B0E0E614F7040805190520F481E036
:1005200090E0A0E0B0E0BA01A901480F591F6A1F8E
:100530007B1FAA0CBB1CCC1CDD1C97FE08C081E0F5
:1005400090E0A0E0B0E0A82AB92ACA2ADB2A3196B6
:10055000E032F10549F0660C771C881C991C569412
:10056000479437942794C3CFFA85EA892B893C892D
:100570008B859C85280F391F2E5F3F4F17C0CA01FE
:1005800081709070892B61F016950795F794E79428
:1005900080E090E0A0E0B0E8E82AF92A0A2B1B2BC3
:1005A00076956795579547952F5F3F4F77FDE7CF36
:1005B0000CC0440F551F661F771F17FD4160EE0CDE
:1005C000FF1C001F111F21503040403090E05907A0
:1005D00090E0690790E4790760F32B8F3C8FDB0193
:1005E000CA018F779070A070B07080349105A1051A
:1005F000B10561F447FD0AC0E114F10401051105DC
:1006000029F0405C5F4F6F4F7F4F40781A8EFE1786
:1006100011F081E08A8F4D8F5E8F6F8F78A383E01A
:10062000898FCE0149960E94FF05A096E2E10C94C5
:10063000BF1DA8E1B0E0EFE1F3E00C94AB1D6983CE
:100640007A838B839C832D833E834F835887B9E0C5
:10065000EB2EF12CEC0EFD1ECE010196B7010E948F
:10066000D4068E010F5E1F4FCE010596B8010E9481
:10067000D4062985223008F47EC03989323010F43E
:10068000B8017CC08A859A8989278A87243011F02D
:10069000223031F4231709F06EC06AE670E06EC0B4
:1006A000343039F41D861E861F86188A1C861B86E8
:1006B00004C0323021F484E08987B7015FC02B8504
:1006C0003C858B899C89281B390B3C872B87ED84C3
:1006D000FE840F851889AD88BE88CF88D88CEA142F
:1006E000FB040C051D0540F4EE0CFF1C001F111F40
:1006F000215030403C872B8720E030E040E050E044
:1007000080E090E0A0E0B0E460E070E0EA14FB0478
:100710000C051D0540F0282B392B4A2B5B2BEA18C2
:10072000FB080C091D09B695A79597958795EE0CC2
:10073000FF1C001F111F6F5F7F4F6F31710531F775
:10074000DA01C9018F779070A070B0708034910584
:10075000A105B10561F427FD0AC0E114F10401050A
:10076000110529F0205C3F4F4F4F5F4F20782D87B8
:100770003E874F87588BBE01675F7F4FCB010E943A
:10078000FF056896EAE00C94C71DA8E1B0E0EBEC29
:10079000F3E00C94AF1D69837A838B839C832D8354
:1007A0003E834F83588789E0E82EF12CEC0EFD1E26
:1007B000CE010196B7010E94D4068E010F5E1F4F35
:1007C000CE010596B8010E94D4068985823040F09A
:1007D0008989823028F0C701B8010E944C0701C006
:1007E00081E06896E6E00C94CB1DA8E1B0E0EBEF69
:1007F000F3E00C94AF1D69837A838B839C832D83F4
:100800003E834F83588789E0E82EF12CEC0EFD1EC5
:10081000CE010196B7010E94D4068E010F5E1F4FD4
:10082000CE010596B8010E94D4068985823040F039
:100830008989823028F0C701B8010E944C0701C0A5
:100840008FEF6896E6E00C94CB1DA8E1B0E0EBE2F8
:10085000F4E00C94AF1D69837A838B839C832D8392
:100860003E834F83588789E0E82EF12CEC0EFD1E65
:10087000CE010196B7010E94D4068E010F5E1F4F74
:10088000CE010596B8010E94D4068985823040F0D9
:100890008989823028F0C701B8010E944C0701C045
:1008A0008FEF6896E6E00C94CB1DA8E1B0E0EBE595
:1008B000F4E00C94AF1D69837A838B839C832D8332
:1008C0003E834F83588789E0E82EF12CEC0EFD1E05
:1008D000CE010196B7010E94D4068E010F5E1F4F14
:1008E000CE010596B8010E94D4068985823040F079
:1008F0008989823028F0C701B8010E944C0701C0E5
:1009000081E06896E6E00C94CB1DA8E0B0E0EBE84F
:10091000F4E00C94AC1D9B01AC0183E08983DA0107
:10092000C9018827B7FD83959927AA27BB27B82E29
:10093000211531054105510519F482E089833AC03A
:100940008823A9F0203080E0380780E0480780E85D
:10095000580729F460E070E080E09FEC30C0EE249E
:10096000FF248701E21AF30A040B150B02C0790178
:100970008A018EE1C82ED12CDC82CB82ED82FE82F0
:100980000F831887C801B7010E94B0050197181698
:10099000190684F4082E04C0EE0CFF1C001F111F62
:1009A0000A94D2F7ED82FE820F831887C81AD90AFB
:1009B000DC82CB82BA82CE0101960E94FF05289686
:1009C000E9E00C94C81DACE0B0E0E9EEF4E00C9472
:1009D000B31D69837A838B839C83CE010196BE010C
:1009E0006B5F7F4F0E94D4068D81823061F182302F
:1009F00050F1843021F48E81882351F12EC02F8153
:100A0000388537FD20C06E812F3131051CF06623FB
:100A1000F9F023C08EE190E0821B930B29853A8583
:100A20004B855C8504C056954795379527958A95E3
:100A3000D2F76623B1F050954095309521953F4F00
:100A40004F4F5F4F0EC020E030E040E050E009C063
:100A50002FEF3FEF4FEF5FE704C020E030E040E0D2
:100A600050E8B901CA012C96E2E00C94CF1DA8E031
:100A7000B0E0EDE3F5E00C94AB1D7B018C0161155A
:100A800071058105910519F482E0898360C083E0D6
:100A900089838EE1C82ED12CDC82CB82ED82FE824E
:100AA0000F831887C801B7010E94B005FC01319778
:100AB000F7FF3BC0222733272E1B3F0B570168014E
:100AC000022E04C0D694C794B794A7940A94D2F780
:100AD00040E050E060E070E081E090E0A0E0B0E055
:100AE00004C0880F991FAA1FBB1F2A95D2F7019730
:100AF000A109B1098E219F21A023B1230097A1054F
:100B0000B10521F041E050E060E070E04A295B2946
:100B10006C297D294D835E836F8378878EE190E019
:100B20008E1B9F0B9C838B8312C0309781F00E2EFF
:100B300004C0EE0CFF1C001F111F0A94D2F7ED82B7
:100B4000FE820F831887CE1ADF0ADC82CB821A82DC
:100B5000CE0101960E94FF052896EAE00C94C71D7D
:100B6000EF92FF920F931F937B018C0180E0E816B8
:100B700080E0F80681E0080780E0180788F48FEF2E
:100B8000E816F1040105110531F028F088E090E045
:100B9000A0E0B0E017C080E090E0A0E0B0E012C0BC
:100BA00080E0E81680E0F80680E0080781E018079A
:100BB00028F088E190E0A0E0B0E004C080E190E09F
:100BC000A0E0B0E020E230E040E050E0281B390B2C
:100BD0004A0B5B0B04C016950795F794E7948A952A
:100BE000D2F7F701EE58FF4F8081281B31094109E8
:100BF0005109C9011F910F91FF90EF900895DF9265
:100C0000EF92FF920F931F93FC01E480F580068121
:100C10001781D1808081823048F480E090E0A0E1AB
:100C2000B0E0E82AF92A0A2B1B2BA5C0843009F46E
:100C30009FC0823021F4EE24FF24870105C0E11417
:100C4000F1040105110519F4E0E0F0E096C06281BD
:100C500073819FEF623879070CF05BC022E83FEFA9
:100C6000261B370B2A3131052CF020E030E040E024
:100C700050E02AC0B801A701022E04C076956795FE
:100C8000579547950A94D2F781E090E0A0E0B0E054
:100C900004C0880F991FAA1FBB1F2A95D2F701977E
:100CA000A109B1098E219F21A023B1230097A1059D
:100CB000B10521F081E090E0A0E0B0E09A01AB0145
:100CC000282B392B4A2B5B2BDA01C9018F779070C7
:100CD000A070B07080349105A105B10539F427FFEB
:100CE00009C0205C3F4F4F4F5F4F04C0215C3F4F16
:100CF0004F4F5F4FE0E0F0E02030A0E03A07A0E087
:100D00004A07A0E45A0710F0E1E0F0E079018A0117
:100D100027C06038710564F5FB01E158FF4FD80129
:100D2000C7018F779070A070B07080349105A105D5
:100D3000B10539F4E7FE0DC080E490E0A0E0B0E03A
:100D400004C08FE390E0A0E0B0E0E80EF91E0A1FB7
:100D50001B1F17FF05C016950795F794E79431966A
:100D600087E016950795F794E7948A95D1F705C023
:100D7000EE24FF248701EFEFF0E06E2F67956627E2
:100D80006795902F9F77D794DD24D7948E2F8695E3
:100D9000492F462B582F5D29B701CA011F910F918A
:100DA000FF90EF90DF900895FC01DB0140815181BD
:100DB0002281622F6F7770E0221F2227221F9381EA
:100DC000892F880F822B282F30E0991F9927991F90
:100DD00011969C93119721153105A9F541155105DF
:100DE0006105710511F482E037C082E89FEF139628
:100DF0009C938E9312979A01AB0167E0220F331FE9
:100E0000441F551F6A95D1F783E08C930DC0220FC4
:100E1000331F441F551F12968D919C911397019774
:100E200013969C938E931297203080E0380780E0D1
:100E3000480780E4580758F314962D933D934D933B
:100E40005C93179708952F3F310579F441155105AB
:100E50006105710519F484E08C93089564FF03C063
:100E600081E08C9312C01C9210C02F573040139613
:100E70003C932E93129783E08C9387E0440F551F89
:100E8000661F771F8A95D1F7706414964D935D9312
:100E90006D937C93179708951F93DC01FB019C9140
:100EA000923008F447C08081823008F443C0943007
:100EB00051F411961C91843099F58181682F70E06E
:100EC000611B71093FC0843021F0923031F48230CF
:100ED000B9F18181882389F12DC011961C91119758
:100EE0008230F1F081811817D9F412962D913C913E
:100EF0001397828193818217930794F028173907FB
:100F0000BCF014968D919D910D90BC91A02D2481E3
:100F1000358146815781281739074A075B0718F43E
:100F2000112341F00AC082179307A407B50740F4C4
:100F3000112319F061E070E005C06FEF7FEF02C090
:100F400060E070E0CB011F910895DF93CF93CDB7A0
:100F5000DEB7A7E2B0E0E7E2F0E0808180648C9346
:100F6000A7E2B0E0E7E2F0E080818F778C93A7E220
:100F7000B0E0E7E2F0E0808180628C93A6E2B0E02E
:100F8000E6E2F0E0808181608C93A6E2B0E0E6E2E8
:100F9000F0E0808182608C93A6E2B0E0E6E2F0E0CF
:100FA000808184608C93A6E2B0E0E6E2F0E080818C
:100FB00080688C93CF91DF910895DF93CF930F9248
:100FC000CDB7DEB78983A7E2B0E0E7E2F0E0808149
:100FD000807E8C93A7E2B0E0E7E2F0E09081898127
:100FE000892B8C93A6E2B0E0E6E2F0E08081806499
:100FF0008C93E6E2F0E0808182958F70882F90E0FC
:10100000817090700097A9F3A6E2B0E0E6E2F0E00C
:10101000808180618C93E5E2F0E080810F90CF9138
:10102000DF910895DF93CF93CDB7DEB727970FB643
:10103000F894DEBF0FBECDBF89836A834B838B815B
:10104000813009F070C08981282F30E03F832E83E2
:101050008E819F818330910551F12E813F81243013
:10106000310534F48E819F818230910561F0D3C0C7
:101070002E813F812430310571F18E819F81853031
:101080009105E9F1C8C0ABE3B0E0EBE3F0E08081AB
:10109000482F8A81282F30E081E090E0022E02C0A4
:1010A000880F991F0A94E2F7842B8C93B4C0A8E3AD
:1010B000B0E0E8E3F0E08081482F8A81282F30E01B
:1010C00081E090E0022E02C0880F991F0A94E2F797
:1010D000842B8C93A0C0A5E3B0E0E5E3F0E0808131
:1010E000482F8A81282F30E081E090E0022E02C054
:1010F000880F991F0A94E2F7842B8C938CC0A2E38B
:10110000B0E0E2E3F0E08081482F8A81282F30E0D0
:1011100081E090E0022E02C0880F991F0A94E2F746
:10112000842B8C9378C08B81882309F074C08981CB
:10113000282F30E03D832C838C819D818330910565
:1011400061F12C813D812430310534F48C819D8105
:101150008230910569F05FC02C813D8124303105DA
:1011600089F18C819D818530910509F440C053C07F
:10117000ABE3B0E0EBE3F0E08081482F8A81282FD9
:1011800030E081E090E0022E02C0880F991F0A949F
:10119000E2F7809584238C933EC0A8E3B0E0E8E3B7
:1011A000F0E08081482F8A81282F30E081E090E0B4
:1011B000022E02C0880F991F0A94E2F780958423BB
:1011C0008C9329C0A5E3B0E0E5E3F0E08081482FEF
:1011D0008A81282F30E081E090E0022E02C0880F43
:1011E000991F0A94E2F7809584238C9314C0A2E39C
:1011F000B0E0E2E3F0E08081482F8A81282F30E0E0
:1012000081E090E0022E02C0880F991F0A94E2F755
:10121000809584238C9327960FB6F894DEBF0FBE7B
:10122000CDBFCF91DF910895DF93CF93CDB7DEB7D8
:1012300027970FB6F894DEBF0FBECDBF89836A83B0
:101240004B838B81882309F075C08981282F30E07A
:101250003F832E838E819F818330910561F12E81A2
:101260003F812430310534F48E819F818230910595
:1012700069F0D3C02E813F812430310589F18E8100
:101280009F818530910509F440C0C7C0AAE3B0E052
:10129000EAE3F0E08081482F8A81282F30E081E066
:1012A00090E0022E02C0880F991F0A94E2F7809501
:1012B00084238C93B2C0A7E3B0E0E7E3F0E0808141
:1012C000482F8A81282F30E081E090E0022E02C072
:1012D000880F991F0A94E2F7809584238C939DC010
:1012E000A4E3B0E0E4E3F0E08081482F8A81282F76
:1012F00030E081E090E0022E02C0880F991F0A942E
:10130000E2F7809584238C9388C0A1E3B0E0E1E309
:10131000F0E08081482F8A81282F30E081E090E042
:10132000022E02C0880F991F0A94E2F78095842349
:101330008C9373C08B81813009F06FC08981282F15
:1013400030E03D832C838C819D818330910551F168
:101350002C813D812430310534F48C819D81823093
:10136000910561F05AC02C813D812430310571F125
:101370008C819D8185309105E9F14FC0AAE3B0E0F1
:10138000EAE3F0E08081482F8A81282F30E081E075
:1013900090E0022E02C0880F991F0A94E2F7842B76
:1013A0008C933BC0A7E3B0E0E7E3F0E08081482FF7
:1013B0008A81282F30E081E090E0022E02C0880F61
:1013C000991F0A94E2F7842B8C9327C0A4E3B0E022
:1013D000E4E3F0E08081482F8A81282F30E081E02B
:1013E00090E0022E02C0880F991F0A94E2F7842B26
:1013F0008C9313C0A1E3B0E0E1E3F0E08081482FDB
:101400008A81282F30E081E090E0022E02C0880F10
:10141000991F0A94E2F7842B8C9327960FB6F894C1
:10142000DEBF0FBECDBFCF91DF910895DF93CF9385
:1014300000D000D000D0CDB7DEB789836A835C834B
:101440004B838981282F30E03E832D834D815E813F
:101450004330510559F18D819E818430910534F4DA
:101460002D813E812230310569F05BC04D815E8166
:101470004430510579F18D819E818530910509F4C3
:101480003DC04FC0E9E3F0E08081282F30E08A8141
:10149000882F90E0A90102C0559547958A95E2F7FB
:1014A000CA018170EB81FC8180833BC0E6E3F0E000
:1014B0008081282F30E08A81882F90E0A90102C026
:1014C000559547958A95E2F7CA018170EB81FC81B9
:1014D000808327C0E3E3F0E08081282F30E08A8119
:1014E000882F90E0A90102C0559547958A95E2F7AB
:1014F000CA018170EB81FC81808313C0E0E3F0E0DE
:101500008081282F30E08A81882F90E0A90102C0D5
:10151000559547958A95E2F7CA018170EB81FC8168
:10152000808326960FB6F894DEBF0FBECDBFCF9155
:10153000DF910895DF93CF9300D000D0CDB7DEB711
:1015400089836A838981282F30E03C832B838B81B8
:101550009C8183309105D9F02B813C812430310569
:1015600034F48B819C818230910561F01EC02B8107
:101570003C812430310581F08B819C81853091053F
:1015800081F013C0EBE3F0E08A8180830EC0E8E3D2
:10159000F0E08A81808309C0E5E3F0E08A818083FE
:1015A00004C0E2E3F0E08A8180830F900F900F90F7
:1015B0000F90CF91DF910895DF93CF9300D000D0AB
:1015C000CDB7DEB789836A838981282F30E03C83D9
:1015D0002B838B819C8183309105D9F02B813C81B9
:1015E0002430310534F48B819C818230910561F087
:1015F0001EC02B813C812430310581F08B819C8180
:101600008530910581F013C0EAE3F0E08A818083A0
:101610000EC0E7E3F0E08A81808309C0E4E3F0E0F4
:101620008A81808304C0E1E3F0E08A8180830F90A7
:101630000F900F900F90CF91DF910895DF93CF938C
:1016400000D000D00F92CDB7DEB789837B836A8349
:101650008981282F30E03D832C838C819D818330CC
:101660009105E9F02C813D812430310534F48C81E1
:101670009D818230910561F026C02C813D8124300E
:101680003105A1F08C819D8185309105B1F01BC0A1
:10169000E9E3F0E08081EA81FB81808314C0E6E326
:1016A000F0E08081EA81FB8180830DC0E3E3F0E01C
:1016B0008081EA81FB81808306C0E0E3F0E08081E5
:1016C000EA81FB8180830F900F900F900F900F9015
:1016D000CF91DF910895DF93CF9300D00F92CDB7D4
:1016E000DEB789836A834B830E943410898160E06E
:1016F0000E944E108A810E947C108B810E947C1077
:101700000E94AC100F900F900F90CF91DF91089531
:10171000DF93CF9300D00F92CDB7DEB78A836B8370
:101720000E9434108A8160E00E944E108B810E94DA
:101730007C100E9434108A8161E00E944E100E9449
:10174000961089830E94AC1089810F900F900F90A2
:10175000CF91DF910895DF93CF93CDB7DEB7649734
:101760000FB6F894DEBF0FBECDBF898B6A8B5C8B42
:101770004B8B188A1F8688C09F858A89492F480FFE
:101780002B893C898F859889F901E80FF91F908191
:101790008989642F492F0E946B0B80E090E0A0E8BC
:1017A000BFE38B879C87AD87BE876B857C858D85E6
:1017B0009E8520E030E04AEF54E40E941F02DC01E5
:1017C000CB018F839887A987BA876F8178858985B0
:1017D0009A8520E030E040E85FE30E9455048823CA
:1017E0002CF481E090E09E838D833FC06F817885EB
:1017F00089859A8520E03FEF4FE757E40E94F50383
:1018000018164CF56B857C858D859E8520E030E033
:1018100040E251E40E941F02DC01CB01BC01CD017A
:101820000E944900DC01CB019E838D830FC088ECB0
:1018300090E09C838B838B819C810197F1F79C8343
:101840008B838D819E8101979E838D838D819E8167
:10185000009769F714C06F81788589859A850E9401
:101860004900DC01CB019E838D838D819E819A830B
:10187000898389819A810197F1F79A8389838F857A
:1018800098890196988B8F872B893C898F859889B9
:10189000F901E80FF91F8081882309F06DCF649664
:1018A0000FB6F894DEBF0FBECDBFCF91DF91089584
:1018B0000F931F93DF93CF93CDB7DEB767970FB624
:1018C000F894DEBF0FBECDBF8C8B6D8B5F8B4E8BC4
:1018D0001A8A198A0DC029893A898E899F89FC0143
:1018E000E20FF31F108289899A8901969A8B898B5E
:1018F00029893A898E899F89FC01E20FF31F808133
:10190000882349F78D89882F90E0988B8F878EC028
:1019100080E090E0A0E8BFE38B879C87AD87BE871F
:101920006B857C858D859E8520E030E04AEF54E410
:101930000E941F02DC01CB018F839887A987BA8799
:101940006F81788589859A8520E030E040E85FE303
:101950000E94550488232CF481E090E09E838D83BF
:101960003FC06F81788589859A8520E03FEF4FE7FA
:1019700057E40E94F50318164CF56B857C858D8520
:101980009E8520E030E040E251E40E941F02DC012D
:10199000CB01BC01CD010E944900DC01CB019E833B
:1019A0008D830FC088EC90E09C838B838B819C811E
:1019B0000197F1F79C838B838D819E8101979E8394
:1019C0008D838D819E81009769F714C06F81788522
:1019D00089859A850E944900DC01CB019E838D8315
:1019E0008D819E819A83898389819A810197F1F7FC
:1019F0009A8389832E893F898F8598898901080F69
:101A0000191F9F858C89692F0E94880BF80180839C
:101A10002E893F898F859889F901E80FF91F808108
:101A20008B8B8F8598890196988B8F878B898F3FB9
:101A300009F06ECF67960FB6F894DEBF0FBECDBF2C
:101A4000CF91DF911F910F910895DF93CF93CDB781
:101A5000DEB761970FB6F894DEBF0FBECDBF898B9E
:101A6000188A1F867DC09F858989692F4FEF0E9444
:101A70006B0B80E090E0A0E8BFE38B879C87AD878D
:101A8000BE876B857C858D859E8520E030E04AEFA2
:101A900054E40E941F02DC01CB018F839887A98741
:101AA000BA876F81788589859A8520E030E040E8A3
:101AB0005FE30E94550488232CF481E090E09E832C
:101AC0008D833FC06F81788589859A8520E03FEFBF
:101AD0004FE757E40E94F50318164CF56B857C859B
:101AE0008D859E8520E030E040E251E40E941F0297
:101AF000DC01CB01BC01CD010E944900DC01CB011E
:101B00009E838D830FC088EC90E09C838B838B81B8
:101B10009C810197F1F79C838B838D819E81019736
:101B20009E838D838D819E81009769F714C06F819C
:101B3000788589859A850E944900DC01CB019E83C6
:101B40008D838D819E819A83898389819A81019772
:101B5000F1F79A8389838F8598890196988B8F876F
:101B60008F8598898F3F910508F47DCF61960FB6D8
:101B7000F894DEBF0FBECDBFCF91DF910895DF9304
:101B8000CF93CDB7DEB763970FB6F894DEBF0FBE25
:101B9000CDBF898B6A8B4B8B188A1F867FC09F8530
:101BA0008A89980F8989692F4FEF0E946B0B80E01B
:101BB00090E0A0E8BFE38B879C87AD87BE876B85ED
:101BC0007C858D859E8520E030E04AEF54E40E94BC
:101BD0001F02DC01CB018F839887A987BA876F81A9
:101BE000788589859A8520E030E040E85FE30E94AF
:101BF000550488232CF481E090E09E838D833FC0C0
:101C00006F81788589859A8520E03FEF4FE757E41B
:101C10000E94F50318164CF56B857C858D859E8595
:101C200020E030E040E251E40E941F02DC01CB01E1
:101C3000BC01CD010E944900DC01CB019E838D8354
:101C40000FC088EC90E09C838B838B819C810197F3
:101C5000F1F79C838B838D819E8101979E838D8379
:101C60008D819E81009769F714C06F817885898581
:101C70009A850E944900DC01CB019E838D838D8172
:101C80009E819A83898389819A810197F1F79A834A
:101C900089838F8598890196988B8F878B89282FC8
:101CA00030E08F8598898217930708F478CF639680
:101CB0000FB6F894DEBF0FBECDBFCF91DF91089570
:101CC000DF93CF93CDB7DEB7AFE5B0E0EFE5F0E05F
:101CD000808180688C93CF91DF910895DF93CF93BB
:101CE000CDB7DEB7AFE5B0E0EFE5F0E080818F770C
:101CF0008C93CF91DF910895DF93CF93CDB7DEB76B
:101D0000A3E5B0E0E3E5F0E080818F7B8C93A3E571
:101D1000B0E0E3E5F0E0808188608C93A9E5B0E075
:101D2000E9E5F0E0808182608C93ECE5F0E08AEFF9
:101D30008083A3E5B0E0E3E5F0E0808181608C93EF
:101D4000A3E5B0E0E3E5F0E080818D7F8C93A3E52F
:101D5000B0E0E3E5F0E0808184608C93CF91DF9187
:101D60000895DF93CF9300D0CDB7DEB79A838983F0
:101D700089819A81009731F089819A8190937F01BE
:101D800080937E010F900F90CF91DF9108951F9265
:101D90000F920FB60F9211242F933F934F935F939F
:101DA0006F937F938F939F93AF93BF93EF93FF9323
:101DB000DF93CF93CDB7DEB780917E0190917F0105
:101DC000009729F0E0917E01F0917F010995CF9174
:101DD000DF91FF91EF91BF91AF919F918F917F9193
:101DE0006F915F914F913F912F910F900FBE0F9088
:101DF0001F901895DF93CF93CDB7DEB7A3E5B0E082
:101E0000E3E5F0E0808180648C93A3E5B0E0E3E556
:101E1000F0E0808188608C93A9E5B0E0E9E5F0E02E
:101E200080818D7F8C93A3E5B0E0E3E5F0E08081D5
:101E300080628C93A3E5B0E0E3E5F0E080818F7EE3
:101E40008C93A3E5B0E0E3E5F0E0808181608C93C2
:101E5000A3E5B0E0E3E5F0E0808182608C93A3E548
:101E6000B0E0E3E5F0E080818B7F8C93CF91DF9150
:101E70000895DF93CF930F92CDB7DEB78983ECE55A
:101E8000F0E0898180830F90CF91DF910895DF93F7
:101E9000CF93CDB7DEB7A3E5B0E0E3E5F0E0808116
:101EA00080648C93A3E5B0E0E3E5F0E08081877F78
:101EB0008C93A9E5B0E0E9E5F0E080818D7F8C931B
:101EC000A3E5B0E0E3E5F0E0808180628C93A3E5D8
:101ED000B0E0E3E5F0E080818F7E8C93A3E5B0E095
:101EE000E3E5F0E0808181608C93A3E5B0E0E3E579
:101EF000F0E0808182608C93A3E5B0E0E3E5F0E060
:101F000080818B7F8C93CF91DF910895DF93CF9366
:101F1000CDB7DEB7AFE4B0E0EFE4F0E080818068F9
:101F20008C93AFE4B0E0EFE4F0E080818F7B8C93A2
:101F3000AFE4B0E0EFE4F0E080818E7F8C93AFE41B
:101F4000B0E0EFE4F0E0808182608C93AEE4B0E03A
:101F5000EEE4F0E0808188608C93AEE4B0E0EEE4E3
:101F6000F0E0808180618C93AEE4B0E0EEE4F0E0DC
:101F700080818E7F8C93AEE4B0E0EEE4F0E080816F
:101F800082608C93AEE4B0E0EEE4F0E080818B7F81
:101F90008C93CF91DF910895DF93CF9300D0CDB78D
:101FA000DEB79A838983E6E4F0E089819A819183A0
:101FB00080830F900F90CF91DF910895DF93CF939F
:101FC00000D0CDB7DEB79A838983EAE4F0E0898157
:101FD0009A81918380830F900F90CF91DF91089524
:101FE000DF93CF930F92CDB7DEB78983E0E2F0E0C5
:101FF00082E08083A1E2B0E0E1E2F0E080818E7FC8
:102000008C93A1E2B0E0E1E2F0E080818D7F8C93DF
:102010008981882329F0E2E2F0E08981880F8083BA
:10202000A6E5B0E0E6E5F0E0808184608C930F9057
:10203000CF91DF910895DF93CF930F92CDB7DEB7A5
:1020400089838981882329F0E2E2F0E08981880F81
:102050008083A6E5B0E0E6E5F0E0808184608C93C3
:102060000F90CF91DF910895DF93CF93CDB7DEB777
:10207000A6E5B0E0E6E5F0E0808180628C93A6E51D
:10208000B0E0E6E5F0E0808180688C93E6E5F0E082
:1020900080818823DCF7CF91DF910895DF93CF9380
:1020A00000D00F92CDB7DEB78A836B838A81882FE9
:1020B00090E0880F991F982F8B81892B8983E3E209
:1020C000F0E089818083A6E5B0E0E6E5F0E080817C
:1020D0008F7D8C93A6E5B0E0E6E5F0E08081806836
:1020E0008C93E6E5F0E080818823DCF70F900F9079
:1020F0000F90CF91DF910895DF93CF930F92CDB7DB
:10210000DEB78983E3E2F0E089818083A6E5B0E071
:10211000E6E5F0E0808180688C93E6E5F0E0808180
:102120008823DCF70F90CF91DF910895DF93CF9351
:10213000CDB7DEB7A6E5B0E0E6E5F0E080818068E7
:102140008C93E6E5F0E080818823DCF7E3E2F0E0C1
:102150008081CF91DF910895DF93CF93CDB7DEB724
:10216000A6E5B0E0E6E5F0E0808180618C93A6E52D
:10217000B0E0E6E5F0E0808180688C93CF91DF915C
:102180000895DF93CF930F92CDB7DEB71982AAE2FD
:10219000B0E0EAE2F0E0808180618C93AAE2B0E0F6
:1021A000EAE2F0E0808188608C938981806889838D
:1021B000898182608983898184608983E0E4F0E099
:1021C00089818083E9E2F0E083E380830F90CF91FF
:1021D000DF910895DF93CF930F92CDB7DEB7898358
:1021E000EBE2F0E08081829586958770882F90E001
:1021F000817090700097A1F3ECE2F0E08981808318
:102200000F90CF91DF910895DF93CF93CDB7DEB7D5
:10221000EBE2F0E080818823DCF7ECE2F0E0808103
:10222000CF91DF910895DF93CF930F92CDB7DEB7B3
:1022300089838981813041F4AAE2B0E0EAE2F0E0EA
:10224000808180688C930AC08981882339F4AAE24E
:10225000B0E0EAE2F0E080818F778C930F90CF912D
:10226000DF910895DF93CF9300D000D0CDB7DEB7D4
:102270009A8389837C836B8389819A81009761F03B
:1022800089819A8190938301809382018B819C81C3
:1022900090938101809380010F900F900F900F9089
:1022A000CF91DF9108951F920F920FB60F921124D4
:1022B0002F933F934F935F936F937F938F939F934E
:1022C000AF93BF93EF93FF93DF93CF93CDB7DEB779
:1022D0008091820190918301009769F0A091800123
:1022E000B0918101ECE2F0E080818C93E091820179
:1022F000F09183010995CF91DF91FF91EF91BF910B
:10230000AF919F918F917F916F915F914F913F918D
:102310002F910F900FBE0F901F901895DF93CF93C2
:1023200000D000D0CDB7DEB79C838B831A82198290
:102330000FC029813A818B819C81FC01E20FF31F40
:1023400080810E94EA1089819A8101969A8389830B
:1023500029813A818B819C81FC01E20FF31F8081EE
:10236000882339F70F900F900F900F90CF91DF9146
:1023700008950F931F93DF93CF93CDB7DEB7659783
:102380000FB6F894DEBF0FBECDBF9D8B8C8B1A8A23
:10239000198A0DC029893A898C899D89FC01E20F2F
:1023A000F31F108289899A8901969A8B898B2989D2
:1023B0003A898C899D89FC01E20FF31F8081882373
:1023C00049F7188A1F868BC02F8538898C899D898B
:1023D0008C01020F131F0E940411F80180832F85C6
:1023E00038898C899D89FC01E20FF31F80818B8BDA
:1023F00080E090E0A0E4B0E48B879C87AD87BE8747
:102400006B857C858D859E8520E030E04AEF54E425
:102410000E941F02DC01CB018F839887A987BA87AE
:102420006F81788589859A8520E030E040E85FE318
:102430000E94550488232CF481E090E09E838D83D4
:102440003FC06F81788589859A8520E03FEF4FE70F
:1024500057E40E94F50318164CF56B857C858D8535
:102460009E8520E030E040E251E40E941F02DC0142
:10247000CB01BC01CD010E944900DC01CB019E8350
:102480008D830FC088EC90E09C838B838B819C8133
:102490000197F1F79C838B838D819E8101979E83A9
:1024A0008D838D819E81009769F714C06F81788537
:1024B00089859A850E944900DC01CB019E838D832A
:1024C0008D819E819A83898389819A810197F1F711
:1024D0009A8389838F8598890196988B8F878B89BA
:1024E0008D3009F071CF65960FB6F894DEBF0FBE40
:1024F000CDBFCF91DF911F910F9108950F931F933F
:10250000DF93CF93CDB7DEB7C65BD0400FB6F8945C
:10251000DEBF0FBECDBFFE01EB56FF4F10820E9403
:10252000C1100E94A50782E060E040E00E9414090B
:1025300082E061E040E00E94140984E064E041E050
:102540000E94140984E065E041E00E9414090E94A1
:10255000600E81E090E00E94131187ED9AE125EA78
:1025600031E0B9010E94321185E065E041E00E944E
:10257000140985E066E041E00E9414090E94860F7C
:102580000E947C0E8DE89BE10E94B10E9E012F56A9
:102590003F4FFE01E656FF4F80819181A281B381BA
:1025A000F90180839183A283B3839E0123573F4F18
:1025B000FE01EA56FF4F80819181A281B381F9012A
:1025C00080839183A283B38381E00E94DD078E0123
:1025D0000A561F4F882F90E0A0E0B0E0BC01CD016B
:1025E0000E943705DC01CB01F80180839183A2832F
:1025F000B38380E00E94DD078E0106561F4F882FAF
:1026000090E0A0E0B0E0BC01CD010E943705DC0104
:10261000CB01F80180839183A283B383FE01E75746
:10262000FF4F80E090E0A0E2B1E480839183A28339
:10263000B3838E010B571F4FFE01E757FF4F608199
:1026400071818281938120E030E04AEF54E40E945E
:102650001F02DC01CB01F80180839183A283B38345
:10266000FE01EB57FF4F608171818281938120E0F1
:1026700030E040E85FE30E945504882344F4FE0103
:10268000ED57FF4F81E090E09183808364C0FE01AD
:10269000EB57FF4F608171818281938120E03FEF92
:1026A0004FE757E40E94F50318160CF043C0FE01F3
:1026B000E757FF4F608171818281938120E030E094
:1026C00040E251E40E941F02DC01CB018E010D5754
:1026D0001F4FBC01CD010E944900DC01CB01F80174
:1026E000918380831FC0FE01EF57FF4F88EC90E07D
:1026F00091838083FE01EF57FF4F80819181019785
:10270000F1F7FE01EF57FF4F91838083DE01AD5754
:10271000BF4FFE01ED57FF4F8081918101971196C8
:102720009C938E93FE01ED57FF4F8081918100971E
:10273000D1F627C08E010D571F4FFE01EB57FF4FFB
:1027400060817181828193810E944900DC01CB010B
:10275000F80191838083DE01A158BF4FFE01ED5740
:10276000FF4F808191818D939C93FE01E158FF4F33
:10277000808191810197F1F7FE01E158FF4F91832C
:102780008083FE01E656FF4F6081718182819381D3
:1027900020E030E44CE955E40E941F02DC01CB014B
:1027A000BC01CD0120E030E040E853E40E94190371
:1027B000DC01CB018E0106561F4FBC01CD0120E08C
:1027C00030E040E251E40E941903DC01CB01F80142
:1027D00080839183A283B383FE01E656FF4F60811D
:1027E0007181828193810E9449009B01AC018DB768
:1027F0009EB708970FB6F8949EBF0FBE8DBFEDB77A
:10280000FEB73196CE0182569F4F9183808380E63A
:1028100090E09383828324833583468357830E9489
:10282000001EEDB7FEB738960FB6F894FEBF0FBE88
:10283000EDBFFE01E558FF4F80E090E0A0E2B1E47B
:1028400080839183A283B3838E0109581F4FFE01B9
:10285000E558FF4F608171818281938120E030E0F3
:102860004AEF54E40E941F02DC01CB01F80180838F
:102870009183A283B383FE01E958FF4F6081718188
:102880008281938120E030E040E85FE30E945504BC
:10289000882344F4FE01EB58FF4F81E090E09183E0
:1028A000808364C0FE01E958FF4F6081718182819D
:1028B000938120E03FEF4FE757E40E94F50318169D
:1028C0000CF043C0FE01E558FF4F608171818281A9
:1028D000938120E030E040E251E40E941F02DC01DD
:1028E000CB018E010B581F4FBC01CD010E94490046
:1028F000DC01CB01F801918380831FC0FE01ED58FC
:10290000FF4F88EC90E091838083FE01ED58FF4FEC
:10291000808191810197F1F7FE01ED58FF4F91837E
:102920008083DE01AB58BF4FFE01EB58FF4F808123
:102930009181019711969C938E93FE01EB58FF4F66
:10294000808191810097D1F627C08E010B581F4FCF
:10295000FE01E958FF4F60817181828193810E945D
:102960004900DC01CB01F80191838083DE01AF587F
:10297000BF4FFE01EB58FF4F808191818D939C9357
:10298000FE01EF58FF4F808191810197F1F7FE0121
:10299000EF58FF4F91838083FE01EA56FF4F60811D
:1029A00071818281938120E030E048E152E40E940D
:1029B000C101DC01CB018E010A561F4FBC01CD01C4
:1029C00026EF38E24CE15FE30E941F02DC01CB01FD
:1029D000F80180839183A283B383FE01EA56FF4FFF
:1029E00060817181828193810E9449009B01AC01C9
:1029F0008DB79EB708970FB6F8949EBF0FBE8DBFD8
:102A0000EDB7FEB73196CE0188559F4F91838083F5
:102A100085E690E0938382832483358346835783BE
:102A20000E94001EEDB7FEB738960FB6F894FEBFB1
:102A30000FBEEDBFFE01E656FF4FDE01AF56BF4FA2
:102A400060817181828193812D913D914D915C9145
:102A50000E94C503882309F4B8C0CE0182569F4F57
:102A60000E948E11FE01E359FF4F80E090E0A8EC38
:102A7000B2E480839183A283B3838E0107591F4FF1
:102A8000FE01E359FF4F608171818281938120E0D3
:102A900030E04AEF54E40E941F02DC01CB01F80150
:102AA00080839183A283B383FE01E759FF4F608146
:102AB00071818281938120E030E040E85FE30E94F1
:102AC0005504882344F4FE01E959FF4F81E090E06A
:102AD0009183808364C0FE01E759FF4F608171815B
:102AE0008281938120E03FEF4FE757E40E94F50396
:102AF00018160CF043C0FE01E359FF4F608171814D
:102B00008281938120E030E040E251E40E941F0284
:102B1000DC01CB018E0109591F4FBC01CD010E9480
:102B20004900DC01CB01F801918380831FC0FE01C5
:102B3000EB59FF4F88EC90E091838083FE01EB59C5
:102B4000FF4F808191810197F1F7FE01EB59FF4F13
:102B500091838083DE01A959BF4FFE01E959FF4FE0
:102B600080819181019711969C938E93FE01E95982
:102B7000FF4F808191810097D1F627C08E010959BE
:102B80001F4FFE01E759FF4F608171818281938160
:102B90000E944900DC01CB01F80191838083DE01B2
:102BA000AD59BF4FFE01E959FF4F808191818D934F
:102BB0009C93FE01ED59FF4F808191810197F1F7C0
:102BC000FE01ED59FF4F91838083FE01EA56FF4FCE
:102BD000DE01A357BF4F60817181828193812D9166
:102BE0003D914D915C910E94C503882309F4B9C0C1
:102BF000CE0188559F4F0E948E11FE01E15AFF4F72
:102C000080E090E0A8ECB2E480839183A283B38358
:102C10008E01055A1F4FFE01E15AFF4F60817181FD
:102C20008281938120E030E04AEF54E40E941F0249
:102C3000DC01CB01F80180839183A283B383FE0181
:102C4000E55AFF4F608171818281938120E030E0FD
:102C500040E85FE30E945504882344F4FE01E75AEC
:102C6000FF4F81E090E09183808364C0FE01E55ACC
:102C7000FF4F608171818281938120E03FEF4FE7B8
:102C800057E40E94F50318160CF043C0FE01E15A08
:102C9000FF4F608171818281938120E030E040E2CA
:102CA00051E40E941F02DC01CB018E01075A1F4F25
:102CB000BC01CD010E944900DC01CB01F8019183E8
:102CC00080831FC0FE01E95AFF4F88EC90E091839A
:102CD0008083FE01E95AFF4F808191810197F1F7CE
:102CE000FE01E95AFF4F91838083DE01A75ABF4F4F
:102CF000FE01E75AFF4F80819181019711969C93C5
:102D00008E93FE01E75AFF4F808191810097D1F6A3
:102D100028C08E01075A1F4FFE01E55AFF4F608100
:102D20007181828193810E944900DC01CB01F8010D
:102D300091838083DE01AB5ABF4FFE01E75AFF4FFC
:102D40008081918111969C938E93FE01EB5AFF4FE7
:102D5000808191810197F1F7FE01EB5AFF4F91833A
:102D60008083FE01EB56FF4F8081813059F485E06E
:102D700066E041E00E94120885E065E041E00E94C3
:102D80001409C4C0FE01EB56FF4F8081882309F06F
:102D9000BDC0FE01EF5AFF4F80E090E0A0E2B1E439
:102DA00080839183A283B3838E01035B1F4FFE0157
:102DB000EF5AFF4F608171818281938120E030E082
:102DC0004AEF54E40E941F02DC01CB01F80180832A
:102DD0009183A283B383FE01E35BFF4F6081718126
:102DE0008281938120E030E040E85FE30E94550457
:102DF000882344F4FE01E55BFF4F81E090E091837E
:102E0000808364C0FE01E35BFF4F6081718182813A
:102E1000938120E03FEF4FE757E40E94F503181637
:102E20000CF043C0FE01EF5AFF4F60817181828137
:102E3000938120E030E040E251E40E941F02DC0177
:102E4000CB018E01055B1F4FBC01CD010E944900E3
:102E5000DC01CB01F801918380831FC0FE01E75B99
:102E6000FF4F88EC90E091838083FE01E75BFF4F8A
:102E7000808191810197F1F7FE01E75BFF4F91831C
:102E80008083DE01A55BBF4FFE01E55BFF4F8081C4
:102E90009181019711969C938E93FE01E55BFF4F04
:102EA000808191810097D1F627C08E01055B1F4F6D
:102EB000FE01E35BFF4F60817181828193810E94FB
:102EC0004900DC01CB01F80191838083DE01A95B1D
:102ED000BF4FFE01E55BFF4F808191818D939C93F5
:102EE000FE01E95BFF4F808191810197F1F7FE01BF
:102EF000E95BFF4F9183808385E066E040E00E94BC
:102F0000120885E065E040E00E9414098091950177
:102F1000282F30E0CE54DF4F39832883C25BD04066
:102F2000CE54DF4F88819981C25BD04088369105AD
:102F300009F4C1C0CE54DF4FE881F981C25BD040B3
:102F4000E936F105ACF4CE54DF4F28813981C25BFC
:102F5000D0402136310509F42AC1CE54DF4F888193
:102F60009981C25BD0408636910509F49CC2C5C2E6
:102F7000CE54DF4FE881F981C25BD040E037F105E4
:102F800009F413C2CE54DF4F28813981C25BD0408F
:102F90002437310509F0B1C28BE891E00E94DA1DB7
:102FA0008093A601FE01ED5BFF4F80E090E0A0E87A
:102FB000BFE380839183A283B3838E01015C1F4FA3
:102FC000FE01ED5BFF4F608171818281938120E082
:102FD00030E04AEF54E40E941F02DC01CB01F8010B
:102FE00080839183A283B383FE01FF966081718108
:102FF0008281938120E030E040E85FE30E94550445
:1030000088232CF481E090E09EAF8DAF46C0FE0196
:10301000FF96608171818281938120E03FEF4FE7CD
:1030200057E40E94F503181664F5FE01ED5BFF4FAF
:10303000608171818281938120E030E040E251E43F
:103040000E941F02DC01CB01BC01CD010E9449009E
:10305000DC01CB019EAF8DAF0FC088EC90E09CAF40
:103060008BAF8BAD9CAD0197F1F79CAF8BAF8DAD66
:103070009EAD01979EAF8DAF8DAD9EAD009769F768
:1030800016C0FE01FF9660817181828193810E944A
:103090004900DC01CB019EAF8DAF8DAD9EAD9AAFE7
:1030A00089AF89AD9AAD0197F1F79AAF89AF8DE0FD
:1030B000809395012CC28BE891E00E94DA1D8093E9
:1030C000A00180E090E0A0E8BFE38DAB9EABAFAB8A
:1030D000B8AF6DA97EA98FA998AD20E030E04AEF86
:1030E00054E40E941F02DC01CB0189AB9AABABAB6D
:1030F000BCAB69A97AA98BA99CA920E030E040E883
:103100005FE30E94550488232CF481E090E098ABA3
:103110008FA73FC069A97AA98BA99CA920E03FEF9E
:103120004FE757E40E94F50318164CF56DA97EA9E8
:103130008FA998AD20E030E040E251E40E941F02E8
:10314000DC01CB01BC01CD010E944900DC01CB01B7
:1031500098AB8FA70FC088EC90E09EA78DA78DA598
:103160009EA50197F1F79EA78DA78FA598A9019716
:1031700098AB8FA78FA598A9009769F714C069A984
:103180007AA98BA99CA90E944900DC01CB0198ABCC
:103190008FA78FA598A99CA78BA78BA59CA5019706
:1031A000F1F79CA78BA78DE080939501B0C180E0DB
:1031B00090E0A8E4B2E48FA398A7A9A7BAA76FA14B
:1031C00078A589A59AA520E030E04AEF54E40E9452
:1031D0001F02DC01CB018BA39CA3ADA3BEA36BA1FB
:1031E0007CA18DA19EA120E030E040E85FE30E9439
:1031F000550488232CF481E090E09AA389A33FC072
:103200006BA17CA18DA19EA120E03FEF4FE757E489
:103210000E94F50318164CF56FA178A589A59AA50B
:1032200020E030E040E251E40E941F02DC01CB01CB
:10323000BC01CD010E944900DC01CB019AA389A306
:103240000FC088EC90E098A38F8F8F8D98A1019785
:10325000F1F798A38F8F89A19AA101979AA389A3C7
:1032600089A19AA1009769F714C06BA17CA18DA1D7
:103270009EA10E944900DC01CB019AA389A389A1E8
:103280009AA19E8F8D8F8D8D9E8D0197F1F79E8FC8
:103290008D8F80E090E0A0E8BFE3898F9A8FAB8F9D
:1032A000BC8F698D7A8D8B8D9C8D20E030E04AEF4C
:1032B00054E40E941F02DC01CB018D8B9E8BAF8BEF
:1032C000B88F6D897E898F89988D20E030E040E845
:1032D0005FE30E94550488232CF481E090E09C8BEE
:1032E0008B8B3FC06D897E898F89988D20E03FEF61
:1032F0004FE757E40E94F50318164CF5698D7A8D57
:103300008B8D9C8D20E030E040E251E40E941F0252
:10331000DC01CB01BC01CD010E944900DC01CB01E5
:103320009C8B8B8B0FC088EC90E09A8B898B898962
:103330009A890197F1F79A8B898B8B899C890197E0
:103340009C8B8B8B8B899C89009769F714C06D8946
:103350007E898F89988D0E944900DC01CB019C8B6E
:103360008B8B8B899C89988B8F878F859889019708
:10337000F1F7988B8F878BE891E00E94DA1DAA27DE
:1033800097FDA095BA2FBC01CD010E948504DC01F8
:10339000CB018093780190937901A0937A01B09347
:1033A0007B018DE080939501B2C08BE891E00E9493
:1033B000DA1D90937D0180937C0180E090E0A0E88D
:1033C000BFE38B879C87AD87BE876B857C858D85AA
:1033D0009E8520E030E04AEF54E40E941F02DC01A9
:1033E000CB018F839887A987BA876F817885898574
:1033F0009A8520E030E040E85FE30E94550488238E
:103400002CF481E090E09E838D833FC06F817885AE
:1034100089859A8520E03FEF4FE757E40E94F50346
:1034200018164CF56B857C858D859E8520E030E0F7
:1034300040E251E40E941F02DC01CB01BC01CD013E
:103440000E944900DC01CB019E838D830FC088EC74
:1034500090E09C838B838B819C810197F1F79C8307
:103460008B838D819E8101979E838D838D819E812B
:10347000009769F714C06F81788589859A850E94C5
:103480004900DC01CB019E838D838D819E819A83CF
:10349000898389819A810197F1F79A8389838DE0E5
:1034A0008093950134C09E012B563F4FCC54DF4F83
:1034B00039832883C45BD040CA54DF4F1882C65B6F
:1034C000D040FE01EB56FF4F8081882331F431E07C
:1034D000CA54DF4F3883C65BD040CA54DF4F2881BF
:1034E000C65BD040CC54DF4FE881F981C45BD0404B
:1034F00020838DE0809395010AC084E064E040E081
:103500000E94120884E065E040E00E941208809169
:10351000A601992787FD9095A92FB92FBC01CD0150
:103520000E948504DC01CB01FE01E656FF4FBC0181
:10353000CD0120813181428153810E94F50318160B
:103540005CF4FE01EB56FF4F8081882329F084E074
:1035500064E041E00E9412088091A001992787FD54
:103560009095A92FB92FBC01CD010E948504DC01E3
:10357000CB01FE01EA56FF4FBC01CD012081318114
:10358000428153810E94F503181614F00C94C61260
:10359000FE01EB56FF4F8081882311F40C94C61274
:1035A00084E065E041E00E9412080C94C612DF93AB
:1035B000CF9300D0CDB7DEB78091A5018D3081F0DB
:1035C00080918401882F90E02091A501FC01EA56AA
:1035D000FE4F2083809184018F5F8093840130C0EF
:1035E0008091A5018D3061F510928401E091720106
:1035F000F09173018091960180831A82198218C01C
:1036000029813A8189819A810196FC01EA56FE4F0F
:103610008081F901E557FE4F808389819A81FC0101
:10362000EA56FE4F108289819A8101969A83898396
:1036300089819A81FC01EA56FE4F8081882301F737
:103640000F900F90CF91DF9108950F931F93DF9309
:10365000CF9300D000D0CDB7DEB769837A838B8358
:103660009C83009174011091750160E070E084EB1F
:1036700092E429813A814B815C810E94C101DC0185
:10368000CB01F80180839183A283B38300917601FB
:103690001091770169817A818B819C8120E030E0F3
:1036A00044EB52E40E94F201DC01CB01F80180837B
:1036B0009183A283B3830F900F900F900F90CF91BF
:1036C000DF911F910F910895DF93CF9300D000D029
:1036D00000D0CDB7DEB79E838D838D819E81880F0C
:1036E000991F82959295907F9827807F9827CC018B
:1036F000A0E0B0E089839A83AB83BC8389819A81FF
:10370000AB81BC81BC01CD0126960FB6F894DEBF1B
:103710000FBECDBFCF91DF910895AF92BF92CF92F0
:10372000DF92EF92FF920F931F93DF93CF9300D01E
:1037300000D000D0CDB7DEB78091780190917901AB
:10374000A0917A01B0917B01BC01CD010E94251BA3
:10375000809185018F5F8093850180E29EE40E94C5
:10376000CC0F80918601282F30E03E832D838D8100
:103770009E818130910509F457C02D813E81223010
:1037800031052CF48D819E81009771F014C12D813B
:103790003E812230310509F48BC08D819E818330BA
:1037A000910509F4C5C007C100D000D0EDB7FEB740
:1037B000319680E090E0A4EBB2E480839183A28311
:1037C000B38360E070E080E090E020E030E044E32C
:1037D00053E40F2EF0E0EF2EF0E0FF2EFAE70F2F6C
:1037E000F4E41F2FF02D0F2EF0E0AF2EF0E0BF2EEF
:1037F000FAEFCF2EF4E4DF2EF02D0E94161D0F906D
:103800000F900F900F90DC01CB01BC01CD012DEC8E
:103810003CEC4CE45EE30E94C101DC01CB018983F6
:103820009A83AB83BC83C7C08091A1019091A20110
:10383000A091A301B091A40100D000D0EDB7FEB7D4
:10384000319680839183A283B38360E070E080E04F
:1038500090E020E030E044E353E40F2EF0E0EF2E60
:10386000F0E0FF2EFAE70F2FF4E41F2FF02D0F2EBC
:10387000F0E0AF2EF0E0BF2EFAEFCF2EF4E4DF2E13
:10388000F02D0E94161D0F900F900F900F90DC01ED
:10389000CB01BC01CD0120E030E040E85FE30E94B5
:1038A000C101DC01CB0189839A83AB83BC8383C0D4
:1038B00000D000D0EDB7FEB7319680E090E0A4EBE9
:1038C000B2E480839183A283B38360E070E080E000
:1038D00090E020E030E044E353E40F2EF0E0EF2EE0
:1038E000F0E0FF2EFAE70F2FF4E41F2FF02D0F2E3C
:1038F000F0E0AF2EF0E0BF2EFAEFCF2EF4E4DF2E93
:10390000F02D0E94161D0F900F900F900F90DC016C
:10391000CB01BC01CD012DEC3CEC4CE45EE30E94FC
:10392000C101DC01CB0189839A83AB83BC8343C093
:103930008091870190918801A0918901B0918A01BD
:1039400000D000D0EDB7FEB7319680839183A2837B
:10395000B38360E070E080E090E020E030E044E39A
:1039600053E40F2EF0E0EF2EF0E0FF2EFAE70F2FDA
:10397000F4E41F2FF02D0F2EF0E0AF2EF0E0BF2E5D
:10398000FAEFCF2EF4E4DF2EF02D0E94161D0F90DB
:103990000F900F900F90DC01CB01BC01CD0120E016
:1039A00030E040E05FE30E94C101DC01CB0189838C
:1039B0009A83AB83BC8369817A818B819C810E94CD
:1039C0004900DC01CB010E94DE0F80918501E82EC9
:1039D000FF2400E010E080917C0190917D010E9425
:1039E000641BDC01CB01E816F9060A071B0769F422
:1039F000809186018F5F809386011092850180916E
:103A00008601843011F41092860126960FB6F89440
:103A1000DEBF0FBECDBFCF91DF911F910F91FF9001
:103A2000EF90DF90CF90BF90AF900895AF92BF928C
:103A3000CF92DF92EF92FF920F931F93DF93CF937A
:103A4000CDB7DEB764970FB6F894DEBF0FBECDBF1B
:103A50006D837E838F83988729873A874B875C871E
:103A6000ED86FE860F87188BA98ABA8ACB8ADC8AF4
:103A700069A17AA18BA19CA129853A854B855C859A
:103A80000E94C101DC01CB0189839A83AB83BC8393
:103A90006D857E858F85988929893A894B895C89CE
:103AA0000E94C101DC01CB019C01AD0169817A81D9
:103AB0008B819C810E941F02DC01CB0189839A8348
:103AC000AB83BC836D817E818F81988529853A8502
:103AD0004B855C850E94C101DC01CB019C01AD01DD
:103AE00069817A818B819C810E941903DC01CB0161
:103AF00089839A83AB83BC8369817A818B819C8122
:103B000029893A894B895C890E94F201DC01CB0149
:103B100089839A83AB83BC8389819A81AB81BC8181
:103B2000BC01CD0164960FB6F894DEBF0FBECDBFC9
:103B3000CF91DF911F910F91FF90EF90DF90CF9089
:103B4000BF90AF9008952F923F924F925F926F92E5
:103B50007F928F929F92AF92BF92CF92DF92EF921D
:103B6000FF920F931F93CF93DF93CDB7DEB7CA1B9E
:103B7000DB0B0FB6F894DEBF0FBECDBF09942A88C9
:103B8000398848885F846E847D848C849B84AA8471
:103B9000B984C884DF80EE80FD800C811B81AA81FE
:103BA000B981CE0FD11D0FB6F894DEBF0FBECDBFC9
:103BB000ED010895FC0188279927E894219120328E
:103BC000E9F3293010F02E30C8F32B3241F02D32BA
:103BD00039F4689404C00E94F81D820F911D219150
:103BE00020532A30C0F31EF4909581959F4F08957D
:103BF0007AE0979F902D879F802D910D1124089535
:103C0000AEE0B0E0E6E0FEE10C94B11D0D891E8946
:103C100086E08C831A8309838FEF9FE79E838D83D1
:103C20009E01275E3F4FCE0101966F89788DA901D5
:103C30000E94241E2F813885020F131FF801108265
:103C40002E96E4E00C94CD1DABE0B0E0EAE2FEE19C
:103C50000C94A31D3C012B015A01FC011782168212
:103C6000838181FD03C06FEF7FEFC6C19AE0892E8B
:103C70001E010894211C311CF3012381F20123FD54
:103C8000859123FF81912F01882309F4B2C18532E8
:103C900039F423FD859123FF81912F01853229F489
:103CA00090E0B3010E941720E7CF982FFF24EE2465
:103CB0009924FFE1FF15D0F09B3269F09C3228F483
:103CC000903259F0933291F40EC09D3249F0903306
:103CD00069F441E024C052E0F52A84E0F82A28C0C3
:103CE00098E0F92A25C0E0E1FE2A22C0F7FC29C0AD
:103CF000892F80538A3070F4F6FE05C0989C902C72
:103D00001124980E15C0E89CE02C1124E80EF0E276
:103D1000FF2A0EC09E3229F4F6FC6BC140E4F42A5F
:103D200007C09C3619F450E8F52A02C0983649F4C9
:103D3000F20123FD959123FF91912F01992309F021
:103D4000B8CF892F8554833018F08052833038F4EF
:103D500044E050E0A40EB51E5FE359830FC09336D4
:103D600031F0933779F0933509F056C020C0F50152
:103D70008081898342E050E0A40EB51E610101E01C
:103D800010E012C0F501C080D180F6FC03C06FEFD7
:103D90007FEF02C0692D70E042E050E0A40EB51E36
:103DA000C6010E940C208C015FE7F52214C0F501CA
:103DB000C080D180F6FC03C06FEF7FEF02C0692D99
:103DC00070E042E050E0A40EB51EC6010E94012042
:103DD0008C0150E8F52AF3FE07C01AC080E290E09B
:103DE000B3010E941720EA948E2D90E0081719075E
:103DF000A8F30EC0F601F7FC8591F7FE81916F01E3
:103E000090E0B3010E941720E110EA9401501040A5
:103E10000115110579F7EAC0943611F0993669F564
:103E2000F7FE08C0F501208131814281538184E091
:103E300090E00AC0F501808191819C01442737FD03
:103E40004095542F82E090E0A80EB91E9FE6F9221B
:103E500057FF09C050954095309521953F4F4F4FE2
:103E60005F4FE0E8FE2ACA01B901A1012AE030E073
:103E70000E944320D82ED21840C0953729F41F2D18
:103E80001F7E2AE030E01DC01F2D197F9F3661F094
:103E9000903720F4983509F0ACC00FC0903739F056
:103EA000983709F0A6C004C028E030E00AC01061CD
:103EB00014FD146020E130E004C014FD166020E120
:103EC00032E017FF08C0F501608171818281938122
:103ED00044E050E008C0F50180819181BC0180E0A0
:103EE00090E042E050E0A40EB51EA1010E944320E4
:103EF000D82ED2188FE7F82EF122F6FE0BC05EEF17
:103F0000F522D91438F4F4FE07C0F2FC05C08FEE98
:103F1000F82202C01D2D01C0192DF4FE0DC0FE01B6
:103F2000ED0DF11D8081803319F499EEF92208C05E
:103F30001F5FF2FE05C003C08F2D867809F01F5F5A
:103F40000F2DF3FC14C0F0FE0FC01E1510F09D2CB9
:103F50000BC09D2C9E0C911A1E2D06C080E290E095
:103F6000B3010E9417201F5F1E15C0F304C01E1569
:103F700010F4E11A01C0EE2404FF0FC080E390E0CA
:103F8000B3010E94172002FF1DC001FD03C088E796
:103F900090E00EC088E590E00BC0802F867891F00D
:103FA00001FF02C08BE201C080E2F7FC8DE290E0ED
:103FB000B3010E94172006C080E390E0B3010E9485
:103FC00017209A94D914C0F3DA94F101ED0DF11D84
:103FD000808190E0B3010E941720DD20A9F706C080
:103FE00080E290E0B3010E941720EA94EE20C1F72E
:103FF00043CEF30166817781CB012B96E2E10C94ED
:10400000BF1DFC010590615070400110D8F78095EC
:1040100090958E0F9F1F0895FC0161507040019094
:104020000110D8F7809590958E0F9F1F08950F93DC
:104030001F93CF93DF938C01EB018B8181FF1BC01A
:1040400082FF0DC02E813F818C819D812817390709
:1040500064F4E881F9810193F983E88306C0E88577
:10406000F985802F0995892B31F48E819F810196E6
:104070009F838E8302C00FEF1FEFC801DF91CF91A6
:104080001F910F910895FA01AA27283051F120318C
:1040900081F1E8946F936E7F6E5F7F4F8F4F9F4FDC
:1040A000AF4FB1E03ED0B4E03CD0670F781F891F1E
:1040B0009A1FA11D680F791F8A1F911DA11D6A0FEC
:1040C000711D811D911DA11D20D009F468943F919F
:1040D0002AE0269F11243019305D3193DEF6CF019E
:1040E0000895462F4770405D4193B3E00FD0C9F764
:1040F000F6CF462F4F70405D4A3318F0495D31FDD1
:104100004052419302D0A9F7EACFB4E0A695979523
:10411000879577956795BA95C9F7009761057105F9
:1041200008959B01AC010A2E069457954795379543
:104130002795BA95C9F7620F731F841F951FA01D9D
:064140000895F894FFCF82
:104146007425690D006825690D0000000000000057
:104156000000000102020303030304040404040430
:1041660004040505050505050505050505050505FB
:1041760005050606060606060606060606060606DB
:1041860006060606060606060606060606060606C9
:1041960006060707070707070707070707070707AB
:1041A6000707070707070707070707070707070799
:1041B6000707070707070707070707070707070789
:1041C6000707070707070707070707070707070779
:1041D600070708080808080808080808080808085B
:1041E6000808080808080808080808080808080849
:1041F6000808080808080808080808080808080839
:104206000808080808080808080808080808080828
:104216000808080808080808080808080808080818
:104226000808080808080808080808080808080808
:1042360008080808080808080808080808080808F8
:1042460008080808080808080808080808080808E8
:0E42560008089501A101870100003442010013
:00000001FF
